{
  "_format": "hh-sol-artifact-1",
  "contractName": "Records",
  "sourceName": "contracts/Records.sol",
  "abi": [
    {
      "anonymous": false,
      "inputs": [
        {
          "indexed": false,
          "internalType": "uint256",
          "name": "record_id",
          "type": "uint256"
        },
        {
          "indexed": false,
          "internalType": "uint256",
          "name": "entry_id",
          "type": "uint256"
        },
        {
          "indexed": false,
          "internalType": "address",
          "name": "recipient",
          "type": "address"
        },
        {
          "indexed": false,
          "internalType": "bool",
          "name": "acknowledged",
          "type": "bool"
        },
        {
          "indexed": false,
          "internalType": "string",
          "name": "ipfs_data",
          "type": "string"
        }
      ],
      "name": "EntryAdded",
      "type": "event"
    },
    {
      "anonymous": false,
      "inputs": [
        {
          "indexed": false,
          "internalType": "uint256",
          "name": "id",
          "type": "uint256"
        },
        {
          "indexed": false,
          "internalType": "string",
          "name": "name",
          "type": "string"
        },
        {
          "indexed": false,
          "internalType": "string",
          "name": "description",
          "type": "string"
        },
        {
          "indexed": false,
          "internalType": "address",
          "name": "maintainer",
          "type": "address"
        }
      ],
      "name": "RecordAdded",
      "type": "event"
    },
    {
      "inputs": [],
      "name": "_recordsLength",
      "outputs": [
        {
          "internalType": "uint256",
          "name": "",
          "type": "uint256"
        }
      ],
      "stateMutability": "view",
      "type": "function"
    },
    {
      "inputs": [
        {
          "internalType": "uint256",
          "name": "_recordId",
          "type": "uint256"
        },
        {
          "internalType": "uint256",
          "name": "_entryId",
          "type": "uint256"
        }
      ],
      "name": "acknowledgeEntry",
      "outputs": [],
      "stateMutability": "nonpayable",
      "type": "function"
    },
    {
      "inputs": [
        {
          "internalType": "uint256",
          "name": "_recordId",
          "type": "uint256"
        },
        {
          "internalType": "address",
          "name": "_recipient",
          "type": "address"
        },
        {
          "internalType": "string",
          "name": "_ipfs_data",
          "type": "string"
        }
      ],
      "name": "addEntry",
      "outputs": [],
      "stateMutability": "nonpayable",
      "type": "function"
    },
    {
      "inputs": [
        {
          "internalType": "string",
          "name": "_name",
          "type": "string"
        },
        {
          "internalType": "string",
          "name": "_description",
          "type": "string"
        }
      ],
      "name": "addRecord",
      "outputs": [],
      "stateMutability": "nonpayable",
      "type": "function"
    },
    {
      "inputs": [
        {
          "internalType": "uint256",
          "name": "_recordId",
          "type": "uint256"
        },
        {
          "internalType": "uint256",
          "name": "_entryId",
          "type": "uint256"
        }
      ],
      "name": "deleteEntry",
      "outputs": [],
      "stateMutability": "nonpayable",
      "type": "function"
    },
    {
      "inputs": [
        {
          "internalType": "uint256",
          "name": "_recordId",
          "type": "uint256"
        }
      ],
      "name": "deleteRecord",
      "outputs": [],
      "stateMutability": "nonpayable",
      "type": "function"
    },
    {
      "inputs": [
        {
          "internalType": "uint256",
          "name": "_recordId",
          "type": "uint256"
        },
        {
          "internalType": "uint256",
          "name": "_entryId",
          "type": "uint256"
        }
      ],
      "name": "getEntry",
      "outputs": [
        {
          "components": [
            {
              "internalType": "address",
              "name": "recipient",
              "type": "address"
            },
            {
              "internalType": "bool",
              "name": "acknowledged",
              "type": "bool"
            },
            {
              "internalType": "string",
              "name": "ipfs_data",
              "type": "string"
            }
          ],
          "internalType": "struct Records.Entry",
          "name": "",
          "type": "tuple"
        }
      ],
      "stateMutability": "view",
      "type": "function"
    },
    {
      "inputs": [
        {
          "internalType": "uint256",
          "name": "_recordId",
          "type": "uint256"
        }
      ],
      "name": "getEntryCount",
      "outputs": [
        {
          "internalType": "uint256",
          "name": "",
          "type": "uint256"
        }
      ],
      "stateMutability": "view",
      "type": "function"
    },
    {
      "inputs": [
        {
          "internalType": "uint256",
          "name": "_recordId",
          "type": "uint256"
        }
      ],
      "name": "getRecord",
      "outputs": [
        {
          "components": [
            {
              "internalType": "string",
              "name": "name",
              "type": "string"
            },
            {
              "internalType": "string",
              "name": "description",
              "type": "string"
            },
            {
              "internalType": "address",
              "name": "maintainer",
              "type": "address"
            }
          ],
          "internalType": "struct Records.Record",
          "name": "",
          "type": "tuple"
        }
      ],
      "stateMutability": "view",
      "type": "function"
    },
    {
      "inputs": [
        {
          "internalType": "address",
          "name": "_maintainer",
          "type": "address"
        }
      ],
      "name": "getRecordsByMaintainer",
      "outputs": [
        {
          "components": [
            {
              "internalType": "uint256",
              "name": "id",
              "type": "uint256"
            },
            {
              "internalType": "string",
              "name": "name",
              "type": "string"
            },
            {
              "internalType": "string",
              "name": "description",
              "type": "string"
            },
            {
              "internalType": "address",
              "name": "maintainer",
              "type": "address"
            }
          ],
          "internalType": "struct Records.RecordWithId[]",
          "name": "",
          "type": "tuple[]"
        }
      ],
      "stateMutability": "view",
      "type": "function"
    },
    {
      "inputs": [
        {
          "internalType": "uint256",
          "name": "_recordId",
          "type": "uint256"
        },
        {
          "internalType": "uint256",
          "name": "_entryId",
          "type": "uint256"
        }
      ],
      "name": "unAcknowledgeEntry",
      "outputs": [],
      "stateMutability": "nonpayable",
      "type": "function"
    },
    {
      "inputs": [
        {
          "internalType": "uint256",
          "name": "_recordId",
          "type": "uint256"
        },
        {
          "internalType": "uint256",
          "name": "_entryId",
          "type": "uint256"
        },
        {
          "internalType": "address",
          "name": "_recipient",
          "type": "address"
        },
        {
          "internalType": "string",
          "name": "_ipfs_data",
          "type": "string"
        }
      ],
      "name": "updateEntry",
      "outputs": [],
      "stateMutability": "nonpayable",
      "type": "function"
    },
    {
      "inputs": [
        {
          "internalType": "uint256",
          "name": "_recordId",
          "type": "uint256"
        },
        {
          "internalType": "string",
          "name": "_name",
          "type": "string"
        },
        {
          "internalType": "string",
          "name": "_description",
          "type": "string"
        }
      ],
      "name": "updateRecordDetails",
      "outputs": [],
      "stateMutability": "nonpayable",
      "type": "function"
    },
    {
      "inputs": [
        {
          "internalType": "uint256",
          "name": "_recordId",
          "type": "uint256"
        },
        {
          "internalType": "address",
          "name": "_maintainer",
          "type": "address"
        }
      ],
      "name": "updateRecordMaintainer",
      "outputs": [],
      "stateMutability": "nonpayable",
      "type": "function"
    }
  ],
  "bytecode": "0x6080604052600060035534801561001557600080fd5b50612a30806100256000396000f3fe608060405234801561001057600080fd5b50600436106100ea5760003560e01c806398ba676d1161008c578063caba589f11610066578063caba589f14610243578063d82bfbec1461025f578063edbecef11461027d578063f10f98f6146102ad576100ea565b806398ba676d146101db578063c8cecbb41461020b578063c959624814610227576100ea565b8063061f9811116100c8578063061f9811146101575780632211e1b21461017357806339efa9ed1461018f5780638c4d6e0f146101ab576100ea565b8063012281ad146100ef57806303e9e6091461010b57806304badc031461013b575b600080fd5b61010960048036038101906101049190611c61565b6102c9565b005b61012560048036038101906101209190611ce4565b6104b6565b6040516101329190611dff565b60405180910390f35b61015560048036038101906101509190611e21565b61065c565b005b610171600480360381019061016c9190611ce4565b610784565b005b61018d60048036038101906101889190611e61565b610af4565b005b6101a960048036038101906101a49190611e21565b610bef565b005b6101c560048036038101906101c09190611ce4565b610d06565b6040516101d29190611eb0565b60405180910390f35b6101f560048036038101906101f09190611e21565b610d26565b6040516102029190611f36565b60405180910390f35b61022560048036038101906102209190611f58565b610e77565b005b610241600480360381019061023c9190611fe3565b610f73565b005b61025d6004803603810190610258919061205b565b61110b565b005b61026761130a565b6040516102749190611eb0565b60405180910390f35b610297600480360381019061029291906120ca565b611310565b6040516102a49190612232565b60405180910390f35b6102c760048036038101906102c29190611e21565b611746565b005b3373ffffffffffffffffffffffffffffffffffffffff1660008086815260200190815260200160002060020160009054906101000a900473ffffffffffffffffffffffffffffffffffffffff1673ffffffffffffffffffffffffffffffffffffffff161461036c576040517f08c379a0000000000000000000000000000000000000000000000000000000008152600401610363906122d7565b60405180910390fd5b600160008581526020019081526020016000208381548110610391576103906122f7565b5b906000526020600020906002020160000160149054906101000a900460ff16156103f0576040517f08c379a00000000000000000000000000000000000000000000000000000000081526004016103e790612372565b60405180910390fd5b81600160008681526020019081526020016000208481548110610416576104156122f7565b5b906000526020600020906002020160000160006101000a81548173ffffffffffffffffffffffffffffffffffffffff021916908373ffffffffffffffffffffffffffffffffffffffff1602179055508060016000868152602001908152602001600020848154811061048b5761048a6122f7565b5b906000526020600020906002020160010190805190602001906104af92919061185c565b5050505050565b6104be6118e2565b6000808381526020019081526020016000206040518060600160405290816000820180546104eb906123c1565b80601f0160208091040260200160405190810160405280929190818152602001828054610517906123c1565b80156105645780601f1061053957610100808354040283529160200191610564565b820191906000526020600020905b81548152906001019060200180831161054757829003601f168201915b5050505050815260200160018201805461057d906123c1565b80601f01602080910402602001604051908101604052809291908181526020018280546105a9906123c1565b80156105f65780601f106105cb576101008083540402835291602001916105f6565b820191906000526020600020905b8154815290600101906020018083116105d957829003601f168201915b505050505081526020016002820160009054906101000a900473ffffffffffffffffffffffffffffffffffffffff1673ffffffffffffffffffffffffffffffffffffffff1673ffffffffffffffffffffffffffffffffffffffff16815250509050919050565b3373ffffffffffffffffffffffffffffffffffffffff1660008084815260200190815260200160002060020160009054906101000a900473ffffffffffffffffffffffffffffffffffffffff1673ffffffffffffffffffffffffffffffffffffffff16146106ff576040517f08c379a00000000000000000000000000000000000000000000000000000000081526004016106f690612465565b60405180910390fd5b600160008381526020019081526020016000208181548110610724576107236122f7565b5b9060005260206000209060020201600080820160006101000a81549073ffffffffffffffffffffffffffffffffffffffff02191690556000820160146101000a81549060ff021916905560018201600061077e9190611919565b50505050565b3373ffffffffffffffffffffffffffffffffffffffff1660008083815260200190815260200160002060020160009054906101000a900473ffffffffffffffffffffffffffffffffffffffff1673ffffffffffffffffffffffffffffffffffffffff1614610827576040517f08c379a000000000000000000000000000000000000000000000000000000000815260040161081e906124f7565b60405180910390fd5b6000808281526020019081526020016000206000808201600061084a9190611919565b60018201600061085a9190611919565b6002820160006101000a81549073ffffffffffffffffffffffffffffffffffffffff021916905550506001600082815260200190815260200160002060006108a29190611959565b60005b600260003373ffffffffffffffffffffffffffffffffffffffff1673ffffffffffffffffffffffffffffffffffffffff16815260200190815260200160002080549050811015610ad85781600260003373ffffffffffffffffffffffffffffffffffffffff1673ffffffffffffffffffffffffffffffffffffffff1681526020019081526020016000208281548110610941576109406122f7565b5b90600052602060002001541415610ac557600260003373ffffffffffffffffffffffffffffffffffffffff1673ffffffffffffffffffffffffffffffffffffffff1681526020019081526020016000206001600260003373ffffffffffffffffffffffffffffffffffffffff1673ffffffffffffffffffffffffffffffffffffffff168152602001908152602001600020805490506109e09190612546565b815481106109f1576109f06122f7565b5b9060005260206000200154600260003373ffffffffffffffffffffffffffffffffffffffff1673ffffffffffffffffffffffffffffffffffffffff1681526020019081526020016000208281548110610a4d57610a4c6122f7565b5b9060005260206000200181905550600260003373ffffffffffffffffffffffffffffffffffffffff1673ffffffffffffffffffffffffffffffffffffffff168152602001908152602001600020805480610aaa57610aa961257a565b5b60019003818190600052602060002001600090559055610ad8565b8080610ad0906125a9565b9150506108a5565b5060036000815480929190610aec906125f2565b919050555050565b3373ffffffffffffffffffffffffffffffffffffffff1660008084815260200190815260200160002060020160009054906101000a900473ffffffffffffffffffffffffffffffffffffffff1673ffffffffffffffffffffffffffffffffffffffff1614610b97576040517f08c379a0000000000000000000000000000000000000000000000000000000008152600401610b8e9061268e565b60405180910390fd5b8060008084815260200190815260200160002060020160006101000a81548173ffffffffffffffffffffffffffffffffffffffff021916908373ffffffffffffffffffffffffffffffffffffffff1602179055505050565b3373ffffffffffffffffffffffffffffffffffffffff16600160008481526020019081526020016000208281548110610c2b57610c2a6122f7565b5b906000526020600020906002020160000160009054906101000a900473ffffffffffffffffffffffffffffffffffffffff1673ffffffffffffffffffffffffffffffffffffffff1614610cb3576040517f08c379a0000000000000000000000000000000000000000000000000000000008152600401610caa90612720565b60405180910390fd5b6000600160008481526020019081526020016000208281548110610cda57610cd96122f7565b5b906000526020600020906002020160000160146101000a81548160ff0219169083151502179055505050565b600060016000838152602001908152602001600020805490509050919050565b610d2e61197d565b600160008481526020019081526020016000208281548110610d5357610d526122f7565b5b90600052602060002090600202016040518060600160405290816000820160009054906101000a900473ffffffffffffffffffffffffffffffffffffffff1673ffffffffffffffffffffffffffffffffffffffff1673ffffffffffffffffffffffffffffffffffffffff1681526020016000820160149054906101000a900460ff16151515158152602001600182018054610ded906123c1565b80601f0160208091040260200160405190810160405280929190818152602001828054610e19906123c1565b8015610e665780601f10610e3b57610100808354040283529160200191610e66565b820191906000526020600020905b815481529060010190602001808311610e4957829003601f168201915b505050505081525050905092915050565b3373ffffffffffffffffffffffffffffffffffffffff1660008085815260200190815260200160002060020160009054906101000a900473ffffffffffffffffffffffffffffffffffffffff1673ffffffffffffffffffffffffffffffffffffffff1614610f1a576040517f08c379a0000000000000000000000000000000000000000000000000000000008152600401610f11906127b2565b60405180910390fd5b816000808581526020019081526020016000206000019080519060200190610f4392919061185c565b50806000808581526020019081526020016000206001019080519060200190610f6d92919061185c565b50505050565b60405180606001604052808381526020018281526020013373ffffffffffffffffffffffffffffffffffffffff1681525060008060035481526020019081526020016000206000820151816000019080519060200190610fd492919061185c565b506020820151816001019080519060200190610ff192919061185c565b5060408201518160020160006101000a81548173ffffffffffffffffffffffffffffffffffffffff021916908373ffffffffffffffffffffffffffffffffffffffff160217905550905050600260003373ffffffffffffffffffffffffffffffffffffffff1673ffffffffffffffffffffffffffffffffffffffff1681526020019081526020016000206003549080600181540180825580915050600190039060005260206000200160009091909190915055600360008154809291906110b7906125a9565b91905055507ffafc4abeafc2b3f4bc5cc8f60fba98757990cb39e7063143d65e38dd2a5227f560016003546110ec9190612546565b8383336040516110ff949392919061281a565b60405180910390a15050565b3373ffffffffffffffffffffffffffffffffffffffff1660008085815260200190815260200160002060020160009054906101000a900473ffffffffffffffffffffffffffffffffffffffff1673ffffffffffffffffffffffffffffffffffffffff16146111ae576040517f08c379a00000000000000000000000000000000000000000000000000000000081526004016111a5906128df565b60405180910390fd5b6001600084815260200190815260200160002060405180606001604052808473ffffffffffffffffffffffffffffffffffffffff16815260200160001515815260200183815250908060018154018082558091505060019003906000526020600020906002020160009091909190915060008201518160000160006101000a81548173ffffffffffffffffffffffffffffffffffffffff021916908373ffffffffffffffffffffffffffffffffffffffff16021790555060208201518160000160146101000a81548160ff02191690831515021790555060408201518160010190805190602001906112a192919061185c565b5050507f86a013c4465e740cdeee36669880227f08a857a9204ed200eeb5e94339b32eeb836001806000878152602001908152602001600020805490506112e89190612546565b846000856040516112fd95949392919061290e565b60405180910390a1505050565b60035481565b60606000600260008473ffffffffffffffffffffffffffffffffffffffff1673ffffffffffffffffffffffffffffffffffffffff1681526020019081526020016000208054905067ffffffffffffffff8111156113705761136f611b36565b5b6040519080825280602002602001820160405280156113a957816020015b6113966119b6565b81526020019060019003908161138e5790505b50905060005b600260008573ffffffffffffffffffffffffffffffffffffffff1673ffffffffffffffffffffffffffffffffffffffff1681526020019081526020016000208054905081101561173c576040518060800160405280600260008773ffffffffffffffffffffffffffffffffffffffff1673ffffffffffffffffffffffffffffffffffffffff1681526020019081526020016000208381548110611455576114546122f7565b5b90600052602060002001548152602001600080600260008973ffffffffffffffffffffffffffffffffffffffff1673ffffffffffffffffffffffffffffffffffffffff16815260200190815260200160002085815481106114b9576114b86122f7565b5b9060005260206000200154815260200190815260200160002060000180546114e0906123c1565b80601f016020809104026020016040519081016040528092919081815260200182805461150c906123c1565b80156115595780601f1061152e57610100808354040283529160200191611559565b820191906000526020600020905b81548152906001019060200180831161153c57829003601f168201915b50505050508152602001600080600260008973ffffffffffffffffffffffffffffffffffffffff1673ffffffffffffffffffffffffffffffffffffffff16815260200190815260200160002085815481106115b7576115b66122f7565b5b9060005260206000200154815260200190815260200160002060010180546115de906123c1565b80601f016020809104026020016040519081016040528092919081815260200182805461160a906123c1565b80156116575780601f1061162c57610100808354040283529160200191611657565b820191906000526020600020905b81548152906001019060200180831161163a57829003601f168201915b50505050508152602001600080600260008973ffffffffffffffffffffffffffffffffffffffff1673ffffffffffffffffffffffffffffffffffffffff16815260200190815260200160002085815481106116b5576116b46122f7565b5b9060005260206000200154815260200190815260200160002060020160009054906101000a900473ffffffffffffffffffffffffffffffffffffffff1673ffffffffffffffffffffffffffffffffffffffff1681525082828151811061171e5761171d6122f7565b5b60200260200101819052508080611734906125a9565b9150506113af565b5080915050919050565b3373ffffffffffffffffffffffffffffffffffffffff16600160008481526020019081526020016000208281548110611782576117816122f7565b5b906000526020600020906002020160000160009054906101000a900473ffffffffffffffffffffffffffffffffffffffff1673ffffffffffffffffffffffffffffffffffffffff161461180a576040517f08c379a0000000000000000000000000000000000000000000000000000000008152600401611801906129da565b60405180910390fd5b600180600084815260200190815260200160002082815481106118305761182f6122f7565b5b906000526020600020906002020160000160146101000a81548160ff0219169083151502179055505050565b828054611868906123c1565b90600052602060002090601f01602090048101928261188a57600085556118d1565b82601f106118a357805160ff19168380011785556118d1565b828001600101855582156118d1579182015b828111156118d05782518255916020019190600101906118b5565b5b5090506118de91906119f4565b5090565b60405180606001604052806060815260200160608152602001600073ffffffffffffffffffffffffffffffffffffffff1681525090565b508054611925906123c1565b6000825580601f106119375750611956565b601f01602090049060005260206000209081019061195591906119f4565b5b50565b508054600082556002029060005260206000209081019061197a9190611a11565b50565b6040518060600160405280600073ffffffffffffffffffffffffffffffffffffffff168152602001600015158152602001606081525090565b6040518060800160405280600081526020016060815260200160608152602001600073ffffffffffffffffffffffffffffffffffffffff1681525090565b5b80821115611a0d5760008160009055506001016119f5565b5090565b5b80821115611a6f57600080820160006101000a81549073ffffffffffffffffffffffffffffffffffffffff02191690556000820160146101000a81549060ff0219169055600182016000611a669190611919565b50600201611a12565b5090565b6000604051905090565b600080fd5b600080fd5b6000819050919050565b611a9a81611a87565b8114611aa557600080fd5b50565b600081359050611ab781611a91565b92915050565b600073ffffffffffffffffffffffffffffffffffffffff82169050919050565b6000611ae882611abd565b9050919050565b611af881611add565b8114611b0357600080fd5b50565b600081359050611b1581611aef565b92915050565b600080fd5b600080fd5b6000601f19601f8301169050919050565b7f4e487b7100000000000000000000000000000000000000000000000000000000600052604160045260246000fd5b611b6e82611b25565b810181811067ffffffffffffffff82111715611b8d57611b8c611b36565b5b80604052505050565b6000611ba0611a73565b9050611bac8282611b65565b919050565b600067ffffffffffffffff821115611bcc57611bcb611b36565b5b611bd582611b25565b9050602081019050919050565b82818337600083830152505050565b6000611c04611bff84611bb1565b611b96565b905082815260208101848484011115611c2057611c1f611b20565b5b611c2b848285611be2565b509392505050565b600082601f830112611c4857611c47611b1b565b5b8135611c58848260208601611bf1565b91505092915050565b60008060008060808587031215611c7b57611c7a611a7d565b5b6000611c8987828801611aa8565b9450506020611c9a87828801611aa8565b9350506040611cab87828801611b06565b925050606085013567ffffffffffffffff811115611ccc57611ccb611a82565b5b611cd887828801611c33565b91505092959194509250565b600060208284031215611cfa57611cf9611a7d565b5b6000611d0884828501611aa8565b91505092915050565b600081519050919050565b600082825260208201905092915050565b60005b83811015611d4b578082015181840152602081019050611d30565b83811115611d5a576000848401525b50505050565b6000611d6b82611d11565b611d758185611d1c565b9350611d85818560208601611d2d565b611d8e81611b25565b840191505092915050565b611da281611add565b82525050565b60006060830160008301518482036000860152611dc58282611d60565b91505060208301518482036020860152611ddf8282611d60565b9150506040830151611df46040860182611d99565b508091505092915050565b60006020820190508181036000830152611e198184611da8565b905092915050565b60008060408385031215611e3857611e37611a7d565b5b6000611e4685828601611aa8565b9250506020611e5785828601611aa8565b9150509250929050565b60008060408385031215611e7857611e77611a7d565b5b6000611e8685828601611aa8565b9250506020611e9785828601611b06565b9150509250929050565b611eaa81611a87565b82525050565b6000602082019050611ec56000830184611ea1565b92915050565b60008115159050919050565b611ee081611ecb565b82525050565b6000606083016000830151611efe6000860182611d99565b506020830151611f116020860182611ed7565b5060408301518482036040860152611f298282611d60565b9150508091505092915050565b60006020820190508181036000830152611f508184611ee6565b905092915050565b600080600060608486031215611f7157611f70611a7d565b5b6000611f7f86828701611aa8565b935050602084013567ffffffffffffffff811115611fa057611f9f611a82565b5b611fac86828701611c33565b925050604084013567ffffffffffffffff811115611fcd57611fcc611a82565b5b611fd986828701611c33565b9150509250925092565b60008060408385031215611ffa57611ff9611a7d565b5b600083013567ffffffffffffffff81111561201857612017611a82565b5b61202485828601611c33565b925050602083013567ffffffffffffffff81111561204557612044611a82565b5b61205185828601611c33565b9150509250929050565b60008060006060848603121561207457612073611a7d565b5b600061208286828701611aa8565b935050602061209386828701611b06565b925050604084013567ffffffffffffffff8111156120b4576120b3611a82565b5b6120c086828701611c33565b9150509250925092565b6000602082840312156120e0576120df611a7d565b5b60006120ee84828501611b06565b91505092915050565b600081519050919050565b600082825260208201905092915050565b6000819050602082019050919050565b61212c81611a87565b82525050565b600060808301600083015161214a6000860182612123565b50602083015184820360208601526121628282611d60565b9150506040830151848203604086015261217c8282611d60565b91505060608301516121916060860182611d99565b508091505092915050565b60006121a88383612132565b905092915050565b6000602082019050919050565b60006121c8826120f7565b6121d28185612102565b9350836020820285016121e485612113565b8060005b858110156122205784840389528151612201858261219c565b945061220c836121b0565b925060208a019950506001810190506121e8565b50829750879550505050505092915050565b6000602082019050818103600083015261224c81846121bd565b905092915050565b600082825260208201905092915050565b7f4f6e6c7920746865206d61696e7461696e65722063616e20757064617465207460008201527f686520656e7472696573206f662061207265636f72642e000000000000000000602082015250565b60006122c1603783612254565b91506122cc82612265565b604082019050919050565b600060208201905081810360008301526122f0816122b4565b9050919050565b7f4e487b7100000000000000000000000000000000000000000000000000000000600052603260045260246000fd5b7f456e74727920616c72656164792061636b6e6f776c65646765642e0000000000600082015250565b600061235c601b83612254565b915061236782612326565b602082019050919050565b6000602082019050818103600083015261238b8161234f565b9050919050565b7f4e487b7100000000000000000000000000000000000000000000000000000000600052602260045260246000fd5b600060028204905060018216806123d957607f821691505b602082108114156123ed576123ec612392565b5b50919050565b7f4f6e6c7920746865206d61696e7461696e65722063616e2064656c657465206560008201527f6e74726965732066726f6d2061207265636f72642e0000000000000000000000602082015250565b600061244f603583612254565b915061245a826123f3565b604082019050919050565b6000602082019050818103600083015261247e81612442565b9050919050565b7f4f6e6c7920746865206d61696e7461696e65722063616e2064656c657465206160008201527f207265636f72642e000000000000000000000000000000000000000000000000602082015250565b60006124e1602883612254565b91506124ec82612485565b604082019050919050565b60006020820190508181036000830152612510816124d4565b9050919050565b7f4e487b7100000000000000000000000000000000000000000000000000000000600052601160045260246000fd5b600061255182611a87565b915061255c83611a87565b92508282101561256f5761256e612517565b5b828203905092915050565b7f4e487b7100000000000000000000000000000000000000000000000000000000600052603160045260246000fd5b60006125b482611a87565b91507fffffffffffffffffffffffffffffffffffffffffffffffffffffffffffffffff8214156125e7576125e6612517565b5b600182019050919050565b60006125fd82611a87565b9150600082141561261157612610612517565b5b600182039050919050565b7f4f6e6c7920746865206d61696e7461696e65722063616e20757064617465207460008201527f6865206d61696e7461696e6572206f662061207265636f72642e000000000000602082015250565b6000612678603a83612254565b91506126838261261c565b604082019050919050565b600060208201905081810360008301526126a78161266b565b9050919050565b7f4f6e6c792074686520726563697069656e742063616e20756e61636b6e6f776c60008201527f6564676520616e20656e7472792e000000000000000000000000000000000000602082015250565b600061270a602e83612254565b9150612715826126ae565b604082019050919050565b60006020820190508181036000830152612739816126fd565b9050919050565b7f4f6e6c7920746865206d61696e7461696e65722063616e20757064617465207460008201527f68652064657461696c73206f662061207265636f72642e000000000000000000602082015250565b600061279c603783612254565b91506127a782612740565b604082019050919050565b600060208201905081810360008301526127cb8161278f565b9050919050565b60006127dd82611d11565b6127e78185612254565b93506127f7818560208601611d2d565b61280081611b25565b840191505092915050565b61281481611add565b82525050565b600060808201905061282f6000830187611ea1565b818103602083015261284181866127d2565b9050818103604083015261285581856127d2565b9050612864606083018461280b565b95945050505050565b7f4f6e6c7920746865206d61696e7461696e65722063616e2061646420656e747260008201527f69657320746f2061207265636f72642e00000000000000000000000000000000602082015250565b60006128c9603083612254565b91506128d48261286d565b604082019050919050565b600060208201905081810360008301526128f8816128bc565b9050919050565b61290881611ecb565b82525050565b600060a0820190506129236000830188611ea1565b6129306020830187611ea1565b61293d604083018661280b565b61294a60608301856128ff565b818103608083015261295c81846127d2565b90509695505050505050565b7f4f6e6c792074686520726563697069656e742063616e2061636b6e6f776c656460008201527f676520616e20656e7472792e0000000000000000000000000000000000000000602082015250565b60006129c4602c83612254565b91506129cf82612968565b604082019050919050565b600060208201905081810360008301526129f3816129b7565b905091905056fea264697066735822122077b35d4c78061953fd53ef21f1ed89b5b202efd618e37e664c097c23d19bc99e64736f6c63430008090033",
  "linkReferences": {},
  "deployedLinkReferences": {}
}