{
  "_format": "hh-sol-artifact-1",
  "contractName": "Records",
  "sourceName": "contracts/Records.sol",
  "abi": [
    {
      "anonymous": false,
      "inputs": [
        {
          "indexed": false,
          "internalType": "uint256",
          "name": "record_id",
          "type": "uint256"
        },
        {
          "indexed": false,
          "internalType": "uint256",
          "name": "entry_id",
          "type": "uint256"
        },
        {
          "indexed": false,
          "internalType": "address",
          "name": "recipient",
          "type": "address"
        },
        {
          "indexed": false,
          "internalType": "bool",
          "name": "acknowledged",
          "type": "bool"
        },
        {
          "indexed": false,
          "internalType": "string",
          "name": "ipfs_data",
          "type": "string"
        }
      ],
      "name": "EntryAdded",
      "type": "event"
    },
    {
      "anonymous": false,
      "inputs": [
        {
          "indexed": false,
          "internalType": "uint256",
          "name": "id",
          "type": "uint256"
        },
        {
          "indexed": false,
          "internalType": "string",
          "name": "name",
          "type": "string"
        },
        {
          "indexed": false,
          "internalType": "string",
          "name": "description",
          "type": "string"
        },
        {
          "indexed": false,
          "internalType": "address",
          "name": "maintainer",
          "type": "address"
        }
      ],
      "name": "RecordAdded",
      "type": "event"
    },
    {
      "inputs": [
        {
          "internalType": "uint256",
          "name": "_recordId",
          "type": "uint256"
        },
        {
          "internalType": "uint256",
          "name": "_entryId",
          "type": "uint256"
        }
      ],
      "name": "acknowledgeEntry",
      "outputs": [],
      "stateMutability": "nonpayable",
      "type": "function"
    },
    {
      "inputs": [
        {
          "internalType": "uint256",
          "name": "_recordId",
          "type": "uint256"
        },
        {
          "internalType": "address",
          "name": "_recipient",
          "type": "address"
        },
        {
          "internalType": "string",
          "name": "_ipfs_data",
          "type": "string"
        }
      ],
      "name": "addEntry",
      "outputs": [],
      "stateMutability": "nonpayable",
      "type": "function"
    },
    {
      "inputs": [
        {
          "internalType": "string",
          "name": "_name",
          "type": "string"
        },
        {
          "internalType": "string",
          "name": "_description",
          "type": "string"
        }
      ],
      "name": "addRecord",
      "outputs": [],
      "stateMutability": "nonpayable",
      "type": "function"
    },
    {
      "inputs": [
        {
          "internalType": "uint256",
          "name": "_recordId",
          "type": "uint256"
        },
        {
          "internalType": "uint256",
          "name": "_entryId",
          "type": "uint256"
        }
      ],
      "name": "deleteEntry",
      "outputs": [],
      "stateMutability": "nonpayable",
      "type": "function"
    },
    {
      "inputs": [
        {
          "internalType": "uint256",
          "name": "_recordId",
          "type": "uint256"
        }
      ],
      "name": "deleteRecord",
      "outputs": [],
      "stateMutability": "nonpayable",
      "type": "function"
    },
    {
      "inputs": [
        {
          "internalType": "uint256",
          "name": "_recordId",
          "type": "uint256"
        }
      ],
      "name": "getEntries",
      "outputs": [
        {
          "components": [
            {
              "internalType": "address",
              "name": "recipient",
              "type": "address"
            },
            {
              "internalType": "bool",
              "name": "acknowledged",
              "type": "bool"
            },
            {
              "internalType": "string",
              "name": "ipfs_data",
              "type": "string"
            }
          ],
          "internalType": "struct Records.Entry[]",
          "name": "",
          "type": "tuple[]"
        }
      ],
      "stateMutability": "view",
      "type": "function"
    },
    {
      "inputs": [
        {
          "internalType": "uint256",
          "name": "_recordId",
          "type": "uint256"
        },
        {
          "internalType": "uint256",
          "name": "_entryId",
          "type": "uint256"
        }
      ],
      "name": "getEntry",
      "outputs": [
        {
          "components": [
            {
              "internalType": "address",
              "name": "recipient",
              "type": "address"
            },
            {
              "internalType": "bool",
              "name": "acknowledged",
              "type": "bool"
            },
            {
              "internalType": "string",
              "name": "ipfs_data",
              "type": "string"
            }
          ],
          "internalType": "struct Records.Entry",
          "name": "",
          "type": "tuple"
        }
      ],
      "stateMutability": "view",
      "type": "function"
    },
    {
      "inputs": [
        {
          "internalType": "uint256",
          "name": "_recordId",
          "type": "uint256"
        }
      ],
      "name": "getEntryCount",
      "outputs": [
        {
          "internalType": "uint256",
          "name": "",
          "type": "uint256"
        }
      ],
      "stateMutability": "view",
      "type": "function"
    },
    {
      "inputs": [
        {
          "internalType": "uint256",
          "name": "_recordId",
          "type": "uint256"
        }
      ],
      "name": "getRecord",
      "outputs": [
        {
          "components": [
            {
              "internalType": "uint256",
              "name": "id",
              "type": "uint256"
            },
            {
              "internalType": "string",
              "name": "name",
              "type": "string"
            },
            {
              "internalType": "string",
              "name": "description",
              "type": "string"
            },
            {
              "internalType": "address",
              "name": "maintainer",
              "type": "address"
            }
          ],
          "internalType": "struct Records.Record",
          "name": "",
          "type": "tuple"
        }
      ],
      "stateMutability": "view",
      "type": "function"
    },
    {
      "inputs": [
        {
          "internalType": "address",
          "name": "_maintainer",
          "type": "address"
        }
      ],
      "name": "getRecordsByMaintainer",
      "outputs": [
        {
          "components": [
            {
              "internalType": "uint256",
              "name": "id",
              "type": "uint256"
            },
            {
              "internalType": "string",
              "name": "name",
              "type": "string"
            },
            {
              "internalType": "string",
              "name": "description",
              "type": "string"
            },
            {
              "internalType": "address",
              "name": "maintainer",
              "type": "address"
            }
          ],
          "internalType": "struct Records.Record[]",
          "name": "",
          "type": "tuple[]"
        }
      ],
      "stateMutability": "view",
      "type": "function"
    },
    {
      "inputs": [
        {
          "internalType": "uint256",
          "name": "_recordId",
          "type": "uint256"
        },
        {
          "internalType": "uint256",
          "name": "_entryId",
          "type": "uint256"
        }
      ],
      "name": "unAcknowledgeEntry",
      "outputs": [],
      "stateMutability": "nonpayable",
      "type": "function"
    },
    {
      "inputs": [
        {
          "internalType": "uint256",
          "name": "_recordId",
          "type": "uint256"
        },
        {
          "internalType": "uint256",
          "name": "_entryId",
          "type": "uint256"
        },
        {
          "internalType": "address",
          "name": "_recipient",
          "type": "address"
        },
        {
          "internalType": "string",
          "name": "_ipfs_data",
          "type": "string"
        }
      ],
      "name": "updateEntry",
      "outputs": [],
      "stateMutability": "nonpayable",
      "type": "function"
    },
    {
      "inputs": [
        {
          "internalType": "uint256",
          "name": "_recordId",
          "type": "uint256"
        },
        {
          "internalType": "string",
          "name": "_name",
          "type": "string"
        },
        {
          "internalType": "string",
          "name": "_description",
          "type": "string"
        }
      ],
      "name": "updateRecordDetails",
      "outputs": [],
      "stateMutability": "nonpayable",
      "type": "function"
    },
    {
      "inputs": [
        {
          "internalType": "uint256",
          "name": "_recordId",
          "type": "uint256"
        },
        {
          "internalType": "address",
          "name": "_maintainer",
          "type": "address"
        }
      ],
      "name": "updateRecordMaintainer",
      "outputs": [],
      "stateMutability": "nonpayable",
      "type": "function"
    }
  ],
  "bytecode": "0x608060405234801561001057600080fd5b50612d41806100206000396000f3fe608060405234801561001057600080fd5b50600436106100ea5760003560e01c806398ba676d1161008c578063caba589f11610066578063caba589f14610243578063d3549ebd1461025f578063edbecef11461028f578063f10f98f6146102bf576100ea565b806398ba676d146101db578063c8cecbb41461020b578063c959624814610227576100ea565b8063061f9811116100c8578063061f9811146101575780632211e1b21461017357806339efa9ed1461018f5780638c4d6e0f146101ab576100ea565b8063012281ad146100ef57806303e9e6091461010b57806304badc031461013b575b600080fd5b61010960048036038101906101049190611dc0565b6102db565b005b61012560048036038101906101209190611e43565b6104c8565b6040516101329190611f80565b60405180910390f35b61015560048036038101906101509190611fa2565b610678565b005b610171600480360381019061016c9190611e43565b6107a0565b005b61018d60048036038101906101889190611fe2565b610b00565b005b6101a960048036038101906101a49190611fa2565b610bfb565b005b6101c560048036038101906101c09190611e43565b610d12565b6040516101d29190612031565b60405180910390f35b6101f560048036038101906101f09190611fa2565b610d32565b60405161020291906120b7565b60405180910390f35b610225600480360381019061022091906120d9565b610e83565b005b610241600480360381019061023c9190612164565b610f7f565b005b61025d600480360381019061025891906121dc565b611132565b005b61027960048036038101906102749190611e43565b611331565b604051610286919061235d565b60405180910390f35b6102a960048036038101906102a4919061237f565b6114a6565b6040516102b691906124d8565b60405180910390f35b6102d960048036038101906102d49190611fa2565b6118dc565b005b3373ffffffffffffffffffffffffffffffffffffffff1660008086815260200190815260200160002060030160009054906101000a900473ffffffffffffffffffffffffffffffffffffffff1673ffffffffffffffffffffffffffffffffffffffff161461037e576040517f08c379a00000000000000000000000000000000000000000000000000000000081526004016103759061257d565b60405180910390fd5b6001600085815260200190815260200160002083815481106103a3576103a261259d565b5b906000526020600020906002020160000160149054906101000a900460ff1615610402576040517f08c379a00000000000000000000000000000000000000000000000000000000081526004016103f990612618565b60405180910390fd5b816001600086815260200190815260200160002084815481106104285761042761259d565b5b906000526020600020906002020160000160006101000a81548173ffffffffffffffffffffffffffffffffffffffff021916908373ffffffffffffffffffffffffffffffffffffffff1602179055508060016000868152602001908152602001600020848154811061049d5761049c61259d565b5b906000526020600020906002020160010190805190602001906104c19291906119f2565b5050505050565b6104d0611a78565b6000808381526020019081526020016000206040518060800160405290816000820154815260200160018201805461050790612667565b80601f016020809104026020016040519081016040528092919081815260200182805461053390612667565b80156105805780601f1061055557610100808354040283529160200191610580565b820191906000526020600020905b81548152906001019060200180831161056357829003601f168201915b5050505050815260200160028201805461059990612667565b80601f01602080910402602001604051908101604052809291908181526020018280546105c590612667565b80156106125780601f106105e757610100808354040283529160200191610612565b820191906000526020600020905b8154815290600101906020018083116105f557829003601f168201915b505050505081526020016003820160009054906101000a900473ffffffffffffffffffffffffffffffffffffffff1673ffffffffffffffffffffffffffffffffffffffff1673ffffffffffffffffffffffffffffffffffffffff16815250509050919050565b3373ffffffffffffffffffffffffffffffffffffffff1660008084815260200190815260200160002060030160009054906101000a900473ffffffffffffffffffffffffffffffffffffffff1673ffffffffffffffffffffffffffffffffffffffff161461071b576040517f08c379a00000000000000000000000000000000000000000000000000000000081526004016107129061270b565b60405180910390fd5b6001600083815260200190815260200160002081815481106107405761073f61259d565b5b9060005260206000209060020201600080820160006101000a81549073ffffffffffffffffffffffffffffffffffffffff02191690556000820160146101000a81549060ff021916905560018201600061079a9190611ab6565b50505050565b3373ffffffffffffffffffffffffffffffffffffffff1660008083815260200190815260200160002060030160009054906101000a900473ffffffffffffffffffffffffffffffffffffffff1673ffffffffffffffffffffffffffffffffffffffff1614610843576040517f08c379a000000000000000000000000000000000000000000000000000000000815260040161083a9061279d565b60405180910390fd5b60008082815260200190815260200160002060008082016000905560018201600061086e9190611ab6565b60028201600061087e9190611ab6565b6003820160006101000a81549073ffffffffffffffffffffffffffffffffffffffff021916905550506001600082815260200190815260200160002060006108c69190611af6565b60005b600260003373ffffffffffffffffffffffffffffffffffffffff1673ffffffffffffffffffffffffffffffffffffffff16815260200190815260200160002080549050811015610afc5781600260003373ffffffffffffffffffffffffffffffffffffffff1673ffffffffffffffffffffffffffffffffffffffff16815260200190815260200160002082815481106109655761096461259d565b5b90600052602060002001541415610ae957600260003373ffffffffffffffffffffffffffffffffffffffff1673ffffffffffffffffffffffffffffffffffffffff1681526020019081526020016000206001600260003373ffffffffffffffffffffffffffffffffffffffff1673ffffffffffffffffffffffffffffffffffffffff16815260200190815260200160002080549050610a0491906127ec565b81548110610a1557610a1461259d565b5b9060005260206000200154600260003373ffffffffffffffffffffffffffffffffffffffff1673ffffffffffffffffffffffffffffffffffffffff1681526020019081526020016000208281548110610a7157610a7061259d565b5b9060005260206000200181905550600260003373ffffffffffffffffffffffffffffffffffffffff1673ffffffffffffffffffffffffffffffffffffffff168152602001908152602001600020805480610ace57610acd612820565b5b60019003818190600052602060002001600090559055610afc565b8080610af49061284f565b9150506108c9565b5050565b3373ffffffffffffffffffffffffffffffffffffffff1660008084815260200190815260200160002060030160009054906101000a900473ffffffffffffffffffffffffffffffffffffffff1673ffffffffffffffffffffffffffffffffffffffff1614610ba3576040517f08c379a0000000000000000000000000000000000000000000000000000000008152600401610b9a9061290a565b60405180910390fd5b8060008084815260200190815260200160002060030160006101000a81548173ffffffffffffffffffffffffffffffffffffffff021916908373ffffffffffffffffffffffffffffffffffffffff1602179055505050565b3373ffffffffffffffffffffffffffffffffffffffff16600160008481526020019081526020016000208281548110610c3757610c3661259d565b5b906000526020600020906002020160000160009054906101000a900473ffffffffffffffffffffffffffffffffffffffff1673ffffffffffffffffffffffffffffffffffffffff1614610cbf576040517f08c379a0000000000000000000000000000000000000000000000000000000008152600401610cb69061299c565b60405180910390fd5b6000600160008481526020019081526020016000208281548110610ce657610ce561259d565b5b906000526020600020906002020160000160146101000a81548160ff0219169083151502179055505050565b600060016000838152602001908152602001600020805490509050919050565b610d3a611b1a565b600160008481526020019081526020016000208281548110610d5f57610d5e61259d565b5b90600052602060002090600202016040518060600160405290816000820160009054906101000a900473ffffffffffffffffffffffffffffffffffffffff1673ffffffffffffffffffffffffffffffffffffffff1673ffffffffffffffffffffffffffffffffffffffff1681526020016000820160149054906101000a900460ff16151515158152602001600182018054610df990612667565b80601f0160208091040260200160405190810160405280929190818152602001828054610e2590612667565b8015610e725780601f10610e4757610100808354040283529160200191610e72565b820191906000526020600020905b815481529060010190602001808311610e5557829003601f168201915b505050505081525050905092915050565b3373ffffffffffffffffffffffffffffffffffffffff1660008085815260200190815260200160002060030160009054906101000a900473ffffffffffffffffffffffffffffffffffffffff1673ffffffffffffffffffffffffffffffffffffffff1614610f26576040517f08c379a0000000000000000000000000000000000000000000000000000000008152600401610f1d90612a2e565b60405180910390fd5b816000808581526020019081526020016000206001019080519060200190610f4f9291906119f2565b50806000808581526020019081526020016000206002019080519060200190610f799291906119f2565b50505050565b600060c04233604051602001610f96929190612ab7565b60405160208183030381529060405280519060200120901c60001c905060405180608001604052808281526020018481526020018381526020013373ffffffffffffffffffffffffffffffffffffffff168152506000808381526020019081526020016000206000820151816000015560208201518160010190805190602001906110229291906119f2565b50604082015181600201908051906020019061103f9291906119f2565b5060608201518160030160006101000a81548173ffffffffffffffffffffffffffffffffffffffff021916908373ffffffffffffffffffffffffffffffffffffffff160217905550905050600260003373ffffffffffffffffffffffffffffffffffffffff1673ffffffffffffffffffffffffffffffffffffffff1681526020019081526020016000208190806001815401808255809150506001900390600052602060002001600090919091909150557ffafc4abeafc2b3f4bc5cc8f60fba98757990cb39e7063143d65e38dd2a5227f5818484336040516111259493929190612b2b565b60405180910390a1505050565b3373ffffffffffffffffffffffffffffffffffffffff1660008085815260200190815260200160002060030160009054906101000a900473ffffffffffffffffffffffffffffffffffffffff1673ffffffffffffffffffffffffffffffffffffffff16146111d5576040517f08c379a00000000000000000000000000000000000000000000000000000000081526004016111cc90612bf0565b60405180910390fd5b6001600084815260200190815260200160002060405180606001604052808473ffffffffffffffffffffffffffffffffffffffff16815260200160001515815260200183815250908060018154018082558091505060019003906000526020600020906002020160009091909190915060008201518160000160006101000a81548173ffffffffffffffffffffffffffffffffffffffff021916908373ffffffffffffffffffffffffffffffffffffffff16021790555060208201518160000160146101000a81548160ff02191690831515021790555060408201518160010190805190602001906112c89291906119f2565b5050507f86a013c4465e740cdeee36669880227f08a857a9204ed200eeb5e94339b32eeb8360018060008781526020019081526020016000208054905061130f91906127ec565b84600085604051611324959493929190612c1f565b60405180910390a1505050565b606060016000838152602001908152602001600020805480602002602001604051908101604052809291908181526020016000905b8282101561149b57838290600052602060002090600202016040518060600160405290816000820160009054906101000a900473ffffffffffffffffffffffffffffffffffffffff1673ffffffffffffffffffffffffffffffffffffffff1673ffffffffffffffffffffffffffffffffffffffff1681526020016000820160149054906101000a900460ff1615151515815260200160018201805461140a90612667565b80601f016020809104026020016040519081016040528092919081815260200182805461143690612667565b80156114835780601f1061145857610100808354040283529160200191611483565b820191906000526020600020905b81548152906001019060200180831161146657829003601f168201915b50505050508152505081526020019060010190611366565b505050509050919050565b60606000600260008473ffffffffffffffffffffffffffffffffffffffff1673ffffffffffffffffffffffffffffffffffffffff1681526020019081526020016000208054905067ffffffffffffffff81111561150657611505611c95565b5b60405190808252806020026020018201604052801561153f57816020015b61152c611a78565b8152602001906001900390816115245790505b50905060005b600260008573ffffffffffffffffffffffffffffffffffffffff1673ffffffffffffffffffffffffffffffffffffffff168152602001908152602001600020805490508110156118d2576040518060800160405280600260008773ffffffffffffffffffffffffffffffffffffffff1673ffffffffffffffffffffffffffffffffffffffff16815260200190815260200160002083815481106115eb576115ea61259d565b5b90600052602060002001548152602001600080600260008973ffffffffffffffffffffffffffffffffffffffff1673ffffffffffffffffffffffffffffffffffffffff168152602001908152602001600020858154811061164f5761164e61259d565b5b90600052602060002001548152602001908152602001600020600101805461167690612667565b80601f01602080910402602001604051908101604052809291908181526020018280546116a290612667565b80156116ef5780601f106116c4576101008083540402835291602001916116ef565b820191906000526020600020905b8154815290600101906020018083116116d257829003601f168201915b50505050508152602001600080600260008973ffffffffffffffffffffffffffffffffffffffff1673ffffffffffffffffffffffffffffffffffffffff168152602001908152602001600020858154811061174d5761174c61259d565b5b90600052602060002001548152602001908152602001600020600201805461177490612667565b80601f01602080910402602001604051908101604052809291908181526020018280546117a090612667565b80156117ed5780601f106117c2576101008083540402835291602001916117ed565b820191906000526020600020905b8154815290600101906020018083116117d057829003601f168201915b50505050508152602001600080600260008973ffffffffffffffffffffffffffffffffffffffff1673ffffffffffffffffffffffffffffffffffffffff168152602001908152602001600020858154811061184b5761184a61259d565b5b9060005260206000200154815260200190815260200160002060030160009054906101000a900473ffffffffffffffffffffffffffffffffffffffff1673ffffffffffffffffffffffffffffffffffffffff168152508282815181106118b4576118b361259d565b5b602002602001018190525080806118ca9061284f565b915050611545565b5080915050919050565b3373ffffffffffffffffffffffffffffffffffffffff166001600084815260200190815260200160002082815481106119185761191761259d565b5b906000526020600020906002020160000160009054906101000a900473ffffffffffffffffffffffffffffffffffffffff1673ffffffffffffffffffffffffffffffffffffffff16146119a0576040517f08c379a000000000000000000000000000000000000000000000000000000000815260040161199790612ceb565b60405180910390fd5b600180600084815260200190815260200160002082815481106119c6576119c561259d565b5b906000526020600020906002020160000160146101000a81548160ff0219169083151502179055505050565b8280546119fe90612667565b90600052602060002090601f016020900481019282611a205760008555611a67565b82601f10611a3957805160ff1916838001178555611a67565b82800160010185558215611a67579182015b82811115611a66578251825591602001919060010190611a4b565b5b509050611a749190611b53565b5090565b6040518060800160405280600081526020016060815260200160608152602001600073ffffffffffffffffffffffffffffffffffffffff1681525090565b508054611ac290612667565b6000825580601f10611ad45750611af3565b601f016020900490600052602060002090810190611af29190611b53565b5b50565b5080546000825560020290600052602060002090810190611b179190611b70565b50565b6040518060600160405280600073ffffffffffffffffffffffffffffffffffffffff168152602001600015158152602001606081525090565b5b80821115611b6c576000816000905550600101611b54565b5090565b5b80821115611bce57600080820160006101000a81549073ffffffffffffffffffffffffffffffffffffffff02191690556000820160146101000a81549060ff0219169055600182016000611bc59190611ab6565b50600201611b71565b5090565b6000604051905090565b600080fd5b600080fd5b6000819050919050565b611bf981611be6565b8114611c0457600080fd5b50565b600081359050611c1681611bf0565b92915050565b600073ffffffffffffffffffffffffffffffffffffffff82169050919050565b6000611c4782611c1c565b9050919050565b611c5781611c3c565b8114611c6257600080fd5b50565b600081359050611c7481611c4e565b92915050565b600080fd5b600080fd5b6000601f19601f8301169050919050565b7f4e487b7100000000000000000000000000000000000000000000000000000000600052604160045260246000fd5b611ccd82611c84565b810181811067ffffffffffffffff82111715611cec57611ceb611c95565b5b80604052505050565b6000611cff611bd2565b9050611d0b8282611cc4565b919050565b600067ffffffffffffffff821115611d2b57611d2a611c95565b5b611d3482611c84565b9050602081019050919050565b82818337600083830152505050565b6000611d63611d5e84611d10565b611cf5565b905082815260208101848484011115611d7f57611d7e611c7f565b5b611d8a848285611d41565b509392505050565b600082601f830112611da757611da6611c7a565b5b8135611db7848260208601611d50565b91505092915050565b60008060008060808587031215611dda57611dd9611bdc565b5b6000611de887828801611c07565b9450506020611df987828801611c07565b9350506040611e0a87828801611c65565b925050606085013567ffffffffffffffff811115611e2b57611e2a611be1565b5b611e3787828801611d92565b91505092959194509250565b600060208284031215611e5957611e58611bdc565b5b6000611e6784828501611c07565b91505092915050565b611e7981611be6565b82525050565b600081519050919050565b600082825260208201905092915050565b60005b83811015611eb9578082015181840152602081019050611e9e565b83811115611ec8576000848401525b50505050565b6000611ed982611e7f565b611ee38185611e8a565b9350611ef3818560208601611e9b565b611efc81611c84565b840191505092915050565b611f1081611c3c565b82525050565b6000608083016000830151611f2e6000860182611e70565b5060208301518482036020860152611f468282611ece565b91505060408301518482036040860152611f608282611ece565b9150506060830151611f756060860182611f07565b508091505092915050565b60006020820190508181036000830152611f9a8184611f16565b905092915050565b60008060408385031215611fb957611fb8611bdc565b5b6000611fc785828601611c07565b9250506020611fd885828601611c07565b9150509250929050565b60008060408385031215611ff957611ff8611bdc565b5b600061200785828601611c07565b925050602061201885828601611c65565b9150509250929050565b61202b81611be6565b82525050565b60006020820190506120466000830184612022565b92915050565b60008115159050919050565b6120618161204c565b82525050565b600060608301600083015161207f6000860182611f07565b5060208301516120926020860182612058565b50604083015184820360408601526120aa8282611ece565b9150508091505092915050565b600060208201905081810360008301526120d18184612067565b905092915050565b6000806000606084860312156120f2576120f1611bdc565b5b600061210086828701611c07565b935050602084013567ffffffffffffffff81111561212157612120611be1565b5b61212d86828701611d92565b925050604084013567ffffffffffffffff81111561214e5761214d611be1565b5b61215a86828701611d92565b9150509250925092565b6000806040838503121561217b5761217a611bdc565b5b600083013567ffffffffffffffff81111561219957612198611be1565b5b6121a585828601611d92565b925050602083013567ffffffffffffffff8111156121c6576121c5611be1565b5b6121d285828601611d92565b9150509250929050565b6000806000606084860312156121f5576121f4611bdc565b5b600061220386828701611c07565b935050602061221486828701611c65565b925050604084013567ffffffffffffffff81111561223557612234611be1565b5b61224186828701611d92565b9150509250925092565b600081519050919050565b600082825260208201905092915050565b6000819050602082019050919050565b600060608301600083015161228f6000860182611f07565b5060208301516122a26020860182612058565b50604083015184820360408601526122ba8282611ece565b9150508091505092915050565b60006122d38383612277565b905092915050565b6000602082019050919050565b60006122f38261224b565b6122fd8185612256565b93508360208202850161230f85612267565b8060005b8581101561234b578484038952815161232c85826122c7565b9450612337836122db565b925060208a01995050600181019050612313565b50829750879550505050505092915050565b6000602082019050818103600083015261237781846122e8565b905092915050565b60006020828403121561239557612394611bdc565b5b60006123a384828501611c65565b91505092915050565b600081519050919050565b600082825260208201905092915050565b6000819050602082019050919050565b60006080830160008301516123f06000860182611e70565b50602083015184820360208601526124088282611ece565b915050604083015184820360408601526124228282611ece565b91505060608301516124376060860182611f07565b508091505092915050565b600061244e83836123d8565b905092915050565b6000602082019050919050565b600061246e826123ac565b61247881856123b7565b93508360208202850161248a856123c8565b8060005b858110156124c657848403895281516124a78582612442565b94506124b283612456565b925060208a0199505060018101905061248e565b50829750879550505050505092915050565b600060208201905081810360008301526124f28184612463565b905092915050565b600082825260208201905092915050565b7f4f6e6c7920746865206d61696e7461696e65722063616e20757064617465207460008201527f686520656e7472696573206f662061207265636f72642e000000000000000000602082015250565b60006125676037836124fa565b91506125728261250b565b604082019050919050565b600060208201905081810360008301526125968161255a565b9050919050565b7f4e487b7100000000000000000000000000000000000000000000000000000000600052603260045260246000fd5b7f456e74727920616c72656164792061636b6e6f776c65646765642e0000000000600082015250565b6000612602601b836124fa565b915061260d826125cc565b602082019050919050565b60006020820190508181036000830152612631816125f5565b9050919050565b7f4e487b7100000000000000000000000000000000000000000000000000000000600052602260045260246000fd5b6000600282049050600182168061267f57607f821691505b6020821081141561269357612692612638565b5b50919050565b7f4f6e6c7920746865206d61696e7461696e65722063616e2064656c657465206560008201527f6e74726965732066726f6d2061207265636f72642e0000000000000000000000602082015250565b60006126f56035836124fa565b915061270082612699565b604082019050919050565b60006020820190508181036000830152612724816126e8565b9050919050565b7f4f6e6c7920746865206d61696e7461696e65722063616e2064656c657465206160008201527f207265636f72642e000000000000000000000000000000000000000000000000602082015250565b60006127876028836124fa565b91506127928261272b565b604082019050919050565b600060208201905081810360008301526127b68161277a565b9050919050565b7f4e487b7100000000000000000000000000000000000000000000000000000000600052601160045260246000fd5b60006127f782611be6565b915061280283611be6565b925082821015612815576128146127bd565b5b828203905092915050565b7f4e487b7100000000000000000000000000000000000000000000000000000000600052603160045260246000fd5b600061285a82611be6565b91507fffffffffffffffffffffffffffffffffffffffffffffffffffffffffffffffff82141561288d5761288c6127bd565b5b600182019050919050565b7f4f6e6c7920746865206d61696e7461696e65722063616e20757064617465207460008201527f6865206d61696e7461696e6572206f662061207265636f72642e000000000000602082015250565b60006128f4603a836124fa565b91506128ff82612898565b604082019050919050565b60006020820190508181036000830152612923816128e7565b9050919050565b7f4f6e6c792074686520726563697069656e742063616e20756e61636b6e6f776c60008201527f6564676520616e20656e7472792e000000000000000000000000000000000000602082015250565b6000612986602e836124fa565b91506129918261292a565b604082019050919050565b600060208201905081810360008301526129b581612979565b9050919050565b7f4f6e6c7920746865206d61696e7461696e65722063616e20757064617465207460008201527f68652064657461696c73206f662061207265636f72642e000000000000000000602082015250565b6000612a186037836124fa565b9150612a23826129bc565b604082019050919050565b60006020820190508181036000830152612a4781612a0b565b9050919050565b6000819050919050565b612a69612a6482611be6565b612a4e565b82525050565b60008160601b9050919050565b6000612a8782612a6f565b9050919050565b6000612a9982612a7c565b9050919050565b612ab1612aac82611c3c565b612a8e565b82525050565b6000612ac38285612a58565b602082019150612ad38284612aa0565b6014820191508190509392505050565b6000612aee82611e7f565b612af881856124fa565b9350612b08818560208601611e9b565b612b1181611c84565b840191505092915050565b612b2581611c3c565b82525050565b6000608082019050612b406000830187612022565b8181036020830152612b528186612ae3565b90508181036040830152612b668185612ae3565b9050612b756060830184612b1c565b95945050505050565b7f4f6e6c7920746865206d61696e7461696e65722063616e2061646420656e747260008201527f69657320746f2061207265636f72642e00000000000000000000000000000000602082015250565b6000612bda6030836124fa565b9150612be582612b7e565b604082019050919050565b60006020820190508181036000830152612c0981612bcd565b9050919050565b612c198161204c565b82525050565b600060a082019050612c346000830188612022565b612c416020830187612022565b612c4e6040830186612b1c565b612c5b6060830185612c10565b8181036080830152612c6d8184612ae3565b90509695505050505050565b7f4f6e6c792074686520726563697069656e742063616e2061636b6e6f776c656460008201527f676520616e20656e7472792e0000000000000000000000000000000000000000602082015250565b6000612cd5602c836124fa565b9150612ce082612c79565b604082019050919050565b60006020820190508181036000830152612d0481612cc8565b905091905056fea2646970667358221220b00adf816f594a3b02b66944b442f8e82deb4335690e2ad3f45ca8f6548a3dd164736f6c63430008090033",
  "linkReferences": {},
  "deployedLinkReferences": {}
}