{
  "_format": "hh-sol-artifact-1",
  "contractName": "Records",
  "sourceName": "contracts/Records.sol",
  "abi": [
    {
      "anonymous": false,
      "inputs": [
        {
          "indexed": false,
          "internalType": "uint256",
          "name": "record_id",
          "type": "uint256"
        },
        {
          "indexed": false,
          "internalType": "uint256",
          "name": "entry_id",
          "type": "uint256"
        },
        {
          "indexed": false,
          "internalType": "address",
          "name": "recipient",
          "type": "address"
        },
        {
          "indexed": false,
          "internalType": "bool",
          "name": "acknowledged",
          "type": "bool"
        },
        {
          "indexed": false,
          "internalType": "string",
          "name": "ipfs_data",
          "type": "string"
        }
      ],
      "name": "EntryAdded",
      "type": "event"
    },
    {
      "anonymous": false,
      "inputs": [
        {
          "indexed": false,
          "internalType": "uint256",
          "name": "id",
          "type": "uint256"
        },
        {
          "indexed": false,
          "internalType": "string",
          "name": "name",
          "type": "string"
        },
        {
          "indexed": false,
          "internalType": "string",
          "name": "description",
          "type": "string"
        },
        {
          "indexed": false,
          "internalType": "address",
          "name": "maintainer",
          "type": "address"
        }
      ],
      "name": "RecordAdded",
      "type": "event"
    },
    {
      "inputs": [
        {
          "internalType": "uint256",
          "name": "_recordId",
          "type": "uint256"
        },
        {
          "internalType": "uint256",
          "name": "_entryId",
          "type": "uint256"
        }
      ],
      "name": "acknowledgeEntry",
      "outputs": [],
      "stateMutability": "nonpayable",
      "type": "function"
    },
    {
      "inputs": [
        {
          "internalType": "uint256",
          "name": "_recordId",
          "type": "uint256"
        },
        {
          "internalType": "address",
          "name": "_recipient",
          "type": "address"
        },
        {
          "internalType": "string",
          "name": "_ipfs_data",
          "type": "string"
        }
      ],
      "name": "addEntry",
      "outputs": [],
      "stateMutability": "nonpayable",
      "type": "function"
    },
    {
      "inputs": [
        {
          "internalType": "string",
          "name": "_name",
          "type": "string"
        },
        {
          "internalType": "string",
          "name": "_description",
          "type": "string"
        }
      ],
      "name": "addRecord",
      "outputs": [],
      "stateMutability": "nonpayable",
      "type": "function"
    },
    {
      "inputs": [
        {
          "internalType": "uint256",
          "name": "_recordId",
          "type": "uint256"
        },
        {
          "internalType": "uint256",
          "name": "_entryId",
          "type": "uint256"
        }
      ],
      "name": "deleteEntry",
      "outputs": [],
      "stateMutability": "nonpayable",
      "type": "function"
    },
    {
      "inputs": [
        {
          "internalType": "uint256",
          "name": "_recordId",
          "type": "uint256"
        }
      ],
      "name": "deleteRecord",
      "outputs": [],
      "stateMutability": "nonpayable",
      "type": "function"
    },
    {
      "inputs": [
        {
          "internalType": "uint256",
          "name": "_recordId",
          "type": "uint256"
        },
        {
          "internalType": "uint256",
          "name": "_entryId",
          "type": "uint256"
        }
      ],
      "name": "getEntry",
      "outputs": [
        {
          "components": [
            {
              "internalType": "address",
              "name": "recipient",
              "type": "address"
            },
            {
              "internalType": "bool",
              "name": "acknowledged",
              "type": "bool"
            },
            {
              "internalType": "string",
              "name": "ipfs_data",
              "type": "string"
            }
          ],
          "internalType": "struct Records.Entry",
          "name": "",
          "type": "tuple"
        }
      ],
      "stateMutability": "view",
      "type": "function"
    },
    {
      "inputs": [
        {
          "internalType": "uint256",
          "name": "_recordId",
          "type": "uint256"
        }
      ],
      "name": "getEntryCount",
      "outputs": [
        {
          "internalType": "uint256",
          "name": "",
          "type": "uint256"
        }
      ],
      "stateMutability": "view",
      "type": "function"
    },
    {
      "inputs": [
        {
          "internalType": "uint256",
          "name": "_recordId",
          "type": "uint256"
        }
      ],
      "name": "getRecord",
      "outputs": [
        {
          "components": [
            {
              "internalType": "uint256",
              "name": "id",
              "type": "uint256"
            },
            {
              "internalType": "string",
              "name": "name",
              "type": "string"
            },
            {
              "internalType": "string",
              "name": "description",
              "type": "string"
            },
            {
              "internalType": "address",
              "name": "maintainer",
              "type": "address"
            }
          ],
          "internalType": "struct Records.Record",
          "name": "",
          "type": "tuple"
        }
      ],
      "stateMutability": "view",
      "type": "function"
    },
    {
      "inputs": [
        {
          "internalType": "address",
          "name": "_maintainer",
          "type": "address"
        }
      ],
      "name": "getRecordsByMaintainer",
      "outputs": [
        {
          "components": [
            {
              "internalType": "uint256",
              "name": "id",
              "type": "uint256"
            },
            {
              "internalType": "string",
              "name": "name",
              "type": "string"
            },
            {
              "internalType": "string",
              "name": "description",
              "type": "string"
            },
            {
              "internalType": "address",
              "name": "maintainer",
              "type": "address"
            }
          ],
          "internalType": "struct Records.Record[]",
          "name": "",
          "type": "tuple[]"
        }
      ],
      "stateMutability": "view",
      "type": "function"
    },
    {
      "inputs": [
        {
          "internalType": "uint256",
          "name": "_recordId",
          "type": "uint256"
        },
        {
          "internalType": "uint256",
          "name": "_entryId",
          "type": "uint256"
        }
      ],
      "name": "unAcknowledgeEntry",
      "outputs": [],
      "stateMutability": "nonpayable",
      "type": "function"
    },
    {
      "inputs": [
        {
          "internalType": "uint256",
          "name": "_recordId",
          "type": "uint256"
        },
        {
          "internalType": "uint256",
          "name": "_entryId",
          "type": "uint256"
        },
        {
          "internalType": "address",
          "name": "_recipient",
          "type": "address"
        },
        {
          "internalType": "string",
          "name": "_ipfs_data",
          "type": "string"
        }
      ],
      "name": "updateEntry",
      "outputs": [],
      "stateMutability": "nonpayable",
      "type": "function"
    },
    {
      "inputs": [
        {
          "internalType": "uint256",
          "name": "_recordId",
          "type": "uint256"
        },
        {
          "internalType": "string",
          "name": "_name",
          "type": "string"
        },
        {
          "internalType": "string",
          "name": "_description",
          "type": "string"
        }
      ],
      "name": "updateRecordDetails",
      "outputs": [],
      "stateMutability": "nonpayable",
      "type": "function"
    },
    {
      "inputs": [
        {
          "internalType": "uint256",
          "name": "_recordId",
          "type": "uint256"
        },
        {
          "internalType": "address",
          "name": "_maintainer",
          "type": "address"
        }
      ],
      "name": "updateRecordMaintainer",
      "outputs": [],
      "stateMutability": "nonpayable",
      "type": "function"
    }
  ],
  "bytecode": "0x608060405234801561001057600080fd5b50612a4d806100206000396000f3fe608060405234801561001057600080fd5b50600436106100cf5760003560e01c80638c4d6e0f1161008c578063c959624811610066578063c95962481461020c578063caba589f14610228578063edbecef114610244578063f10f98f614610274576100cf565b80638c4d6e0f1461019057806398ba676d146101c0578063c8cecbb4146101f0576100cf565b8063012281ad146100d457806303e9e609146100f057806304badc0314610120578063061f98111461013c5780632211e1b21461015857806339efa9ed14610174575b600080fd5b6100ee60048036038101906100e99190611c00565b610290565b005b61010a60048036038101906101059190611c83565b61047d565b6040516101179190611dc0565b60405180910390f35b61013a60048036038101906101359190611de2565b61062d565b005b61015660048036038101906101519190611c83565b610755565b005b610172600480360381019061016d9190611e22565b610ab5565b005b61018e60048036038101906101899190611de2565b610bb0565b005b6101aa60048036038101906101a59190611c83565b610cc7565b6040516101b79190611e71565b60405180910390f35b6101da60048036038101906101d59190611de2565b610ce7565b6040516101e79190611ef7565b60405180910390f35b61020a60048036038101906102059190611f19565b610e38565b005b61022660048036038101906102219190611fa4565b610f34565b005b610242600480360381019061023d919061201c565b6110e7565b005b61025e6004803603810190610259919061208b565b6112e6565b60405161026b91906121e4565b60405180910390f35b61028e60048036038101906102899190611de2565b61171c565b005b3373ffffffffffffffffffffffffffffffffffffffff1660008086815260200190815260200160002060030160009054906101000a900473ffffffffffffffffffffffffffffffffffffffff1673ffffffffffffffffffffffffffffffffffffffff1614610333576040517f08c379a000000000000000000000000000000000000000000000000000000000815260040161032a90612289565b60405180910390fd5b600160008581526020019081526020016000208381548110610358576103576122a9565b5b906000526020600020906002020160000160149054906101000a900460ff16156103b7576040517f08c379a00000000000000000000000000000000000000000000000000000000081526004016103ae90612324565b60405180910390fd5b816001600086815260200190815260200160002084815481106103dd576103dc6122a9565b5b906000526020600020906002020160000160006101000a81548173ffffffffffffffffffffffffffffffffffffffff021916908373ffffffffffffffffffffffffffffffffffffffff16021790555080600160008681526020019081526020016000208481548110610452576104516122a9565b5b90600052602060002090600202016001019080519060200190610476929190611832565b5050505050565b6104856118b8565b600080838152602001908152602001600020604051806080016040529081600082015481526020016001820180546104bc90612373565b80601f01602080910402602001604051908101604052809291908181526020018280546104e890612373565b80156105355780601f1061050a57610100808354040283529160200191610535565b820191906000526020600020905b81548152906001019060200180831161051857829003601f168201915b5050505050815260200160028201805461054e90612373565b80601f016020809104026020016040519081016040528092919081815260200182805461057a90612373565b80156105c75780601f1061059c576101008083540402835291602001916105c7565b820191906000526020600020905b8154815290600101906020018083116105aa57829003601f168201915b505050505081526020016003820160009054906101000a900473ffffffffffffffffffffffffffffffffffffffff1673ffffffffffffffffffffffffffffffffffffffff1673ffffffffffffffffffffffffffffffffffffffff16815250509050919050565b3373ffffffffffffffffffffffffffffffffffffffff1660008084815260200190815260200160002060030160009054906101000a900473ffffffffffffffffffffffffffffffffffffffff1673ffffffffffffffffffffffffffffffffffffffff16146106d0576040517f08c379a00000000000000000000000000000000000000000000000000000000081526004016106c790612417565b60405180910390fd5b6001600083815260200190815260200160002081815481106106f5576106f46122a9565b5b9060005260206000209060020201600080820160006101000a81549073ffffffffffffffffffffffffffffffffffffffff02191690556000820160146101000a81549060ff021916905560018201600061074f91906118f6565b50505050565b3373ffffffffffffffffffffffffffffffffffffffff1660008083815260200190815260200160002060030160009054906101000a900473ffffffffffffffffffffffffffffffffffffffff1673ffffffffffffffffffffffffffffffffffffffff16146107f8576040517f08c379a00000000000000000000000000000000000000000000000000000000081526004016107ef906124a9565b60405180910390fd5b60008082815260200190815260200160002060008082016000905560018201600061082391906118f6565b60028201600061083391906118f6565b6003820160006101000a81549073ffffffffffffffffffffffffffffffffffffffff0219169055505060016000828152602001908152602001600020600061087b9190611936565b60005b600260003373ffffffffffffffffffffffffffffffffffffffff1673ffffffffffffffffffffffffffffffffffffffff16815260200190815260200160002080549050811015610ab15781600260003373ffffffffffffffffffffffffffffffffffffffff1673ffffffffffffffffffffffffffffffffffffffff168152602001908152602001600020828154811061091a576109196122a9565b5b90600052602060002001541415610a9e57600260003373ffffffffffffffffffffffffffffffffffffffff1673ffffffffffffffffffffffffffffffffffffffff1681526020019081526020016000206001600260003373ffffffffffffffffffffffffffffffffffffffff1673ffffffffffffffffffffffffffffffffffffffff168152602001908152602001600020805490506109b991906124f8565b815481106109ca576109c96122a9565b5b9060005260206000200154600260003373ffffffffffffffffffffffffffffffffffffffff1673ffffffffffffffffffffffffffffffffffffffff1681526020019081526020016000208281548110610a2657610a256122a9565b5b9060005260206000200181905550600260003373ffffffffffffffffffffffffffffffffffffffff1673ffffffffffffffffffffffffffffffffffffffff168152602001908152602001600020805480610a8357610a8261252c565b5b60019003818190600052602060002001600090559055610ab1565b8080610aa99061255b565b91505061087e565b5050565b3373ffffffffffffffffffffffffffffffffffffffff1660008084815260200190815260200160002060030160009054906101000a900473ffffffffffffffffffffffffffffffffffffffff1673ffffffffffffffffffffffffffffffffffffffff1614610b58576040517f08c379a0000000000000000000000000000000000000000000000000000000008152600401610b4f90612616565b60405180910390fd5b8060008084815260200190815260200160002060030160006101000a81548173ffffffffffffffffffffffffffffffffffffffff021916908373ffffffffffffffffffffffffffffffffffffffff1602179055505050565b3373ffffffffffffffffffffffffffffffffffffffff16600160008481526020019081526020016000208281548110610bec57610beb6122a9565b5b906000526020600020906002020160000160009054906101000a900473ffffffffffffffffffffffffffffffffffffffff1673ffffffffffffffffffffffffffffffffffffffff1614610c74576040517f08c379a0000000000000000000000000000000000000000000000000000000008152600401610c6b906126a8565b60405180910390fd5b6000600160008481526020019081526020016000208281548110610c9b57610c9a6122a9565b5b906000526020600020906002020160000160146101000a81548160ff0219169083151502179055505050565b600060016000838152602001908152602001600020805490509050919050565b610cef61195a565b600160008481526020019081526020016000208281548110610d1457610d136122a9565b5b90600052602060002090600202016040518060600160405290816000820160009054906101000a900473ffffffffffffffffffffffffffffffffffffffff1673ffffffffffffffffffffffffffffffffffffffff1673ffffffffffffffffffffffffffffffffffffffff1681526020016000820160149054906101000a900460ff16151515158152602001600182018054610dae90612373565b80601f0160208091040260200160405190810160405280929190818152602001828054610dda90612373565b8015610e275780601f10610dfc57610100808354040283529160200191610e27565b820191906000526020600020905b815481529060010190602001808311610e0a57829003601f168201915b505050505081525050905092915050565b3373ffffffffffffffffffffffffffffffffffffffff1660008085815260200190815260200160002060030160009054906101000a900473ffffffffffffffffffffffffffffffffffffffff1673ffffffffffffffffffffffffffffffffffffffff1614610edb576040517f08c379a0000000000000000000000000000000000000000000000000000000008152600401610ed29061273a565b60405180910390fd5b816000808581526020019081526020016000206001019080519060200190610f04929190611832565b50806000808581526020019081526020016000206002019080519060200190610f2e929190611832565b50505050565b600060c04233604051602001610f4b9291906127c3565b60405160208183030381529060405280519060200120901c60001c905060405180608001604052808281526020018481526020018381526020013373ffffffffffffffffffffffffffffffffffffffff16815250600080838152602001908152602001600020600082015181600001556020820151816001019080519060200190610fd7929190611832565b506040820151816002019080519060200190610ff4929190611832565b5060608201518160030160006101000a81548173ffffffffffffffffffffffffffffffffffffffff021916908373ffffffffffffffffffffffffffffffffffffffff160217905550905050600260003373ffffffffffffffffffffffffffffffffffffffff1673ffffffffffffffffffffffffffffffffffffffff1681526020019081526020016000208190806001815401808255809150506001900390600052602060002001600090919091909150557ffafc4abeafc2b3f4bc5cc8f60fba98757990cb39e7063143d65e38dd2a5227f5818484336040516110da9493929190612837565b60405180910390a1505050565b3373ffffffffffffffffffffffffffffffffffffffff1660008085815260200190815260200160002060030160009054906101000a900473ffffffffffffffffffffffffffffffffffffffff1673ffffffffffffffffffffffffffffffffffffffff161461118a576040517f08c379a0000000000000000000000000000000000000000000000000000000008152600401611181906128fc565b60405180910390fd5b6001600084815260200190815260200160002060405180606001604052808473ffffffffffffffffffffffffffffffffffffffff16815260200160001515815260200183815250908060018154018082558091505060019003906000526020600020906002020160009091909190915060008201518160000160006101000a81548173ffffffffffffffffffffffffffffffffffffffff021916908373ffffffffffffffffffffffffffffffffffffffff16021790555060208201518160000160146101000a81548160ff021916908315150217905550604082015181600101908051906020019061127d929190611832565b5050507f86a013c4465e740cdeee36669880227f08a857a9204ed200eeb5e94339b32eeb836001806000878152602001908152602001600020805490506112c491906124f8565b846000856040516112d995949392919061292b565b60405180910390a1505050565b60606000600260008473ffffffffffffffffffffffffffffffffffffffff1673ffffffffffffffffffffffffffffffffffffffff1681526020019081526020016000208054905067ffffffffffffffff81111561134657611345611ad5565b5b60405190808252806020026020018201604052801561137f57816020015b61136c6118b8565b8152602001906001900390816113645790505b50905060005b600260008573ffffffffffffffffffffffffffffffffffffffff1673ffffffffffffffffffffffffffffffffffffffff16815260200190815260200160002080549050811015611712576040518060800160405280600260008773ffffffffffffffffffffffffffffffffffffffff1673ffffffffffffffffffffffffffffffffffffffff168152602001908152602001600020838154811061142b5761142a6122a9565b5b90600052602060002001548152602001600080600260008973ffffffffffffffffffffffffffffffffffffffff1673ffffffffffffffffffffffffffffffffffffffff168152602001908152602001600020858154811061148f5761148e6122a9565b5b9060005260206000200154815260200190815260200160002060010180546114b690612373565b80601f01602080910402602001604051908101604052809291908181526020018280546114e290612373565b801561152f5780601f106115045761010080835404028352916020019161152f565b820191906000526020600020905b81548152906001019060200180831161151257829003601f168201915b50505050508152602001600080600260008973ffffffffffffffffffffffffffffffffffffffff1673ffffffffffffffffffffffffffffffffffffffff168152602001908152602001600020858154811061158d5761158c6122a9565b5b9060005260206000200154815260200190815260200160002060020180546115b490612373565b80601f01602080910402602001604051908101604052809291908181526020018280546115e090612373565b801561162d5780601f106116025761010080835404028352916020019161162d565b820191906000526020600020905b81548152906001019060200180831161161057829003601f168201915b50505050508152602001600080600260008973ffffffffffffffffffffffffffffffffffffffff1673ffffffffffffffffffffffffffffffffffffffff168152602001908152602001600020858154811061168b5761168a6122a9565b5b9060005260206000200154815260200190815260200160002060030160009054906101000a900473ffffffffffffffffffffffffffffffffffffffff1673ffffffffffffffffffffffffffffffffffffffff168152508282815181106116f4576116f36122a9565b5b6020026020010181905250808061170a9061255b565b915050611385565b5080915050919050565b3373ffffffffffffffffffffffffffffffffffffffff16600160008481526020019081526020016000208281548110611758576117576122a9565b5b906000526020600020906002020160000160009054906101000a900473ffffffffffffffffffffffffffffffffffffffff1673ffffffffffffffffffffffffffffffffffffffff16146117e0576040517f08c379a00000000000000000000000000000000000000000000000000000000081526004016117d7906129f7565b60405180910390fd5b60018060008481526020019081526020016000208281548110611806576118056122a9565b5b906000526020600020906002020160000160146101000a81548160ff0219169083151502179055505050565b82805461183e90612373565b90600052602060002090601f01602090048101928261186057600085556118a7565b82601f1061187957805160ff19168380011785556118a7565b828001600101855582156118a7579182015b828111156118a657825182559160200191906001019061188b565b5b5090506118b49190611993565b5090565b6040518060800160405280600081526020016060815260200160608152602001600073ffffffffffffffffffffffffffffffffffffffff1681525090565b50805461190290612373565b6000825580601f106119145750611933565b601f0160209004906000526020600020908101906119329190611993565b5b50565b508054600082556002029060005260206000209081019061195791906119b0565b50565b6040518060600160405280600073ffffffffffffffffffffffffffffffffffffffff168152602001600015158152602001606081525090565b5b808211156119ac576000816000905550600101611994565b5090565b5b80821115611a0e57600080820160006101000a81549073ffffffffffffffffffffffffffffffffffffffff02191690556000820160146101000a81549060ff0219169055600182016000611a0591906118f6565b506002016119b1565b5090565b6000604051905090565b600080fd5b600080fd5b6000819050919050565b611a3981611a26565b8114611a4457600080fd5b50565b600081359050611a5681611a30565b92915050565b600073ffffffffffffffffffffffffffffffffffffffff82169050919050565b6000611a8782611a5c565b9050919050565b611a9781611a7c565b8114611aa257600080fd5b50565b600081359050611ab481611a8e565b92915050565b600080fd5b600080fd5b6000601f19601f8301169050919050565b7f4e487b7100000000000000000000000000000000000000000000000000000000600052604160045260246000fd5b611b0d82611ac4565b810181811067ffffffffffffffff82111715611b2c57611b2b611ad5565b5b80604052505050565b6000611b3f611a12565b9050611b4b8282611b04565b919050565b600067ffffffffffffffff821115611b6b57611b6a611ad5565b5b611b7482611ac4565b9050602081019050919050565b82818337600083830152505050565b6000611ba3611b9e84611b50565b611b35565b905082815260208101848484011115611bbf57611bbe611abf565b5b611bca848285611b81565b509392505050565b600082601f830112611be757611be6611aba565b5b8135611bf7848260208601611b90565b91505092915050565b60008060008060808587031215611c1a57611c19611a1c565b5b6000611c2887828801611a47565b9450506020611c3987828801611a47565b9350506040611c4a87828801611aa5565b925050606085013567ffffffffffffffff811115611c6b57611c6a611a21565b5b611c7787828801611bd2565b91505092959194509250565b600060208284031215611c9957611c98611a1c565b5b6000611ca784828501611a47565b91505092915050565b611cb981611a26565b82525050565b600081519050919050565b600082825260208201905092915050565b60005b83811015611cf9578082015181840152602081019050611cde565b83811115611d08576000848401525b50505050565b6000611d1982611cbf565b611d238185611cca565b9350611d33818560208601611cdb565b611d3c81611ac4565b840191505092915050565b611d5081611a7c565b82525050565b6000608083016000830151611d6e6000860182611cb0565b5060208301518482036020860152611d868282611d0e565b91505060408301518482036040860152611da08282611d0e565b9150506060830151611db56060860182611d47565b508091505092915050565b60006020820190508181036000830152611dda8184611d56565b905092915050565b60008060408385031215611df957611df8611a1c565b5b6000611e0785828601611a47565b9250506020611e1885828601611a47565b9150509250929050565b60008060408385031215611e3957611e38611a1c565b5b6000611e4785828601611a47565b9250506020611e5885828601611aa5565b9150509250929050565b611e6b81611a26565b82525050565b6000602082019050611e866000830184611e62565b92915050565b60008115159050919050565b611ea181611e8c565b82525050565b6000606083016000830151611ebf6000860182611d47565b506020830151611ed26020860182611e98565b5060408301518482036040860152611eea8282611d0e565b9150508091505092915050565b60006020820190508181036000830152611f118184611ea7565b905092915050565b600080600060608486031215611f3257611f31611a1c565b5b6000611f4086828701611a47565b935050602084013567ffffffffffffffff811115611f6157611f60611a21565b5b611f6d86828701611bd2565b925050604084013567ffffffffffffffff811115611f8e57611f8d611a21565b5b611f9a86828701611bd2565b9150509250925092565b60008060408385031215611fbb57611fba611a1c565b5b600083013567ffffffffffffffff811115611fd957611fd8611a21565b5b611fe585828601611bd2565b925050602083013567ffffffffffffffff81111561200657612005611a21565b5b61201285828601611bd2565b9150509250929050565b60008060006060848603121561203557612034611a1c565b5b600061204386828701611a47565b935050602061205486828701611aa5565b925050604084013567ffffffffffffffff81111561207557612074611a21565b5b61208186828701611bd2565b9150509250925092565b6000602082840312156120a1576120a0611a1c565b5b60006120af84828501611aa5565b91505092915050565b600081519050919050565b600082825260208201905092915050565b6000819050602082019050919050565b60006080830160008301516120fc6000860182611cb0565b50602083015184820360208601526121148282611d0e565b9150506040830151848203604086015261212e8282611d0e565b91505060608301516121436060860182611d47565b508091505092915050565b600061215a83836120e4565b905092915050565b6000602082019050919050565b600061217a826120b8565b61218481856120c3565b935083602082028501612196856120d4565b8060005b858110156121d257848403895281516121b3858261214e565b94506121be83612162565b925060208a0199505060018101905061219a565b50829750879550505050505092915050565b600060208201905081810360008301526121fe818461216f565b905092915050565b600082825260208201905092915050565b7f4f6e6c7920746865206d61696e7461696e65722063616e20757064617465207460008201527f686520656e7472696573206f662061207265636f72642e000000000000000000602082015250565b6000612273603783612206565b915061227e82612217565b604082019050919050565b600060208201905081810360008301526122a281612266565b9050919050565b7f4e487b7100000000000000000000000000000000000000000000000000000000600052603260045260246000fd5b7f456e74727920616c72656164792061636b6e6f776c65646765642e0000000000600082015250565b600061230e601b83612206565b9150612319826122d8565b602082019050919050565b6000602082019050818103600083015261233d81612301565b9050919050565b7f4e487b7100000000000000000000000000000000000000000000000000000000600052602260045260246000fd5b6000600282049050600182168061238b57607f821691505b6020821081141561239f5761239e612344565b5b50919050565b7f4f6e6c7920746865206d61696e7461696e65722063616e2064656c657465206560008201527f6e74726965732066726f6d2061207265636f72642e0000000000000000000000602082015250565b6000612401603583612206565b915061240c826123a5565b604082019050919050565b60006020820190508181036000830152612430816123f4565b9050919050565b7f4f6e6c7920746865206d61696e7461696e65722063616e2064656c657465206160008201527f207265636f72642e000000000000000000000000000000000000000000000000602082015250565b6000612493602883612206565b915061249e82612437565b604082019050919050565b600060208201905081810360008301526124c281612486565b9050919050565b7f4e487b7100000000000000000000000000000000000000000000000000000000600052601160045260246000fd5b600061250382611a26565b915061250e83611a26565b925082821015612521576125206124c9565b5b828203905092915050565b7f4e487b7100000000000000000000000000000000000000000000000000000000600052603160045260246000fd5b600061256682611a26565b91507fffffffffffffffffffffffffffffffffffffffffffffffffffffffffffffffff821415612599576125986124c9565b5b600182019050919050565b7f4f6e6c7920746865206d61696e7461696e65722063616e20757064617465207460008201527f6865206d61696e7461696e6572206f662061207265636f72642e000000000000602082015250565b6000612600603a83612206565b915061260b826125a4565b604082019050919050565b6000602082019050818103600083015261262f816125f3565b9050919050565b7f4f6e6c792074686520726563697069656e742063616e20756e61636b6e6f776c60008201527f6564676520616e20656e7472792e000000000000000000000000000000000000602082015250565b6000612692602e83612206565b915061269d82612636565b604082019050919050565b600060208201905081810360008301526126c181612685565b9050919050565b7f4f6e6c7920746865206d61696e7461696e65722063616e20757064617465207460008201527f68652064657461696c73206f662061207265636f72642e000000000000000000602082015250565b6000612724603783612206565b915061272f826126c8565b604082019050919050565b6000602082019050818103600083015261275381612717565b9050919050565b6000819050919050565b61277561277082611a26565b61275a565b82525050565b60008160601b9050919050565b60006127938261277b565b9050919050565b60006127a582612788565b9050919050565b6127bd6127b882611a7c565b61279a565b82525050565b60006127cf8285612764565b6020820191506127df82846127ac565b6014820191508190509392505050565b60006127fa82611cbf565b6128048185612206565b9350612814818560208601611cdb565b61281d81611ac4565b840191505092915050565b61283181611a7c565b82525050565b600060808201905061284c6000830187611e62565b818103602083015261285e81866127ef565b9050818103604083015261287281856127ef565b90506128816060830184612828565b95945050505050565b7f4f6e6c7920746865206d61696e7461696e65722063616e2061646420656e747260008201527f69657320746f2061207265636f72642e00000000000000000000000000000000602082015250565b60006128e6603083612206565b91506128f18261288a565b604082019050919050565b60006020820190508181036000830152612915816128d9565b9050919050565b61292581611e8c565b82525050565b600060a0820190506129406000830188611e62565b61294d6020830187611e62565b61295a6040830186612828565b612967606083018561291c565b818103608083015261297981846127ef565b90509695505050505050565b7f4f6e6c792074686520726563697069656e742063616e2061636b6e6f776c656460008201527f676520616e20656e7472792e0000000000000000000000000000000000000000602082015250565b60006129e1602c83612206565b91506129ec82612985565b604082019050919050565b60006020820190508181036000830152612a10816129d4565b905091905056fea264697066735822122013528e7a7e9e87a2608429c89b29406cb0abd6103b275f92289902764852ab3d64736f6c63430008090033",
  "linkReferences": {},
  "deployedLinkReferences": {}
}