{
  "_format": "hh-sol-artifact-1",
  "contractName": "Records",
  "sourceName": "contracts/Records.sol",
  "abi": [
    {
      "anonymous": false,
      "inputs": [
        {
          "indexed": false,
          "internalType": "uint256",
          "name": "record_id",
          "type": "uint256"
        },
        {
          "indexed": false,
          "internalType": "uint256",
          "name": "entry_id",
          "type": "uint256"
        },
        {
          "indexed": false,
          "internalType": "address",
          "name": "recipient",
          "type": "address"
        },
        {
          "indexed": false,
          "internalType": "bool",
          "name": "acknowledged",
          "type": "bool"
        },
        {
          "indexed": false,
          "internalType": "string",
          "name": "ipfs_data",
          "type": "string"
        }
      ],
      "name": "EntryAdded",
      "type": "event"
    },
    {
      "anonymous": false,
      "inputs": [
        {
          "indexed": false,
          "internalType": "uint256",
          "name": "id",
          "type": "uint256"
        },
        {
          "indexed": false,
          "internalType": "string",
          "name": "name",
          "type": "string"
        },
        {
          "indexed": false,
          "internalType": "string",
          "name": "description",
          "type": "string"
        },
        {
          "indexed": false,
          "internalType": "address",
          "name": "maintainer",
          "type": "address"
        }
      ],
      "name": "RecordAdded",
      "type": "event"
    },
    {
      "inputs": [
        {
          "internalType": "uint256",
          "name": "_recordId",
          "type": "uint256"
        },
        {
          "internalType": "uint256",
          "name": "_entryId",
          "type": "uint256"
        }
      ],
      "name": "acknowledgeEntry",
      "outputs": [],
      "stateMutability": "nonpayable",
      "type": "function"
    },
    {
      "inputs": [
        {
          "internalType": "uint256",
          "name": "_recordId",
          "type": "uint256"
        },
        {
          "internalType": "address",
          "name": "_recipient",
          "type": "address"
        },
        {
          "internalType": "string",
          "name": "_ipfs_data",
          "type": "string"
        }
      ],
      "name": "addEntry",
      "outputs": [],
      "stateMutability": "nonpayable",
      "type": "function"
    },
    {
      "inputs": [
        {
          "internalType": "uint256",
          "name": "_recordId",
          "type": "uint256"
        },
        {
          "internalType": "address[]",
          "name": "_recipients",
          "type": "address[]"
        },
        {
          "internalType": "string[]",
          "name": "_ipfs_data",
          "type": "string[]"
        }
      ],
      "name": "addMultipleEntries",
      "outputs": [],
      "stateMutability": "nonpayable",
      "type": "function"
    },
    {
      "inputs": [
        {
          "internalType": "string",
          "name": "_name",
          "type": "string"
        },
        {
          "internalType": "string",
          "name": "_description",
          "type": "string"
        },
        {
          "internalType": "string",
          "name": "_ipfs_structure",
          "type": "string"
        }
      ],
      "name": "addRecord",
      "outputs": [],
      "stateMutability": "nonpayable",
      "type": "function"
    },
    {
      "inputs": [
        {
          "internalType": "uint256",
          "name": "_recordId",
          "type": "uint256"
        },
        {
          "internalType": "uint256",
          "name": "_entryId",
          "type": "uint256"
        }
      ],
      "name": "deleteEntry",
      "outputs": [],
      "stateMutability": "nonpayable",
      "type": "function"
    },
    {
      "inputs": [
        {
          "internalType": "uint256",
          "name": "_recordId",
          "type": "uint256"
        }
      ],
      "name": "deleteRecord",
      "outputs": [],
      "stateMutability": "nonpayable",
      "type": "function"
    },
    {
      "inputs": [
        {
          "internalType": "uint256",
          "name": "_recordId",
          "type": "uint256"
        }
      ],
      "name": "getEntries",
      "outputs": [
        {
          "components": [
            {
              "internalType": "uint256",
              "name": "record_id",
              "type": "uint256"
            },
            {
              "internalType": "uint256",
              "name": "entry_id",
              "type": "uint256"
            },
            {
              "internalType": "address",
              "name": "recipient",
              "type": "address"
            },
            {
              "internalType": "bool",
              "name": "acknowledged",
              "type": "bool"
            },
            {
              "internalType": "string",
              "name": "ipfs_data",
              "type": "string"
            }
          ],
          "internalType": "struct Records.Entry[]",
          "name": "",
          "type": "tuple[]"
        }
      ],
      "stateMutability": "view",
      "type": "function"
    },
    {
      "inputs": [
        {
          "internalType": "uint256",
          "name": "_recordId",
          "type": "uint256"
        },
        {
          "internalType": "uint256",
          "name": "_entryId",
          "type": "uint256"
        }
      ],
      "name": "getEntry",
      "outputs": [
        {
          "components": [
            {
              "internalType": "uint256",
              "name": "record_id",
              "type": "uint256"
            },
            {
              "internalType": "uint256",
              "name": "entry_id",
              "type": "uint256"
            },
            {
              "internalType": "address",
              "name": "recipient",
              "type": "address"
            },
            {
              "internalType": "bool",
              "name": "acknowledged",
              "type": "bool"
            },
            {
              "internalType": "string",
              "name": "ipfs_data",
              "type": "string"
            }
          ],
          "internalType": "struct Records.Entry",
          "name": "",
          "type": "tuple"
        }
      ],
      "stateMutability": "view",
      "type": "function"
    },
    {
      "inputs": [
        {
          "internalType": "uint256",
          "name": "_recordId",
          "type": "uint256"
        }
      ],
      "name": "getEntryCount",
      "outputs": [
        {
          "internalType": "uint256",
          "name": "",
          "type": "uint256"
        }
      ],
      "stateMutability": "view",
      "type": "function"
    },
    {
      "inputs": [
        {
          "internalType": "uint256",
          "name": "_recordId",
          "type": "uint256"
        }
      ],
      "name": "getRecord",
      "outputs": [
        {
          "components": [
            {
              "internalType": "uint256",
              "name": "id",
              "type": "uint256"
            },
            {
              "internalType": "string",
              "name": "name",
              "type": "string"
            },
            {
              "internalType": "string",
              "name": "description",
              "type": "string"
            },
            {
              "internalType": "address",
              "name": "maintainer",
              "type": "address"
            },
            {
              "internalType": "string",
              "name": "ipfs_structure",
              "type": "string"
            }
          ],
          "internalType": "struct Records.Record",
          "name": "",
          "type": "tuple"
        }
      ],
      "stateMutability": "view",
      "type": "function"
    },
    {
      "inputs": [
        {
          "internalType": "address",
          "name": "_maintainer",
          "type": "address"
        }
      ],
      "name": "getRecordsByMaintainer",
      "outputs": [
        {
          "components": [
            {
              "internalType": "uint256",
              "name": "id",
              "type": "uint256"
            },
            {
              "internalType": "string",
              "name": "name",
              "type": "string"
            },
            {
              "internalType": "string",
              "name": "description",
              "type": "string"
            },
            {
              "internalType": "address",
              "name": "maintainer",
              "type": "address"
            },
            {
              "internalType": "string",
              "name": "ipfs_structure",
              "type": "string"
            }
          ],
          "internalType": "struct Records.Record[]",
          "name": "",
          "type": "tuple[]"
        }
      ],
      "stateMutability": "view",
      "type": "function"
    },
    {
      "inputs": [
        {
          "internalType": "uint256",
          "name": "_recordId",
          "type": "uint256"
        },
        {
          "internalType": "uint256",
          "name": "_entryId",
          "type": "uint256"
        }
      ],
      "name": "unAcknowledgeEntry",
      "outputs": [],
      "stateMutability": "nonpayable",
      "type": "function"
    },
    {
      "inputs": [
        {
          "internalType": "uint256",
          "name": "_recordId",
          "type": "uint256"
        },
        {
          "internalType": "uint256",
          "name": "_entryId",
          "type": "uint256"
        },
        {
          "internalType": "address",
          "name": "_recipient",
          "type": "address"
        },
        {
          "internalType": "string",
          "name": "_ipfs_data",
          "type": "string"
        }
      ],
      "name": "updateEntry",
      "outputs": [],
      "stateMutability": "nonpayable",
      "type": "function"
    },
    {
      "inputs": [
        {
          "internalType": "uint256",
          "name": "_recordId",
          "type": "uint256"
        },
        {
          "internalType": "string",
          "name": "_name",
          "type": "string"
        },
        {
          "internalType": "string",
          "name": "_description",
          "type": "string"
        },
        {
          "internalType": "string",
          "name": "_ipfs_structure",
          "type": "string"
        }
      ],
      "name": "updateRecordDetails",
      "outputs": [],
      "stateMutability": "nonpayable",
      "type": "function"
    },
    {
      "inputs": [
        {
          "internalType": "uint256",
          "name": "_recordId",
          "type": "uint256"
        },
        {
          "internalType": "address",
          "name": "_maintainer",
          "type": "address"
        }
      ],
      "name": "updateRecordMaintainer",
      "outputs": [],
      "stateMutability": "nonpayable",
      "type": "function"
    }
  ],
  "bytecode": "0x608060405234801561001057600080fd5b506136b6806100206000396000f3fe608060405234801561001057600080fd5b50600436106100f55760003560e01c80633f723c6211610097578063caba589f11610066578063caba589f1461026a578063d3549ebd14610286578063edbecef1146102b6578063f10f98f6146102e6576100f5565b80633f723c62146101d2578063530c5336146101ee5780638c4d6e0f1461020a57806398ba676d1461023a576100f5565b8063061f9811116100d3578063061f9811146101625780632211e1b21461017e57806339efa9ed1461019a5780633de0fb4b146101b6576100f5565b8063012281ad146100fa57806303e9e6091461011657806304badc0314610146575b600080fd5b610114600480360381019061010f919061236a565b610302565b005b610130600480360381019061012b91906123ed565b6104ef565b60405161013d9190612544565b60405180910390f35b610160600480360381019061015b9190612566565b610731565b005b61017c600480360381019061017791906123ed565b610869565b005b610198600480360381019061019391906125a6565b610bd9565b005b6101b460048036038101906101af9190612566565b610cd4565b005b6101d060048036038101906101cb919061278f565b610deb565b005b6101ec60048036038101906101e7919061281a565b6110ec565b005b610208600480360381019061020391906128c1565b6112c3565b005b610224600480360381019061021f91906123ed565b6113ea565b604051610231919061298b565b60405180910390f35b610254600480360381019061024f9190612566565b61140a565b6040516102619190612a37565b60405180910390f35b610284600480360381019061027f9190612a59565b61156f565b005b6102a0600480360381019061029b91906123ed565b6117a4565b6040516102ad9190612c00565b60405180910390f35b6102d060048036038101906102cb9190612c22565b61192d565b6040516102dd9190612d95565b60405180910390f35b61030060048036038101906102fb9190612566565b611e61565b005b3373ffffffffffffffffffffffffffffffffffffffff1660008086815260200190815260200160002060030160009054906101000a900473ffffffffffffffffffffffffffffffffffffffff1673ffffffffffffffffffffffffffffffffffffffff16146103a5576040517f08c379a000000000000000000000000000000000000000000000000000000000815260040161039c90612e3a565b60405180910390fd5b6001600085815260200190815260200160002083815481106103ca576103c9612e5a565b5b906000526020600020906004020160020160149054906101000a900460ff1615610429576040517f08c379a000000000000000000000000000000000000000000000000000000000815260040161042090612ed5565b60405180910390fd5b8160016000868152602001908152602001600020848154811061044f5761044e612e5a565b5b906000526020600020906004020160020160006101000a81548173ffffffffffffffffffffffffffffffffffffffff021916908373ffffffffffffffffffffffffffffffffffffffff160217905550806001600086815260200190815260200160002084815481106104c4576104c3612e5a565b5b906000526020600020906004020160030190805190602001906104e8929190611f77565b5050505050565b6104f7611ffd565b6000808381526020019081526020016000206040518060a00160405290816000820154815260200160018201805461052e90612f24565b80601f016020809104026020016040519081016040528092919081815260200182805461055a90612f24565b80156105a75780601f1061057c576101008083540402835291602001916105a7565b820191906000526020600020905b81548152906001019060200180831161058a57829003601f168201915b505050505081526020016002820180546105c090612f24565b80601f01602080910402602001604051908101604052809291908181526020018280546105ec90612f24565b80156106395780601f1061060e57610100808354040283529160200191610639565b820191906000526020600020905b81548152906001019060200180831161061c57829003601f168201915b505050505081526020016003820160009054906101000a900473ffffffffffffffffffffffffffffffffffffffff1673ffffffffffffffffffffffffffffffffffffffff1673ffffffffffffffffffffffffffffffffffffffff1681526020016004820180546106a890612f24565b80601f01602080910402602001604051908101604052809291908181526020018280546106d490612f24565b80156107215780601f106106f657610100808354040283529160200191610721565b820191906000526020600020905b81548152906001019060200180831161070457829003601f168201915b5050505050815250509050919050565b3373ffffffffffffffffffffffffffffffffffffffff1660008084815260200190815260200160002060030160009054906101000a900473ffffffffffffffffffffffffffffffffffffffff1673ffffffffffffffffffffffffffffffffffffffff16146107d4576040517f08c379a00000000000000000000000000000000000000000000000000000000081526004016107cb90612fc8565b60405180910390fd5b6001600083815260200190815260200160002081815481106107f9576107f8612e5a565b5b906000526020600020906004020160008082016000905560018201600090556002820160006101000a81549073ffffffffffffffffffffffffffffffffffffffff02191690556002820160146101000a81549060ff02191690556003820160006108639190612042565b50505050565b3373ffffffffffffffffffffffffffffffffffffffff1660008083815260200190815260200160002060030160009054906101000a900473ffffffffffffffffffffffffffffffffffffffff1673ffffffffffffffffffffffffffffffffffffffff161461090c576040517f08c379a00000000000000000000000000000000000000000000000000000000081526004016109039061305a565b60405180910390fd5b6000808281526020019081526020016000206000808201600090556001820160006109379190612042565b6002820160006109479190612042565b6003820160006101000a81549073ffffffffffffffffffffffffffffffffffffffff021916905560048201600061097e9190612042565b505060016000828152602001908152602001600020600061099f9190612082565b60005b600260003373ffffffffffffffffffffffffffffffffffffffff1673ffffffffffffffffffffffffffffffffffffffff16815260200190815260200160002080549050811015610bd55781600260003373ffffffffffffffffffffffffffffffffffffffff1673ffffffffffffffffffffffffffffffffffffffff1681526020019081526020016000208281548110610a3e57610a3d612e5a565b5b90600052602060002001541415610bc257600260003373ffffffffffffffffffffffffffffffffffffffff1673ffffffffffffffffffffffffffffffffffffffff1681526020019081526020016000206001600260003373ffffffffffffffffffffffffffffffffffffffff1673ffffffffffffffffffffffffffffffffffffffff16815260200190815260200160002080549050610add91906130a9565b81548110610aee57610aed612e5a565b5b9060005260206000200154600260003373ffffffffffffffffffffffffffffffffffffffff1673ffffffffffffffffffffffffffffffffffffffff1681526020019081526020016000208281548110610b4a57610b49612e5a565b5b9060005260206000200181905550600260003373ffffffffffffffffffffffffffffffffffffffff1673ffffffffffffffffffffffffffffffffffffffff168152602001908152602001600020805480610ba757610ba66130dd565b5b60019003818190600052602060002001600090559055610bd5565b8080610bcd9061310c565b9150506109a2565b5050565b3373ffffffffffffffffffffffffffffffffffffffff1660008084815260200190815260200160002060030160009054906101000a900473ffffffffffffffffffffffffffffffffffffffff1673ffffffffffffffffffffffffffffffffffffffff1614610c7c576040517f08c379a0000000000000000000000000000000000000000000000000000000008152600401610c73906131c7565b60405180910390fd5b8060008084815260200190815260200160002060030160006101000a81548173ffffffffffffffffffffffffffffffffffffffff021916908373ffffffffffffffffffffffffffffffffffffffff1602179055505050565b3373ffffffffffffffffffffffffffffffffffffffff16600160008481526020019081526020016000208281548110610d1057610d0f612e5a565b5b906000526020600020906004020160020160009054906101000a900473ffffffffffffffffffffffffffffffffffffffff1673ffffffffffffffffffffffffffffffffffffffff1614610d98576040517f08c379a0000000000000000000000000000000000000000000000000000000008152600401610d8f90613259565b60405180910390fd5b6000600160008481526020019081526020016000208281548110610dbf57610dbe612e5a565b5b906000526020600020906004020160020160146101000a81548160ff0219169083151502179055505050565b3373ffffffffffffffffffffffffffffffffffffffff1660008085815260200190815260200160002060030160009054906101000a900473ffffffffffffffffffffffffffffffffffffffff1673ffffffffffffffffffffffffffffffffffffffff1614610e8e576040517f08c379a0000000000000000000000000000000000000000000000000000000008152600401610e85906132eb565b60405180910390fd5b8051825114610ed2576040517f08c379a0000000000000000000000000000000000000000000000000000000008152600401610ec9906133a3565b60405180910390fd5b60005b82518110156110e657600160008581526020019081526020016000206040518060a0016040528086815260200160016000888152602001908152602001600020805490508152602001858481518110610f3157610f30612e5a565b5b602002602001015173ffffffffffffffffffffffffffffffffffffffff168152602001600015158152602001848481518110610f7057610f6f612e5a565b5b60200260200101518152509080600181540180825580915050600190039060005260206000209060040201600090919091909150600082015181600001556020820151816001015560408201518160020160006101000a81548173ffffffffffffffffffffffffffffffffffffffff021916908373ffffffffffffffffffffffffffffffffffffffff16021790555060608201518160020160146101000a81548160ff021916908315150217905550608082015181600301908051906020019061103b929190611f77565b5050507f86a013c4465e740cdeee36669880227f08a857a9204ed200eeb5e94339b32eeb8460018060008881526020019081526020016000208054905061108291906130a9565b85848151811061109557611094612e5a565b5b602002602001015160008686815181106110b2576110b1612e5a565b5b60200260200101516040516110cb95949392919061341a565b60405180910390a180806110de9061310c565b915050610ed5565b50505050565b600060c042336040516020016111039291906134dd565b60405160208183030381529060405280519060200120901c60001c90506040518060a001604052808281526020018581526020018481526020013373ffffffffffffffffffffffffffffffffffffffff16815260200183815250600080838152602001908152602001600020600082015181600001556020820151816001019080519060200190611195929190611f77565b5060408201518160020190805190602001906111b2929190611f77565b5060608201518160030160006101000a81548173ffffffffffffffffffffffffffffffffffffffff021916908373ffffffffffffffffffffffffffffffffffffffff1602179055506080820151816004019080519060200190611216929190611f77565b50905050600260003373ffffffffffffffffffffffffffffffffffffffff1673ffffffffffffffffffffffffffffffffffffffff1681526020019081526020016000208190806001815401808255809150506001900390600052602060002001600090919091909150557ffafc4abeafc2b3f4bc5cc8f60fba98757990cb39e7063143d65e38dd2a5227f5818585336040516112b59493929190613509565b60405180910390a150505050565b3373ffffffffffffffffffffffffffffffffffffffff1660008086815260200190815260200160002060030160009054906101000a900473ffffffffffffffffffffffffffffffffffffffff1673ffffffffffffffffffffffffffffffffffffffff1614611366576040517f08c379a000000000000000000000000000000000000000000000000000000000815260040161135d906135ce565b60405180910390fd5b82600080868152602001908152602001600020600101908051906020019061138f929190611f77565b508160008086815260200190815260200160002060020190805190602001906113b9929190611f77565b508060008086815260200190815260200160002060040190805190602001906113e3929190611f77565b5050505050565b600060016000838152602001908152602001600020805490509050919050565b6114126120a6565b60016000848152602001908152602001600020828154811061143757611436612e5a565b5b90600052602060002090600402016040518060a001604052908160008201548152602001600182015481526020016002820160009054906101000a900473ffffffffffffffffffffffffffffffffffffffff1673ffffffffffffffffffffffffffffffffffffffff1673ffffffffffffffffffffffffffffffffffffffff1681526020016002820160149054906101000a900460ff161515151581526020016003820180546114e590612f24565b80601f016020809104026020016040519081016040528092919081815260200182805461151190612f24565b801561155e5780601f106115335761010080835404028352916020019161155e565b820191906000526020600020905b81548152906001019060200180831161154157829003601f168201915b505050505081525050905092915050565b3373ffffffffffffffffffffffffffffffffffffffff1660008085815260200190815260200160002060030160009054906101000a900473ffffffffffffffffffffffffffffffffffffffff1673ffffffffffffffffffffffffffffffffffffffff1614611612576040517f08c379a0000000000000000000000000000000000000000000000000000000008152600401611609906132eb565b60405180910390fd5b600160008481526020019081526020016000206040518060a00160405280858152602001600160008781526020019081526020016000208054905081526020018473ffffffffffffffffffffffffffffffffffffffff168152602001600015158152602001838152509080600181540180825580915050600190039060005260206000209060040201600090919091909150600082015181600001556020820151816001015560408201518160020160006101000a81548173ffffffffffffffffffffffffffffffffffffffff021916908373ffffffffffffffffffffffffffffffffffffffff16021790555060608201518160020160146101000a81548160ff021916908315150217905550608082015181600301908051906020019061173b929190611f77565b5050507f86a013c4465e740cdeee36669880227f08a857a9204ed200eeb5e94339b32eeb8360018060008781526020019081526020016000208054905061178291906130a9565b8460008560405161179795949392919061341a565b60405180910390a1505050565b606060016000838152602001908152602001600020805480602002602001604051908101604052809291908181526020016000905b8282101561192257838290600052602060002090600402016040518060a001604052908160008201548152602001600182015481526020016002820160009054906101000a900473ffffffffffffffffffffffffffffffffffffffff1673ffffffffffffffffffffffffffffffffffffffff1673ffffffffffffffffffffffffffffffffffffffff1681526020016002820160149054906101000a900460ff1615151515815260200160038201805461189190612f24565b80601f01602080910402602001604051908101604052809291908181526020018280546118bd90612f24565b801561190a5780601f106118df5761010080835404028352916020019161190a565b820191906000526020600020905b8154815290600101906020018083116118ed57829003601f168201915b505050505081525050815260200190600101906117d9565b505050509050919050565b60606000600260008473ffffffffffffffffffffffffffffffffffffffff1673ffffffffffffffffffffffffffffffffffffffff1681526020019081526020016000208054905067ffffffffffffffff81111561198d5761198c61223f565b5b6040519080825280602002602001820160405280156119c657816020015b6119b3611ffd565b8152602001906001900390816119ab5790505b50905060005b600260008573ffffffffffffffffffffffffffffffffffffffff1673ffffffffffffffffffffffffffffffffffffffff16815260200190815260200160002080549050811015611e57576040518060a00160405280600260008773ffffffffffffffffffffffffffffffffffffffff1673ffffffffffffffffffffffffffffffffffffffff1681526020019081526020016000208381548110611a7257611a71612e5a565b5b90600052602060002001548152602001600080600260008973ffffffffffffffffffffffffffffffffffffffff1673ffffffffffffffffffffffffffffffffffffffff1681526020019081526020016000208581548110611ad657611ad5612e5a565b5b906000526020600020015481526020019081526020016000206001018054611afd90612f24565b80601f0160208091040260200160405190810160405280929190818152602001828054611b2990612f24565b8015611b765780601f10611b4b57610100808354040283529160200191611b76565b820191906000526020600020905b815481529060010190602001808311611b5957829003601f168201915b50505050508152602001600080600260008973ffffffffffffffffffffffffffffffffffffffff1673ffffffffffffffffffffffffffffffffffffffff1681526020019081526020016000208581548110611bd457611bd3612e5a565b5b906000526020600020015481526020019081526020016000206002018054611bfb90612f24565b80601f0160208091040260200160405190810160405280929190818152602001828054611c2790612f24565b8015611c745780601f10611c4957610100808354040283529160200191611c74565b820191906000526020600020905b815481529060010190602001808311611c5757829003601f168201915b50505050508152602001600080600260008973ffffffffffffffffffffffffffffffffffffffff1673ffffffffffffffffffffffffffffffffffffffff1681526020019081526020016000208581548110611cd257611cd1612e5a565b5b9060005260206000200154815260200190815260200160002060030160009054906101000a900473ffffffffffffffffffffffffffffffffffffffff1673ffffffffffffffffffffffffffffffffffffffff168152602001600080600260008973ffffffffffffffffffffffffffffffffffffffff1673ffffffffffffffffffffffffffffffffffffffff1681526020019081526020016000208581548110611d7e57611d7d612e5a565b5b906000526020600020015481526020019081526020016000206004018054611da590612f24565b80601f0160208091040260200160405190810160405280929190818152602001828054611dd190612f24565b8015611e1e5780601f10611df357610100808354040283529160200191611e1e565b820191906000526020600020905b815481529060010190602001808311611e0157829003601f168201915b5050505050815250828281518110611e3957611e38612e5a565b5b60200260200101819052508080611e4f9061310c565b9150506119cc565b5080915050919050565b3373ffffffffffffffffffffffffffffffffffffffff16600160008481526020019081526020016000208281548110611e9d57611e9c612e5a565b5b906000526020600020906004020160020160009054906101000a900473ffffffffffffffffffffffffffffffffffffffff1673ffffffffffffffffffffffffffffffffffffffff1614611f25576040517f08c379a0000000000000000000000000000000000000000000000000000000008152600401611f1c90613660565b60405180910390fd5b60018060008481526020019081526020016000208281548110611f4b57611f4a612e5a565b5b906000526020600020906004020160020160146101000a81548160ff0219169083151502179055505050565b828054611f8390612f24565b90600052602060002090601f016020900481019282611fa55760008555611fec565b82601f10611fbe57805160ff1916838001178555611fec565b82800160010185558215611fec579182015b82811115611feb578251825591602001919060010190611fd0565b5b509050611ff991906120ed565b5090565b6040518060a00160405280600081526020016060815260200160608152602001600073ffffffffffffffffffffffffffffffffffffffff168152602001606081525090565b50805461204e90612f24565b6000825580601f10612060575061207f565b601f01602090049060005260206000209081019061207e91906120ed565b5b50565b50805460008255600402906000526020600020908101906120a3919061210a565b50565b6040518060a001604052806000815260200160008152602001600073ffffffffffffffffffffffffffffffffffffffff168152602001600015158152602001606081525090565b5b808211156121065760008160009055506001016120ee565b5090565b5b808211156121785760008082016000905560018201600090556002820160006101000a81549073ffffffffffffffffffffffffffffffffffffffff02191690556002820160146101000a81549060ff021916905560038201600061216f9190612042565b5060040161210b565b5090565b6000604051905090565b600080fd5b600080fd5b6000819050919050565b6121a381612190565b81146121ae57600080fd5b50565b6000813590506121c08161219a565b92915050565b600073ffffffffffffffffffffffffffffffffffffffff82169050919050565b60006121f1826121c6565b9050919050565b612201816121e6565b811461220c57600080fd5b50565b60008135905061221e816121f8565b92915050565b600080fd5b600080fd5b6000601f19601f8301169050919050565b7f4e487b7100000000000000000000000000000000000000000000000000000000600052604160045260246000fd5b6122778261222e565b810181811067ffffffffffffffff821117156122965761229561223f565b5b80604052505050565b60006122a961217c565b90506122b5828261226e565b919050565b600067ffffffffffffffff8211156122d5576122d461223f565b5b6122de8261222e565b9050602081019050919050565b82818337600083830152505050565b600061230d612308846122ba565b61229f565b90508281526020810184848401111561232957612328612229565b5b6123348482856122eb565b509392505050565b600082601f83011261235157612350612224565b5b81356123618482602086016122fa565b91505092915050565b6000806000806080858703121561238457612383612186565b5b6000612392878288016121b1565b94505060206123a3878288016121b1565b93505060406123b48782880161220f565b925050606085013567ffffffffffffffff8111156123d5576123d461218b565b5b6123e18782880161233c565b91505092959194509250565b60006020828403121561240357612402612186565b5b6000612411848285016121b1565b91505092915050565b61242381612190565b82525050565b600081519050919050565b600082825260208201905092915050565b60005b83811015612463578082015181840152602081019050612448565b83811115612472576000848401525b50505050565b600061248382612429565b61248d8185612434565b935061249d818560208601612445565b6124a68161222e565b840191505092915050565b6124ba816121e6565b82525050565b600060a0830160008301516124d8600086018261241a565b50602083015184820360208601526124f08282612478565b9150506040830151848203604086015261250a8282612478565b915050606083015161251f60608601826124b1565b50608083015184820360808601526125378282612478565b9150508091505092915050565b6000602082019050818103600083015261255e81846124c0565b905092915050565b6000806040838503121561257d5761257c612186565b5b600061258b858286016121b1565b925050602061259c858286016121b1565b9150509250929050565b600080604083850312156125bd576125bc612186565b5b60006125cb858286016121b1565b92505060206125dc8582860161220f565b9150509250929050565b600067ffffffffffffffff8211156126015761260061223f565b5b602082029050602081019050919050565b600080fd5b600061262a612625846125e6565b61229f565b9050808382526020820190506020840283018581111561264d5761264c612612565b5b835b818110156126765780612662888261220f565b84526020840193505060208101905061264f565b5050509392505050565b600082601f83011261269557612694612224565b5b81356126a5848260208601612617565b91505092915050565b600067ffffffffffffffff8211156126c9576126c861223f565b5b602082029050602081019050919050565b60006126ed6126e8846126ae565b61229f565b905080838252602082019050602084028301858111156127105761270f612612565b5b835b8181101561275757803567ffffffffffffffff81111561273557612734612224565b5b808601612742898261233c565b85526020850194505050602081019050612712565b5050509392505050565b600082601f83011261277657612775612224565b5b81356127868482602086016126da565b91505092915050565b6000806000606084860312156127a8576127a7612186565b5b60006127b6868287016121b1565b935050602084013567ffffffffffffffff8111156127d7576127d661218b565b5b6127e386828701612680565b925050604084013567ffffffffffffffff8111156128045761280361218b565b5b61281086828701612761565b9150509250925092565b60008060006060848603121561283357612832612186565b5b600084013567ffffffffffffffff8111156128515761285061218b565b5b61285d8682870161233c565b935050602084013567ffffffffffffffff81111561287e5761287d61218b565b5b61288a8682870161233c565b925050604084013567ffffffffffffffff8111156128ab576128aa61218b565b5b6128b78682870161233c565b9150509250925092565b600080600080608085870312156128db576128da612186565b5b60006128e9878288016121b1565b945050602085013567ffffffffffffffff81111561290a5761290961218b565b5b6129168782880161233c565b935050604085013567ffffffffffffffff8111156129375761293661218b565b5b6129438782880161233c565b925050606085013567ffffffffffffffff8111156129645761296361218b565b5b6129708782880161233c565b91505092959194509250565b61298581612190565b82525050565b60006020820190506129a0600083018461297c565b92915050565b60008115159050919050565b6129bb816129a6565b82525050565b600060a0830160008301516129d9600086018261241a565b5060208301516129ec602086018261241a565b5060408301516129ff60408601826124b1565b506060830151612a1260608601826129b2565b5060808301518482036080860152612a2a8282612478565b9150508091505092915050565b60006020820190508181036000830152612a5181846129c1565b905092915050565b600080600060608486031215612a7257612a71612186565b5b6000612a80868287016121b1565b9350506020612a918682870161220f565b925050604084013567ffffffffffffffff811115612ab257612ab161218b565b5b612abe8682870161233c565b9150509250925092565b600081519050919050565b600082825260208201905092915050565b6000819050602082019050919050565b600060a083016000830151612b0c600086018261241a565b506020830151612b1f602086018261241a565b506040830151612b3260408601826124b1565b506060830151612b4560608601826129b2565b5060808301518482036080860152612b5d8282612478565b9150508091505092915050565b6000612b768383612af4565b905092915050565b6000602082019050919050565b6000612b9682612ac8565b612ba08185612ad3565b935083602082028501612bb285612ae4565b8060005b85811015612bee5784840389528151612bcf8582612b6a565b9450612bda83612b7e565b925060208a01995050600181019050612bb6565b50829750879550505050505092915050565b60006020820190508181036000830152612c1a8184612b8b565b905092915050565b600060208284031215612c3857612c37612186565b5b6000612c468482850161220f565b91505092915050565b600081519050919050565b600082825260208201905092915050565b6000819050602082019050919050565b600060a083016000830151612c93600086018261241a565b5060208301518482036020860152612cab8282612478565b91505060408301518482036040860152612cc58282612478565b9150506060830151612cda60608601826124b1565b5060808301518482036080860152612cf28282612478565b9150508091505092915050565b6000612d0b8383612c7b565b905092915050565b6000602082019050919050565b6000612d2b82612c4f565b612d358185612c5a565b935083602082028501612d4785612c6b565b8060005b85811015612d835784840389528151612d648582612cff565b9450612d6f83612d13565b925060208a01995050600181019050612d4b565b50829750879550505050505092915050565b60006020820190508181036000830152612daf8184612d20565b905092915050565b600082825260208201905092915050565b7f4f6e6c7920746865206d61696e7461696e65722063616e20757064617465207460008201527f686520656e7472696573206f662061207265636f72642e000000000000000000602082015250565b6000612e24603783612db7565b9150612e2f82612dc8565b604082019050919050565b60006020820190508181036000830152612e5381612e17565b9050919050565b7f4e487b7100000000000000000000000000000000000000000000000000000000600052603260045260246000fd5b7f456e74727920616c72656164792061636b6e6f776c65646765642e0000000000600082015250565b6000612ebf601b83612db7565b9150612eca82612e89565b602082019050919050565b60006020820190508181036000830152612eee81612eb2565b9050919050565b7f4e487b7100000000000000000000000000000000000000000000000000000000600052602260045260246000fd5b60006002820490506001821680612f3c57607f821691505b60208210811415612f5057612f4f612ef5565b5b50919050565b7f4f6e6c7920746865206d61696e7461696e65722063616e2064656c657465206560008201527f6e74726965732066726f6d2061207265636f72642e0000000000000000000000602082015250565b6000612fb2603583612db7565b9150612fbd82612f56565b604082019050919050565b60006020820190508181036000830152612fe181612fa5565b9050919050565b7f4f6e6c7920746865206d61696e7461696e65722063616e2064656c657465206160008201527f207265636f72642e000000000000000000000000000000000000000000000000602082015250565b6000613044602883612db7565b915061304f82612fe8565b604082019050919050565b6000602082019050818103600083015261307381613037565b9050919050565b7f4e487b7100000000000000000000000000000000000000000000000000000000600052601160045260246000fd5b60006130b482612190565b91506130bf83612190565b9250828210156130d2576130d161307a565b5b828203905092915050565b7f4e487b7100000000000000000000000000000000000000000000000000000000600052603160045260246000fd5b600061311782612190565b91507fffffffffffffffffffffffffffffffffffffffffffffffffffffffffffffffff82141561314a5761314961307a565b5b600182019050919050565b7f4f6e6c7920746865206d61696e7461696e65722063616e20757064617465207460008201527f6865206d61696e7461696e6572206f662061207265636f72642e000000000000602082015250565b60006131b1603a83612db7565b91506131bc82613155565b604082019050919050565b600060208201905081810360008301526131e0816131a4565b9050919050565b7f4f6e6c792074686520726563697069656e742063616e20756e61636b6e6f776c60008201527f6564676520616e20656e7472792e000000000000000000000000000000000000602082015250565b6000613243602e83612db7565b915061324e826131e7565b604082019050919050565b6000602082019050818103600083015261327281613236565b9050919050565b7f4f6e6c7920746865206d61696e7461696e65722063616e2061646420656e747260008201527f69657320746f2061207265636f72642e00000000000000000000000000000000602082015250565b60006132d5603083612db7565b91506132e082613279565b604082019050919050565b60006020820190508181036000830152613304816132c8565b9050919050565b7f546865206e756d626572206f6620726563697069656e747320616e642074686560008201527f206e756d626572206f6620697066732064617461206d7573742062652074686560208201527f2073616d652e0000000000000000000000000000000000000000000000000000604082015250565b600061338d604683612db7565b91506133988261330b565b606082019050919050565b600060208201905081810360008301526133bc81613380565b9050919050565b6133cc816121e6565b82525050565b6133db816129a6565b82525050565b60006133ec82612429565b6133f68185612db7565b9350613406818560208601612445565b61340f8161222e565b840191505092915050565b600060a08201905061342f600083018861297c565b61343c602083018761297c565b61344960408301866133c3565b61345660608301856133d2565b818103608083015261346881846133e1565b90509695505050505050565b6000819050919050565b61348f61348a82612190565b613474565b82525050565b60008160601b9050919050565b60006134ad82613495565b9050919050565b60006134bf826134a2565b9050919050565b6134d76134d2826121e6565b6134b4565b82525050565b60006134e9828561347e565b6020820191506134f982846134c6565b6014820191508190509392505050565b600060808201905061351e600083018761297c565b818103602083015261353081866133e1565b9050818103604083015261354481856133e1565b905061355360608301846133c3565b95945050505050565b7f4f6e6c7920746865206d61696e7461696e65722063616e20757064617465207460008201527f68652064657461696c73206f662061207265636f72642e000000000000000000602082015250565b60006135b8603783612db7565b91506135c38261355c565b604082019050919050565b600060208201905081810360008301526135e7816135ab565b9050919050565b7f4f6e6c792074686520726563697069656e742063616e2061636b6e6f776c656460008201527f676520616e20656e7472792e0000000000000000000000000000000000000000602082015250565b600061364a602c83612db7565b9150613655826135ee565b604082019050919050565b600060208201905081810360008301526136798161363d565b905091905056fea2646970667358221220ca6546c503ef9e5aee1fa5c533b7254c6490c4ac05b6f8ffc020107c9f965ab064736f6c63430008090033",
  "linkReferences": {},
  "deployedLinkReferences": {}
}