{
  "_format": "hh-sol-artifact-1",
  "contractName": "Records",
  "sourceName": "contracts/Records.sol",
  "abi": [
    {
      "anonymous": false,
      "inputs": [
        {
          "indexed": false,
          "internalType": "uint256",
          "name": "record_id",
          "type": "uint256"
        },
        {
          "indexed": false,
          "internalType": "uint256",
          "name": "entry_id",
          "type": "uint256"
        },
        {
          "indexed": false,
          "internalType": "address",
          "name": "recipient",
          "type": "address"
        },
        {
          "indexed": false,
          "internalType": "bool",
          "name": "acknowledged",
          "type": "bool"
        },
        {
          "indexed": false,
          "internalType": "string",
          "name": "ipfs_data",
          "type": "string"
        }
      ],
      "name": "EntryAdded",
      "type": "event"
    },
    {
      "anonymous": false,
      "inputs": [
        {
          "indexed": false,
          "internalType": "uint256",
          "name": "id",
          "type": "uint256"
        },
        {
          "indexed": false,
          "internalType": "string",
          "name": "name",
          "type": "string"
        },
        {
          "indexed": false,
          "internalType": "string",
          "name": "description",
          "type": "string"
        },
        {
          "indexed": false,
          "internalType": "address",
          "name": "maintainer",
          "type": "address"
        }
      ],
      "name": "RecordAdded",
      "type": "event"
    },
    {
      "inputs": [],
      "name": "_recordsLength",
      "outputs": [
        {
          "internalType": "uint256",
          "name": "",
          "type": "uint256"
        }
      ],
      "stateMutability": "view",
      "type": "function"
    },
    {
      "inputs": [
        {
          "internalType": "uint256",
          "name": "_recordId",
          "type": "uint256"
        },
        {
          "internalType": "uint256",
          "name": "_entryId",
          "type": "uint256"
        }
      ],
      "name": "acknowledgeEntry",
      "outputs": [],
      "stateMutability": "nonpayable",
      "type": "function"
    },
    {
      "inputs": [
        {
          "internalType": "uint256",
          "name": "_recordId",
          "type": "uint256"
        },
        {
          "internalType": "address",
          "name": "_recipient",
          "type": "address"
        },
        {
          "internalType": "string",
          "name": "_ipfs_data",
          "type": "string"
        }
      ],
      "name": "addEntry",
      "outputs": [],
      "stateMutability": "nonpayable",
      "type": "function"
    },
    {
      "inputs": [
        {
          "internalType": "string",
          "name": "_name",
          "type": "string"
        },
        {
          "internalType": "string",
          "name": "_description",
          "type": "string"
        }
      ],
      "name": "addRecord",
      "outputs": [],
      "stateMutability": "nonpayable",
      "type": "function"
    },
    {
      "inputs": [
        {
          "internalType": "uint256",
          "name": "_recordId",
          "type": "uint256"
        },
        {
          "internalType": "uint256",
          "name": "_entryId",
          "type": "uint256"
        }
      ],
      "name": "deleteEntry",
      "outputs": [],
      "stateMutability": "nonpayable",
      "type": "function"
    },
    {
      "inputs": [
        {
          "internalType": "uint256",
          "name": "_recordId",
          "type": "uint256"
        }
      ],
      "name": "deleteRecord",
      "outputs": [],
      "stateMutability": "nonpayable",
      "type": "function"
    },
    {
      "inputs": [
        {
          "internalType": "uint256",
          "name": "_recordId",
          "type": "uint256"
        },
        {
          "internalType": "uint256",
          "name": "_entryId",
          "type": "uint256"
        }
      ],
      "name": "getEntry",
      "outputs": [
        {
          "components": [
            {
              "internalType": "address",
              "name": "recipient",
              "type": "address"
            },
            {
              "internalType": "bool",
              "name": "acknowledged",
              "type": "bool"
            },
            {
              "internalType": "string",
              "name": "ipfs_data",
              "type": "string"
            }
          ],
          "internalType": "struct Records.Entry",
          "name": "",
          "type": "tuple"
        }
      ],
      "stateMutability": "view",
      "type": "function"
    },
    {
      "inputs": [
        {
          "internalType": "uint256",
          "name": "_recordId",
          "type": "uint256"
        }
      ],
      "name": "getEntryCount",
      "outputs": [
        {
          "internalType": "uint256",
          "name": "",
          "type": "uint256"
        }
      ],
      "stateMutability": "view",
      "type": "function"
    },
    {
      "inputs": [
        {
          "internalType": "uint256",
          "name": "_recordId",
          "type": "uint256"
        }
      ],
      "name": "getRecord",
      "outputs": [
        {
          "components": [
            {
              "internalType": "string",
              "name": "name",
              "type": "string"
            },
            {
              "internalType": "string",
              "name": "description",
              "type": "string"
            },
            {
              "internalType": "address",
              "name": "maintainer",
              "type": "address"
            }
          ],
          "internalType": "struct Records.Record",
          "name": "",
          "type": "tuple"
        }
      ],
      "stateMutability": "view",
      "type": "function"
    },
    {
      "inputs": [
        {
          "internalType": "address",
          "name": "_maintainer",
          "type": "address"
        }
      ],
      "name": "getRecordsByMaintainer",
      "outputs": [
        {
          "components": [
            {
              "internalType": "uint256",
              "name": "id",
              "type": "uint256"
            },
            {
              "internalType": "string",
              "name": "name",
              "type": "string"
            },
            {
              "internalType": "string",
              "name": "description",
              "type": "string"
            },
            {
              "internalType": "address",
              "name": "maintainer",
              "type": "address"
            }
          ],
          "internalType": "struct Records.RecordWithId[]",
          "name": "",
          "type": "tuple[]"
        }
      ],
      "stateMutability": "view",
      "type": "function"
    },
    {
      "inputs": [
        {
          "internalType": "uint256",
          "name": "_recordId",
          "type": "uint256"
        },
        {
          "internalType": "uint256",
          "name": "_entryId",
          "type": "uint256"
        }
      ],
      "name": "unAcknowledgeEntry",
      "outputs": [],
      "stateMutability": "nonpayable",
      "type": "function"
    },
    {
      "inputs": [
        {
          "internalType": "uint256",
          "name": "_recordId",
          "type": "uint256"
        },
        {
          "internalType": "uint256",
          "name": "_entryId",
          "type": "uint256"
        },
        {
          "internalType": "address",
          "name": "_recipient",
          "type": "address"
        },
        {
          "internalType": "string",
          "name": "_ipfs_data",
          "type": "string"
        }
      ],
      "name": "updateEntry",
      "outputs": [],
      "stateMutability": "nonpayable",
      "type": "function"
    },
    {
      "inputs": [
        {
          "internalType": "uint256",
          "name": "_recordId",
          "type": "uint256"
        },
        {
          "internalType": "string",
          "name": "_name",
          "type": "string"
        },
        {
          "internalType": "string",
          "name": "_description",
          "type": "string"
        }
      ],
      "name": "updateRecordDetails",
      "outputs": [],
      "stateMutability": "nonpayable",
      "type": "function"
    },
    {
      "inputs": [
        {
          "internalType": "uint256",
          "name": "_recordId",
          "type": "uint256"
        },
        {
          "internalType": "address",
          "name": "_maintainer",
          "type": "address"
        }
      ],
      "name": "updateRecordMaintainer",
      "outputs": [],
      "stateMutability": "nonpayable",
      "type": "function"
    }
  ],
  "bytecode": "0x6080604052600060035534801561001557600080fd5b506127ca806100256000396000f3fe608060405234801561001057600080fd5b50600436106100ea5760003560e01c806398ba676d1161008c578063caba589f11610066578063caba589f14610243578063d82bfbec1461025f578063edbecef11461027d578063f10f98f6146102ad576100ea565b806398ba676d146101db578063c8cecbb41461020b578063c959624814610227576100ea565b8063061f9811116100c8578063061f9811146101575780632211e1b21461017357806339efa9ed1461018f5780638c4d6e0f146101ab576100ea565b8063012281ad146100ef57806303e9e6091461010b57806304badc031461013b575b600080fd5b61010960048036038101906101049190611a2a565b6102c9565b005b61012560048036038101906101209190611aad565b6104b6565b6040516101329190611bc8565b60405180910390f35b61015560048036038101906101509190611bea565b61065c565b005b610171600480360381019061016c9190611aad565b610784565b005b61018d60048036038101906101889190611c2a565b6108bd565b005b6101a960048036038101906101a49190611bea565b6109b8565b005b6101c560048036038101906101c09190611aad565b610acf565b6040516101d29190611c79565b60405180910390f35b6101f560048036038101906101f09190611bea565b610aef565b6040516102029190611cff565b60405180910390f35b61022560048036038101906102209190611d21565b610c40565b005b610241600480360381019061023c9190611dac565b610d3c565b005b61025d60048036038101906102589190611e24565b610ed4565b005b6102676110d3565b6040516102749190611c79565b60405180910390f35b61029760048036038101906102929190611e93565b6110d9565b6040516102a49190611ffb565b60405180910390f35b6102c760048036038101906102c29190611bea565b61150f565b005b3373ffffffffffffffffffffffffffffffffffffffff1660008086815260200190815260200160002060020160009054906101000a900473ffffffffffffffffffffffffffffffffffffffff1673ffffffffffffffffffffffffffffffffffffffff161461036c576040517f08c379a0000000000000000000000000000000000000000000000000000000008152600401610363906120a0565b60405180910390fd5b600160008581526020019081526020016000208381548110610391576103906120c0565b5b906000526020600020906002020160000160149054906101000a900460ff16156103f0576040517f08c379a00000000000000000000000000000000000000000000000000000000081526004016103e79061213b565b60405180910390fd5b81600160008681526020019081526020016000208481548110610416576104156120c0565b5b906000526020600020906002020160000160006101000a81548173ffffffffffffffffffffffffffffffffffffffff021916908373ffffffffffffffffffffffffffffffffffffffff1602179055508060016000868152602001908152602001600020848154811061048b5761048a6120c0565b5b906000526020600020906002020160010190805190602001906104af929190611625565b5050505050565b6104be6116ab565b6000808381526020019081526020016000206040518060600160405290816000820180546104eb9061218a565b80601f01602080910402602001604051908101604052809291908181526020018280546105179061218a565b80156105645780601f1061053957610100808354040283529160200191610564565b820191906000526020600020905b81548152906001019060200180831161054757829003601f168201915b5050505050815260200160018201805461057d9061218a565b80601f01602080910402602001604051908101604052809291908181526020018280546105a99061218a565b80156105f65780601f106105cb576101008083540402835291602001916105f6565b820191906000526020600020905b8154815290600101906020018083116105d957829003601f168201915b505050505081526020016002820160009054906101000a900473ffffffffffffffffffffffffffffffffffffffff1673ffffffffffffffffffffffffffffffffffffffff1673ffffffffffffffffffffffffffffffffffffffff16815250509050919050565b3373ffffffffffffffffffffffffffffffffffffffff1660008084815260200190815260200160002060020160009054906101000a900473ffffffffffffffffffffffffffffffffffffffff1673ffffffffffffffffffffffffffffffffffffffff16146106ff576040517f08c379a00000000000000000000000000000000000000000000000000000000081526004016106f69061222e565b60405180910390fd5b600160008381526020019081526020016000208181548110610724576107236120c0565b5b9060005260206000209060020201600080820160006101000a81549073ffffffffffffffffffffffffffffffffffffffff02191690556000820160146101000a81549060ff021916905560018201600061077e91906116e2565b50505050565b3373ffffffffffffffffffffffffffffffffffffffff1660008083815260200190815260200160002060020160009054906101000a900473ffffffffffffffffffffffffffffffffffffffff1673ffffffffffffffffffffffffffffffffffffffff1614610827576040517f08c379a000000000000000000000000000000000000000000000000000000000815260040161081e906122c0565b60405180910390fd5b6000808281526020019081526020016000206000808201600061084a91906116e2565b60018201600061085a91906116e2565b6002820160006101000a81549073ffffffffffffffffffffffffffffffffffffffff021916905550506001600082815260200190815260200160002060006108a29190611722565b600360008154809291906108b59061230f565b919050555050565b3373ffffffffffffffffffffffffffffffffffffffff1660008084815260200190815260200160002060020160009054906101000a900473ffffffffffffffffffffffffffffffffffffffff1673ffffffffffffffffffffffffffffffffffffffff1614610960576040517f08c379a0000000000000000000000000000000000000000000000000000000008152600401610957906123ab565b60405180910390fd5b8060008084815260200190815260200160002060020160006101000a81548173ffffffffffffffffffffffffffffffffffffffff021916908373ffffffffffffffffffffffffffffffffffffffff1602179055505050565b3373ffffffffffffffffffffffffffffffffffffffff166001600084815260200190815260200160002082815481106109f4576109f36120c0565b5b906000526020600020906002020160000160009054906101000a900473ffffffffffffffffffffffffffffffffffffffff1673ffffffffffffffffffffffffffffffffffffffff1614610a7c576040517f08c379a0000000000000000000000000000000000000000000000000000000008152600401610a739061243d565b60405180910390fd5b6000600160008481526020019081526020016000208281548110610aa357610aa26120c0565b5b906000526020600020906002020160000160146101000a81548160ff0219169083151502179055505050565b600060016000838152602001908152602001600020805490509050919050565b610af7611746565b600160008481526020019081526020016000208281548110610b1c57610b1b6120c0565b5b90600052602060002090600202016040518060600160405290816000820160009054906101000a900473ffffffffffffffffffffffffffffffffffffffff1673ffffffffffffffffffffffffffffffffffffffff1673ffffffffffffffffffffffffffffffffffffffff1681526020016000820160149054906101000a900460ff16151515158152602001600182018054610bb69061218a565b80601f0160208091040260200160405190810160405280929190818152602001828054610be29061218a565b8015610c2f5780601f10610c0457610100808354040283529160200191610c2f565b820191906000526020600020905b815481529060010190602001808311610c1257829003601f168201915b505050505081525050905092915050565b3373ffffffffffffffffffffffffffffffffffffffff1660008085815260200190815260200160002060020160009054906101000a900473ffffffffffffffffffffffffffffffffffffffff1673ffffffffffffffffffffffffffffffffffffffff1614610ce3576040517f08c379a0000000000000000000000000000000000000000000000000000000008152600401610cda906124cf565b60405180910390fd5b816000808581526020019081526020016000206000019080519060200190610d0c929190611625565b50806000808581526020019081526020016000206001019080519060200190610d36929190611625565b50505050565b60405180606001604052808381526020018281526020013373ffffffffffffffffffffffffffffffffffffffff1681525060008060035481526020019081526020016000206000820151816000019080519060200190610d9d929190611625565b506020820151816001019080519060200190610dba929190611625565b5060408201518160020160006101000a81548173ffffffffffffffffffffffffffffffffffffffff021916908373ffffffffffffffffffffffffffffffffffffffff160217905550905050600260003373ffffffffffffffffffffffffffffffffffffffff1673ffffffffffffffffffffffffffffffffffffffff168152602001908152602001600020600354908060018154018082558091505060019003906000526020600020016000909190919091505560036000815480929190610e80906124ef565b91905055507ffafc4abeafc2b3f4bc5cc8f60fba98757990cb39e7063143d65e38dd2a5227f56001600354610eb59190612538565b838333604051610ec894939291906125b4565b60405180910390a15050565b3373ffffffffffffffffffffffffffffffffffffffff1660008085815260200190815260200160002060020160009054906101000a900473ffffffffffffffffffffffffffffffffffffffff1673ffffffffffffffffffffffffffffffffffffffff1614610f77576040517f08c379a0000000000000000000000000000000000000000000000000000000008152600401610f6e90612679565b60405180910390fd5b6001600084815260200190815260200160002060405180606001604052808473ffffffffffffffffffffffffffffffffffffffff16815260200160001515815260200183815250908060018154018082558091505060019003906000526020600020906002020160009091909190915060008201518160000160006101000a81548173ffffffffffffffffffffffffffffffffffffffff021916908373ffffffffffffffffffffffffffffffffffffffff16021790555060208201518160000160146101000a81548160ff021916908315150217905550604082015181600101908051906020019061106a929190611625565b5050507f86a013c4465e740cdeee36669880227f08a857a9204ed200eeb5e94339b32eeb836001806000878152602001908152602001600020805490506110b19190612538565b846000856040516110c69594939291906126a8565b60405180910390a1505050565b60035481565b60606000600260008473ffffffffffffffffffffffffffffffffffffffff1673ffffffffffffffffffffffffffffffffffffffff1681526020019081526020016000208054905067ffffffffffffffff811115611139576111386118ff565b5b60405190808252806020026020018201604052801561117257816020015b61115f61177f565b8152602001906001900390816111575790505b50905060005b600260008573ffffffffffffffffffffffffffffffffffffffff1673ffffffffffffffffffffffffffffffffffffffff16815260200190815260200160002080549050811015611505576040518060800160405280600260008773ffffffffffffffffffffffffffffffffffffffff1673ffffffffffffffffffffffffffffffffffffffff168152602001908152602001600020838154811061121e5761121d6120c0565b5b90600052602060002001548152602001600080600260008973ffffffffffffffffffffffffffffffffffffffff1673ffffffffffffffffffffffffffffffffffffffff1681526020019081526020016000208581548110611282576112816120c0565b5b9060005260206000200154815260200190815260200160002060000180546112a99061218a565b80601f01602080910402602001604051908101604052809291908181526020018280546112d59061218a565b80156113225780601f106112f757610100808354040283529160200191611322565b820191906000526020600020905b81548152906001019060200180831161130557829003601f168201915b50505050508152602001600080600260008973ffffffffffffffffffffffffffffffffffffffff1673ffffffffffffffffffffffffffffffffffffffff16815260200190815260200160002085815481106113805761137f6120c0565b5b9060005260206000200154815260200190815260200160002060010180546113a79061218a565b80601f01602080910402602001604051908101604052809291908181526020018280546113d39061218a565b80156114205780601f106113f557610100808354040283529160200191611420565b820191906000526020600020905b81548152906001019060200180831161140357829003601f168201915b50505050508152602001600080600260008973ffffffffffffffffffffffffffffffffffffffff1673ffffffffffffffffffffffffffffffffffffffff168152602001908152602001600020858154811061147e5761147d6120c0565b5b9060005260206000200154815260200190815260200160002060020160009054906101000a900473ffffffffffffffffffffffffffffffffffffffff1673ffffffffffffffffffffffffffffffffffffffff168152508282815181106114e7576114e66120c0565b5b602002602001018190525080806114fd906124ef565b915050611178565b5080915050919050565b3373ffffffffffffffffffffffffffffffffffffffff1660016000848152602001908152602001600020828154811061154b5761154a6120c0565b5b906000526020600020906002020160000160009054906101000a900473ffffffffffffffffffffffffffffffffffffffff1673ffffffffffffffffffffffffffffffffffffffff16146115d3576040517f08c379a00000000000000000000000000000000000000000000000000000000081526004016115ca90612774565b60405180910390fd5b600180600084815260200190815260200160002082815481106115f9576115f86120c0565b5b906000526020600020906002020160000160146101000a81548160ff0219169083151502179055505050565b8280546116319061218a565b90600052602060002090601f016020900481019282611653576000855561169a565b82601f1061166c57805160ff191683800117855561169a565b8280016001018555821561169a579182015b8281111561169957825182559160200191906001019061167e565b5b5090506116a791906117bd565b5090565b60405180606001604052806060815260200160608152602001600073ffffffffffffffffffffffffffffffffffffffff1681525090565b5080546116ee9061218a565b6000825580601f10611700575061171f565b601f01602090049060005260206000209081019061171e91906117bd565b5b50565b508054600082556002029060005260206000209081019061174391906117da565b50565b6040518060600160405280600073ffffffffffffffffffffffffffffffffffffffff168152602001600015158152602001606081525090565b6040518060800160405280600081526020016060815260200160608152602001600073ffffffffffffffffffffffffffffffffffffffff1681525090565b5b808211156117d65760008160009055506001016117be565b5090565b5b8082111561183857600080820160006101000a81549073ffffffffffffffffffffffffffffffffffffffff02191690556000820160146101000a81549060ff021916905560018201600061182f91906116e2565b506002016117db565b5090565b6000604051905090565b600080fd5b600080fd5b6000819050919050565b61186381611850565b811461186e57600080fd5b50565b6000813590506118808161185a565b92915050565b600073ffffffffffffffffffffffffffffffffffffffff82169050919050565b60006118b182611886565b9050919050565b6118c1816118a6565b81146118cc57600080fd5b50565b6000813590506118de816118b8565b92915050565b600080fd5b600080fd5b6000601f19601f8301169050919050565b7f4e487b7100000000000000000000000000000000000000000000000000000000600052604160045260246000fd5b611937826118ee565b810181811067ffffffffffffffff82111715611956576119556118ff565b5b80604052505050565b600061196961183c565b9050611975828261192e565b919050565b600067ffffffffffffffff821115611995576119946118ff565b5b61199e826118ee565b9050602081019050919050565b82818337600083830152505050565b60006119cd6119c88461197a565b61195f565b9050828152602081018484840111156119e9576119e86118e9565b5b6119f48482856119ab565b509392505050565b600082601f830112611a1157611a106118e4565b5b8135611a218482602086016119ba565b91505092915050565b60008060008060808587031215611a4457611a43611846565b5b6000611a5287828801611871565b9450506020611a6387828801611871565b9350506040611a74878288016118cf565b925050606085013567ffffffffffffffff811115611a9557611a9461184b565b5b611aa1878288016119fc565b91505092959194509250565b600060208284031215611ac357611ac2611846565b5b6000611ad184828501611871565b91505092915050565b600081519050919050565b600082825260208201905092915050565b60005b83811015611b14578082015181840152602081019050611af9565b83811115611b23576000848401525b50505050565b6000611b3482611ada565b611b3e8185611ae5565b9350611b4e818560208601611af6565b611b57816118ee565b840191505092915050565b611b6b816118a6565b82525050565b60006060830160008301518482036000860152611b8e8282611b29565b91505060208301518482036020860152611ba88282611b29565b9150506040830151611bbd6040860182611b62565b508091505092915050565b60006020820190508181036000830152611be28184611b71565b905092915050565b60008060408385031215611c0157611c00611846565b5b6000611c0f85828601611871565b9250506020611c2085828601611871565b9150509250929050565b60008060408385031215611c4157611c40611846565b5b6000611c4f85828601611871565b9250506020611c60858286016118cf565b9150509250929050565b611c7381611850565b82525050565b6000602082019050611c8e6000830184611c6a565b92915050565b60008115159050919050565b611ca981611c94565b82525050565b6000606083016000830151611cc76000860182611b62565b506020830151611cda6020860182611ca0565b5060408301518482036040860152611cf28282611b29565b9150508091505092915050565b60006020820190508181036000830152611d198184611caf565b905092915050565b600080600060608486031215611d3a57611d39611846565b5b6000611d4886828701611871565b935050602084013567ffffffffffffffff811115611d6957611d6861184b565b5b611d75868287016119fc565b925050604084013567ffffffffffffffff811115611d9657611d9561184b565b5b611da2868287016119fc565b9150509250925092565b60008060408385031215611dc357611dc2611846565b5b600083013567ffffffffffffffff811115611de157611de061184b565b5b611ded858286016119fc565b925050602083013567ffffffffffffffff811115611e0e57611e0d61184b565b5b611e1a858286016119fc565b9150509250929050565b600080600060608486031215611e3d57611e3c611846565b5b6000611e4b86828701611871565b9350506020611e5c868287016118cf565b925050604084013567ffffffffffffffff811115611e7d57611e7c61184b565b5b611e89868287016119fc565b9150509250925092565b600060208284031215611ea957611ea8611846565b5b6000611eb7848285016118cf565b91505092915050565b600081519050919050565b600082825260208201905092915050565b6000819050602082019050919050565b611ef581611850565b82525050565b6000608083016000830151611f136000860182611eec565b5060208301518482036020860152611f2b8282611b29565b91505060408301518482036040860152611f458282611b29565b9150506060830151611f5a6060860182611b62565b508091505092915050565b6000611f718383611efb565b905092915050565b6000602082019050919050565b6000611f9182611ec0565b611f9b8185611ecb565b935083602082028501611fad85611edc565b8060005b85811015611fe95784840389528151611fca8582611f65565b9450611fd583611f79565b925060208a01995050600181019050611fb1565b50829750879550505050505092915050565b600060208201905081810360008301526120158184611f86565b905092915050565b600082825260208201905092915050565b7f4f6e6c7920746865206d61696e7461696e65722063616e20757064617465207460008201527f686520656e7472696573206f662061207265636f72642e000000000000000000602082015250565b600061208a60378361201d565b91506120958261202e565b604082019050919050565b600060208201905081810360008301526120b98161207d565b9050919050565b7f4e487b7100000000000000000000000000000000000000000000000000000000600052603260045260246000fd5b7f456e74727920616c72656164792061636b6e6f776c65646765642e0000000000600082015250565b6000612125601b8361201d565b9150612130826120ef565b602082019050919050565b6000602082019050818103600083015261215481612118565b9050919050565b7f4e487b7100000000000000000000000000000000000000000000000000000000600052602260045260246000fd5b600060028204905060018216806121a257607f821691505b602082108114156121b6576121b561215b565b5b50919050565b7f4f6e6c7920746865206d61696e7461696e65722063616e2064656c657465206560008201527f6e74726965732066726f6d2061207265636f72642e0000000000000000000000602082015250565b600061221860358361201d565b9150612223826121bc565b604082019050919050565b600060208201905081810360008301526122478161220b565b9050919050565b7f4f6e6c7920746865206d61696e7461696e65722063616e2064656c657465206160008201527f207265636f72642e000000000000000000000000000000000000000000000000602082015250565b60006122aa60288361201d565b91506122b58261224e565b604082019050919050565b600060208201905081810360008301526122d98161229d565b9050919050565b7f4e487b7100000000000000000000000000000000000000000000000000000000600052601160045260246000fd5b600061231a82611850565b9150600082141561232e5761232d6122e0565b5b600182039050919050565b7f4f6e6c7920746865206d61696e7461696e65722063616e20757064617465207460008201527f6865206d61696e7461696e6572206f662061207265636f72642e000000000000602082015250565b6000612395603a8361201d565b91506123a082612339565b604082019050919050565b600060208201905081810360008301526123c481612388565b9050919050565b7f4f6e6c792074686520726563697069656e742063616e20756e61636b6e6f776c60008201527f6564676520616e20656e7472792e000000000000000000000000000000000000602082015250565b6000612427602e8361201d565b9150612432826123cb565b604082019050919050565b600060208201905081810360008301526124568161241a565b9050919050565b7f4f6e6c7920746865206d61696e7461696e65722063616e20757064617465207460008201527f68652064657461696c73206f662061207265636f72642e000000000000000000602082015250565b60006124b960378361201d565b91506124c48261245d565b604082019050919050565b600060208201905081810360008301526124e8816124ac565b9050919050565b60006124fa82611850565b91507fffffffffffffffffffffffffffffffffffffffffffffffffffffffffffffffff82141561252d5761252c6122e0565b5b600182019050919050565b600061254382611850565b915061254e83611850565b925082821015612561576125606122e0565b5b828203905092915050565b600061257782611ada565b612581818561201d565b9350612591818560208601611af6565b61259a816118ee565b840191505092915050565b6125ae816118a6565b82525050565b60006080820190506125c96000830187611c6a565b81810360208301526125db818661256c565b905081810360408301526125ef818561256c565b90506125fe60608301846125a5565b95945050505050565b7f4f6e6c7920746865206d61696e7461696e65722063616e2061646420656e747260008201527f69657320746f2061207265636f72642e00000000000000000000000000000000602082015250565b600061266360308361201d565b915061266e82612607565b604082019050919050565b6000602082019050818103600083015261269281612656565b9050919050565b6126a281611c94565b82525050565b600060a0820190506126bd6000830188611c6a565b6126ca6020830187611c6a565b6126d760408301866125a5565b6126e46060830185612699565b81810360808301526126f6818461256c565b90509695505050505050565b7f4f6e6c792074686520726563697069656e742063616e2061636b6e6f776c656460008201527f676520616e20656e7472792e0000000000000000000000000000000000000000602082015250565b600061275e602c8361201d565b915061276982612702565b604082019050919050565b6000602082019050818103600083015261278d81612751565b905091905056fea264697066735822122029006280da7f34896eed2a8dbd768e3e34ecb9e77fc8890bbb5ef62bc3642e0a64736f6c63430008090033",
  "linkReferences": {},
  "deployedLinkReferences": {}
}