{
  "_format": "hh-sol-artifact-1",
  "contractName": "Records",
  "sourceName": "contracts/Records.sol",
  "abi": [
    {
      "anonymous": false,
      "inputs": [
        {
          "indexed": false,
          "internalType": "uint256",
          "name": "record_id",
          "type": "uint256"
        },
        {
          "indexed": false,
          "internalType": "uint256",
          "name": "entry_id",
          "type": "uint256"
        },
        {
          "indexed": false,
          "internalType": "address",
          "name": "recipient",
          "type": "address"
        },
        {
          "indexed": false,
          "internalType": "bool",
          "name": "acknowledged",
          "type": "bool"
        },
        {
          "indexed": false,
          "internalType": "string",
          "name": "ipfs_data",
          "type": "string"
        }
      ],
      "name": "EntryAdded",
      "type": "event"
    },
    {
      "anonymous": false,
      "inputs": [
        {
          "indexed": false,
          "internalType": "uint256",
          "name": "id",
          "type": "uint256"
        },
        {
          "indexed": false,
          "internalType": "string",
          "name": "name",
          "type": "string"
        },
        {
          "indexed": false,
          "internalType": "string",
          "name": "description",
          "type": "string"
        },
        {
          "indexed": false,
          "internalType": "address",
          "name": "maintainer",
          "type": "address"
        }
      ],
      "name": "RecordAdded",
      "type": "event"
    },
    {
      "inputs": [
        {
          "internalType": "uint256",
          "name": "_recordId",
          "type": "uint256"
        },
        {
          "internalType": "uint256",
          "name": "_entryId",
          "type": "uint256"
        }
      ],
      "name": "acknowledgeEntry",
      "outputs": [],
      "stateMutability": "nonpayable",
      "type": "function"
    },
    {
      "inputs": [
        {
          "internalType": "uint256",
          "name": "_recordId",
          "type": "uint256"
        },
        {
          "internalType": "address",
          "name": "_recipient",
          "type": "address"
        },
        {
          "internalType": "string",
          "name": "_ipfs_data",
          "type": "string"
        }
      ],
      "name": "addEntry",
      "outputs": [],
      "stateMutability": "nonpayable",
      "type": "function"
    },
    {
      "inputs": [
        {
          "internalType": "string",
          "name": "_name",
          "type": "string"
        },
        {
          "internalType": "string",
          "name": "_description",
          "type": "string"
        },
        {
          "internalType": "string",
          "name": "_ipfs_structure",
          "type": "string"
        }
      ],
      "name": "addRecord",
      "outputs": [],
      "stateMutability": "nonpayable",
      "type": "function"
    },
    {
      "inputs": [
        {
          "internalType": "uint256",
          "name": "_recordId",
          "type": "uint256"
        },
        {
          "internalType": "uint256",
          "name": "_entryId",
          "type": "uint256"
        }
      ],
      "name": "deleteEntry",
      "outputs": [],
      "stateMutability": "nonpayable",
      "type": "function"
    },
    {
      "inputs": [
        {
          "internalType": "uint256",
          "name": "_recordId",
          "type": "uint256"
        }
      ],
      "name": "deleteRecord",
      "outputs": [],
      "stateMutability": "nonpayable",
      "type": "function"
    },
    {
      "inputs": [
        {
          "internalType": "uint256",
          "name": "_recordId",
          "type": "uint256"
        }
      ],
      "name": "getEntries",
      "outputs": [
        {
          "components": [
            {
              "internalType": "uint256",
              "name": "record_id",
              "type": "uint256"
            },
            {
              "internalType": "uint256",
              "name": "entry_id",
              "type": "uint256"
            },
            {
              "internalType": "address",
              "name": "recipient",
              "type": "address"
            },
            {
              "internalType": "bool",
              "name": "acknowledged",
              "type": "bool"
            },
            {
              "internalType": "string",
              "name": "ipfs_data",
              "type": "string"
            }
          ],
          "internalType": "struct Records.Entry[]",
          "name": "",
          "type": "tuple[]"
        }
      ],
      "stateMutability": "view",
      "type": "function"
    },
    {
      "inputs": [
        {
          "internalType": "uint256",
          "name": "_recordId",
          "type": "uint256"
        },
        {
          "internalType": "uint256",
          "name": "_entryId",
          "type": "uint256"
        }
      ],
      "name": "getEntry",
      "outputs": [
        {
          "components": [
            {
              "internalType": "uint256",
              "name": "record_id",
              "type": "uint256"
            },
            {
              "internalType": "uint256",
              "name": "entry_id",
              "type": "uint256"
            },
            {
              "internalType": "address",
              "name": "recipient",
              "type": "address"
            },
            {
              "internalType": "bool",
              "name": "acknowledged",
              "type": "bool"
            },
            {
              "internalType": "string",
              "name": "ipfs_data",
              "type": "string"
            }
          ],
          "internalType": "struct Records.Entry",
          "name": "",
          "type": "tuple"
        }
      ],
      "stateMutability": "view",
      "type": "function"
    },
    {
      "inputs": [
        {
          "internalType": "uint256",
          "name": "_recordId",
          "type": "uint256"
        }
      ],
      "name": "getEntryCount",
      "outputs": [
        {
          "internalType": "uint256",
          "name": "",
          "type": "uint256"
        }
      ],
      "stateMutability": "view",
      "type": "function"
    },
    {
      "inputs": [
        {
          "internalType": "uint256",
          "name": "_recordId",
          "type": "uint256"
        }
      ],
      "name": "getRecord",
      "outputs": [
        {
          "components": [
            {
              "internalType": "uint256",
              "name": "id",
              "type": "uint256"
            },
            {
              "internalType": "string",
              "name": "name",
              "type": "string"
            },
            {
              "internalType": "string",
              "name": "description",
              "type": "string"
            },
            {
              "internalType": "address",
              "name": "maintainer",
              "type": "address"
            },
            {
              "internalType": "string",
              "name": "ipfs_structure",
              "type": "string"
            }
          ],
          "internalType": "struct Records.Record",
          "name": "",
          "type": "tuple"
        }
      ],
      "stateMutability": "view",
      "type": "function"
    },
    {
      "inputs": [
        {
          "internalType": "address",
          "name": "_maintainer",
          "type": "address"
        }
      ],
      "name": "getRecordsByMaintainer",
      "outputs": [
        {
          "components": [
            {
              "internalType": "uint256",
              "name": "id",
              "type": "uint256"
            },
            {
              "internalType": "string",
              "name": "name",
              "type": "string"
            },
            {
              "internalType": "string",
              "name": "description",
              "type": "string"
            },
            {
              "internalType": "address",
              "name": "maintainer",
              "type": "address"
            },
            {
              "internalType": "string",
              "name": "ipfs_structure",
              "type": "string"
            }
          ],
          "internalType": "struct Records.Record[]",
          "name": "",
          "type": "tuple[]"
        }
      ],
      "stateMutability": "view",
      "type": "function"
    },
    {
      "inputs": [
        {
          "internalType": "uint256",
          "name": "_recordId",
          "type": "uint256"
        },
        {
          "internalType": "uint256",
          "name": "_entryId",
          "type": "uint256"
        }
      ],
      "name": "unAcknowledgeEntry",
      "outputs": [],
      "stateMutability": "nonpayable",
      "type": "function"
    },
    {
      "inputs": [
        {
          "internalType": "uint256",
          "name": "_recordId",
          "type": "uint256"
        },
        {
          "internalType": "uint256",
          "name": "_entryId",
          "type": "uint256"
        },
        {
          "internalType": "address",
          "name": "_recipient",
          "type": "address"
        },
        {
          "internalType": "string",
          "name": "_ipfs_data",
          "type": "string"
        }
      ],
      "name": "updateEntry",
      "outputs": [],
      "stateMutability": "nonpayable",
      "type": "function"
    },
    {
      "inputs": [
        {
          "internalType": "uint256",
          "name": "_recordId",
          "type": "uint256"
        },
        {
          "internalType": "string",
          "name": "_name",
          "type": "string"
        },
        {
          "internalType": "string",
          "name": "_description",
          "type": "string"
        },
        {
          "internalType": "string",
          "name": "_ipfs_structure",
          "type": "string"
        }
      ],
      "name": "updateRecordDetails",
      "outputs": [],
      "stateMutability": "nonpayable",
      "type": "function"
    },
    {
      "inputs": [
        {
          "internalType": "uint256",
          "name": "_recordId",
          "type": "uint256"
        },
        {
          "internalType": "address",
          "name": "_maintainer",
          "type": "address"
        }
      ],
      "name": "updateRecordMaintainer",
      "outputs": [],
      "stateMutability": "nonpayable",
      "type": "function"
    }
  ],
  "bytecode": "0x608060405234801561001057600080fd5b506130a2806100206000396000f3fe608060405234801561001057600080fd5b50600436106100ea5760003560e01c8063530c53361161008c578063caba589f11610066578063caba589f14610243578063d3549ebd1461025f578063edbecef11461028f578063f10f98f6146102bf576100ea565b8063530c5336146101c75780638c4d6e0f146101e357806398ba676d14610213576100ea565b8063061f9811116100c8578063061f9811146101575780632211e1b21461017357806339efa9ed1461018f5780633f723c62146101ab576100ea565b8063012281ad146100ef57806303e9e6091461010b57806304badc031461013b575b600080fd5b61010960048036038101906101049190612042565b6102db565b005b610125600480360381019061012091906120c5565b6104c8565b604051610132919061221c565b60405180910390f35b6101556004803603810190610150919061223e565b61070a565b005b610171600480360381019061016c91906120c5565b610842565b005b61018d6004803603810190610188919061227e565b610bb2565b005b6101a960048036038101906101a4919061223e565b610cad565b005b6101c560048036038101906101c091906122be565b610dc4565b005b6101e160048036038101906101dc9190612365565b610f9b565b005b6101fd60048036038101906101f891906120c5565b6110c2565b60405161020a919061242f565b60405180910390f35b61022d6004803603810190610228919061223e565b6110e2565b60405161023a91906124db565b60405180910390f35b61025d600480360381019061025891906124fd565b611247565b005b610279600480360381019061027491906120c5565b61147c565b60405161028691906126a4565b60405180910390f35b6102a960048036038101906102a491906126c6565b611605565b6040516102b69190612839565b60405180910390f35b6102d960048036038101906102d4919061223e565b611b39565b005b3373ffffffffffffffffffffffffffffffffffffffff1660008086815260200190815260200160002060030160009054906101000a900473ffffffffffffffffffffffffffffffffffffffff1673ffffffffffffffffffffffffffffffffffffffff161461037e576040517f08c379a0000000000000000000000000000000000000000000000000000000008152600401610375906128de565b60405180910390fd5b6001600085815260200190815260200160002083815481106103a3576103a26128fe565b5b906000526020600020906004020160020160149054906101000a900460ff1615610402576040517f08c379a00000000000000000000000000000000000000000000000000000000081526004016103f990612979565b60405180910390fd5b81600160008681526020019081526020016000208481548110610428576104276128fe565b5b906000526020600020906004020160020160006101000a81548173ffffffffffffffffffffffffffffffffffffffff021916908373ffffffffffffffffffffffffffffffffffffffff1602179055508060016000868152602001908152602001600020848154811061049d5761049c6128fe565b5b906000526020600020906004020160030190805190602001906104c1929190611c4f565b5050505050565b6104d0611cd5565b6000808381526020019081526020016000206040518060a001604052908160008201548152602001600182018054610507906129c8565b80601f0160208091040260200160405190810160405280929190818152602001828054610533906129c8565b80156105805780601f1061055557610100808354040283529160200191610580565b820191906000526020600020905b81548152906001019060200180831161056357829003601f168201915b50505050508152602001600282018054610599906129c8565b80601f01602080910402602001604051908101604052809291908181526020018280546105c5906129c8565b80156106125780601f106105e757610100808354040283529160200191610612565b820191906000526020600020905b8154815290600101906020018083116105f557829003601f168201915b505050505081526020016003820160009054906101000a900473ffffffffffffffffffffffffffffffffffffffff1673ffffffffffffffffffffffffffffffffffffffff1673ffffffffffffffffffffffffffffffffffffffff168152602001600482018054610681906129c8565b80601f01602080910402602001604051908101604052809291908181526020018280546106ad906129c8565b80156106fa5780601f106106cf576101008083540402835291602001916106fa565b820191906000526020600020905b8154815290600101906020018083116106dd57829003601f168201915b5050505050815250509050919050565b3373ffffffffffffffffffffffffffffffffffffffff1660008084815260200190815260200160002060030160009054906101000a900473ffffffffffffffffffffffffffffffffffffffff1673ffffffffffffffffffffffffffffffffffffffff16146107ad576040517f08c379a00000000000000000000000000000000000000000000000000000000081526004016107a490612a6c565b60405180910390fd5b6001600083815260200190815260200160002081815481106107d2576107d16128fe565b5b906000526020600020906004020160008082016000905560018201600090556002820160006101000a81549073ffffffffffffffffffffffffffffffffffffffff02191690556002820160146101000a81549060ff021916905560038201600061083c9190611d1a565b50505050565b3373ffffffffffffffffffffffffffffffffffffffff1660008083815260200190815260200160002060030160009054906101000a900473ffffffffffffffffffffffffffffffffffffffff1673ffffffffffffffffffffffffffffffffffffffff16146108e5576040517f08c379a00000000000000000000000000000000000000000000000000000000081526004016108dc90612afe565b60405180910390fd5b6000808281526020019081526020016000206000808201600090556001820160006109109190611d1a565b6002820160006109209190611d1a565b6003820160006101000a81549073ffffffffffffffffffffffffffffffffffffffff02191690556004820160006109579190611d1a565b50506001600082815260200190815260200160002060006109789190611d5a565b60005b600260003373ffffffffffffffffffffffffffffffffffffffff1673ffffffffffffffffffffffffffffffffffffffff16815260200190815260200160002080549050811015610bae5781600260003373ffffffffffffffffffffffffffffffffffffffff1673ffffffffffffffffffffffffffffffffffffffff1681526020019081526020016000208281548110610a1757610a166128fe565b5b90600052602060002001541415610b9b57600260003373ffffffffffffffffffffffffffffffffffffffff1673ffffffffffffffffffffffffffffffffffffffff1681526020019081526020016000206001600260003373ffffffffffffffffffffffffffffffffffffffff1673ffffffffffffffffffffffffffffffffffffffff16815260200190815260200160002080549050610ab69190612b4d565b81548110610ac757610ac66128fe565b5b9060005260206000200154600260003373ffffffffffffffffffffffffffffffffffffffff1673ffffffffffffffffffffffffffffffffffffffff1681526020019081526020016000208281548110610b2357610b226128fe565b5b9060005260206000200181905550600260003373ffffffffffffffffffffffffffffffffffffffff1673ffffffffffffffffffffffffffffffffffffffff168152602001908152602001600020805480610b8057610b7f612b81565b5b60019003818190600052602060002001600090559055610bae565b8080610ba690612bb0565b91505061097b565b5050565b3373ffffffffffffffffffffffffffffffffffffffff1660008084815260200190815260200160002060030160009054906101000a900473ffffffffffffffffffffffffffffffffffffffff1673ffffffffffffffffffffffffffffffffffffffff1614610c55576040517f08c379a0000000000000000000000000000000000000000000000000000000008152600401610c4c90612c6b565b60405180910390fd5b8060008084815260200190815260200160002060030160006101000a81548173ffffffffffffffffffffffffffffffffffffffff021916908373ffffffffffffffffffffffffffffffffffffffff1602179055505050565b3373ffffffffffffffffffffffffffffffffffffffff16600160008481526020019081526020016000208281548110610ce957610ce86128fe565b5b906000526020600020906004020160020160009054906101000a900473ffffffffffffffffffffffffffffffffffffffff1673ffffffffffffffffffffffffffffffffffffffff1614610d71576040517f08c379a0000000000000000000000000000000000000000000000000000000008152600401610d6890612cfd565b60405180910390fd5b6000600160008481526020019081526020016000208281548110610d9857610d976128fe565b5b906000526020600020906004020160020160146101000a81548160ff0219169083151502179055505050565b600060c04233604051602001610ddb929190612d86565b60405160208183030381529060405280519060200120901c60001c90506040518060a001604052808281526020018581526020018481526020013373ffffffffffffffffffffffffffffffffffffffff16815260200183815250600080838152602001908152602001600020600082015181600001556020820151816001019080519060200190610e6d929190611c4f565b506040820151816002019080519060200190610e8a929190611c4f565b5060608201518160030160006101000a81548173ffffffffffffffffffffffffffffffffffffffff021916908373ffffffffffffffffffffffffffffffffffffffff1602179055506080820151816004019080519060200190610eee929190611c4f565b50905050600260003373ffffffffffffffffffffffffffffffffffffffff1673ffffffffffffffffffffffffffffffffffffffff1681526020019081526020016000208190806001815401808255809150506001900390600052602060002001600090919091909150557ffafc4abeafc2b3f4bc5cc8f60fba98757990cb39e7063143d65e38dd2a5227f581858533604051610f8d9493929190612dfa565b60405180910390a150505050565b3373ffffffffffffffffffffffffffffffffffffffff1660008086815260200190815260200160002060030160009054906101000a900473ffffffffffffffffffffffffffffffffffffffff1673ffffffffffffffffffffffffffffffffffffffff161461103e576040517f08c379a000000000000000000000000000000000000000000000000000000000815260040161103590612ebf565b60405180910390fd5b826000808681526020019081526020016000206001019080519060200190611067929190611c4f565b50816000808681526020019081526020016000206002019080519060200190611091929190611c4f565b508060008086815260200190815260200160002060040190805190602001906110bb929190611c4f565b5050505050565b600060016000838152602001908152602001600020805490509050919050565b6110ea611d7e565b60016000848152602001908152602001600020828154811061110f5761110e6128fe565b5b90600052602060002090600402016040518060a001604052908160008201548152602001600182015481526020016002820160009054906101000a900473ffffffffffffffffffffffffffffffffffffffff1673ffffffffffffffffffffffffffffffffffffffff1673ffffffffffffffffffffffffffffffffffffffff1681526020016002820160149054906101000a900460ff161515151581526020016003820180546111bd906129c8565b80601f01602080910402602001604051908101604052809291908181526020018280546111e9906129c8565b80156112365780601f1061120b57610100808354040283529160200191611236565b820191906000526020600020905b81548152906001019060200180831161121957829003601f168201915b505050505081525050905092915050565b3373ffffffffffffffffffffffffffffffffffffffff1660008085815260200190815260200160002060030160009054906101000a900473ffffffffffffffffffffffffffffffffffffffff1673ffffffffffffffffffffffffffffffffffffffff16146112ea576040517f08c379a00000000000000000000000000000000000000000000000000000000081526004016112e190612f51565b60405180910390fd5b600160008481526020019081526020016000206040518060a00160405280858152602001600160008781526020019081526020016000208054905081526020018473ffffffffffffffffffffffffffffffffffffffff168152602001600015158152602001838152509080600181540180825580915050600190039060005260206000209060040201600090919091909150600082015181600001556020820151816001015560408201518160020160006101000a81548173ffffffffffffffffffffffffffffffffffffffff021916908373ffffffffffffffffffffffffffffffffffffffff16021790555060608201518160020160146101000a81548160ff0219169083151502179055506080820151816003019080519060200190611413929190611c4f565b5050507f86a013c4465e740cdeee36669880227f08a857a9204ed200eeb5e94339b32eeb8360018060008781526020019081526020016000208054905061145a9190612b4d565b8460008560405161146f959493929190612f80565b60405180910390a1505050565b606060016000838152602001908152602001600020805480602002602001604051908101604052809291908181526020016000905b828210156115fa57838290600052602060002090600402016040518060a001604052908160008201548152602001600182015481526020016002820160009054906101000a900473ffffffffffffffffffffffffffffffffffffffff1673ffffffffffffffffffffffffffffffffffffffff1673ffffffffffffffffffffffffffffffffffffffff1681526020016002820160149054906101000a900460ff16151515158152602001600382018054611569906129c8565b80601f0160208091040260200160405190810160405280929190818152602001828054611595906129c8565b80156115e25780601f106115b7576101008083540402835291602001916115e2565b820191906000526020600020905b8154815290600101906020018083116115c557829003601f168201915b505050505081525050815260200190600101906114b1565b505050509050919050565b60606000600260008473ffffffffffffffffffffffffffffffffffffffff1673ffffffffffffffffffffffffffffffffffffffff1681526020019081526020016000208054905067ffffffffffffffff81111561166557611664611f17565b5b60405190808252806020026020018201604052801561169e57816020015b61168b611cd5565b8152602001906001900390816116835790505b50905060005b600260008573ffffffffffffffffffffffffffffffffffffffff1673ffffffffffffffffffffffffffffffffffffffff16815260200190815260200160002080549050811015611b2f576040518060a00160405280600260008773ffffffffffffffffffffffffffffffffffffffff1673ffffffffffffffffffffffffffffffffffffffff168152602001908152602001600020838154811061174a576117496128fe565b5b90600052602060002001548152602001600080600260008973ffffffffffffffffffffffffffffffffffffffff1673ffffffffffffffffffffffffffffffffffffffff16815260200190815260200160002085815481106117ae576117ad6128fe565b5b9060005260206000200154815260200190815260200160002060010180546117d5906129c8565b80601f0160208091040260200160405190810160405280929190818152602001828054611801906129c8565b801561184e5780601f106118235761010080835404028352916020019161184e565b820191906000526020600020905b81548152906001019060200180831161183157829003601f168201915b50505050508152602001600080600260008973ffffffffffffffffffffffffffffffffffffffff1673ffffffffffffffffffffffffffffffffffffffff16815260200190815260200160002085815481106118ac576118ab6128fe565b5b9060005260206000200154815260200190815260200160002060020180546118d3906129c8565b80601f01602080910402602001604051908101604052809291908181526020018280546118ff906129c8565b801561194c5780601f106119215761010080835404028352916020019161194c565b820191906000526020600020905b81548152906001019060200180831161192f57829003601f168201915b50505050508152602001600080600260008973ffffffffffffffffffffffffffffffffffffffff1673ffffffffffffffffffffffffffffffffffffffff16815260200190815260200160002085815481106119aa576119a96128fe565b5b9060005260206000200154815260200190815260200160002060030160009054906101000a900473ffffffffffffffffffffffffffffffffffffffff1673ffffffffffffffffffffffffffffffffffffffff168152602001600080600260008973ffffffffffffffffffffffffffffffffffffffff1673ffffffffffffffffffffffffffffffffffffffff1681526020019081526020016000208581548110611a5657611a556128fe565b5b906000526020600020015481526020019081526020016000206004018054611a7d906129c8565b80601f0160208091040260200160405190810160405280929190818152602001828054611aa9906129c8565b8015611af65780601f10611acb57610100808354040283529160200191611af6565b820191906000526020600020905b815481529060010190602001808311611ad957829003601f168201915b5050505050815250828281518110611b1157611b106128fe565b5b60200260200101819052508080611b2790612bb0565b9150506116a4565b5080915050919050565b3373ffffffffffffffffffffffffffffffffffffffff16600160008481526020019081526020016000208281548110611b7557611b746128fe565b5b906000526020600020906004020160020160009054906101000a900473ffffffffffffffffffffffffffffffffffffffff1673ffffffffffffffffffffffffffffffffffffffff1614611bfd576040517f08c379a0000000000000000000000000000000000000000000000000000000008152600401611bf49061304c565b60405180910390fd5b60018060008481526020019081526020016000208281548110611c2357611c226128fe565b5b906000526020600020906004020160020160146101000a81548160ff0219169083151502179055505050565b828054611c5b906129c8565b90600052602060002090601f016020900481019282611c7d5760008555611cc4565b82601f10611c9657805160ff1916838001178555611cc4565b82800160010185558215611cc4579182015b82811115611cc3578251825591602001919060010190611ca8565b5b509050611cd19190611dc5565b5090565b6040518060a00160405280600081526020016060815260200160608152602001600073ffffffffffffffffffffffffffffffffffffffff168152602001606081525090565b508054611d26906129c8565b6000825580601f10611d385750611d57565b601f016020900490600052602060002090810190611d569190611dc5565b5b50565b5080546000825560040290600052602060002090810190611d7b9190611de2565b50565b6040518060a001604052806000815260200160008152602001600073ffffffffffffffffffffffffffffffffffffffff168152602001600015158152602001606081525090565b5b80821115611dde576000816000905550600101611dc6565b5090565b5b80821115611e505760008082016000905560018201600090556002820160006101000a81549073ffffffffffffffffffffffffffffffffffffffff02191690556002820160146101000a81549060ff0219169055600382016000611e479190611d1a565b50600401611de3565b5090565b6000604051905090565b600080fd5b600080fd5b6000819050919050565b611e7b81611e68565b8114611e8657600080fd5b50565b600081359050611e9881611e72565b92915050565b600073ffffffffffffffffffffffffffffffffffffffff82169050919050565b6000611ec982611e9e565b9050919050565b611ed981611ebe565b8114611ee457600080fd5b50565b600081359050611ef681611ed0565b92915050565b600080fd5b600080fd5b6000601f19601f8301169050919050565b7f4e487b7100000000000000000000000000000000000000000000000000000000600052604160045260246000fd5b611f4f82611f06565b810181811067ffffffffffffffff82111715611f6e57611f6d611f17565b5b80604052505050565b6000611f81611e54565b9050611f8d8282611f46565b919050565b600067ffffffffffffffff821115611fad57611fac611f17565b5b611fb682611f06565b9050602081019050919050565b82818337600083830152505050565b6000611fe5611fe084611f92565b611f77565b90508281526020810184848401111561200157612000611f01565b5b61200c848285611fc3565b509392505050565b600082601f83011261202957612028611efc565b5b8135612039848260208601611fd2565b91505092915050565b6000806000806080858703121561205c5761205b611e5e565b5b600061206a87828801611e89565b945050602061207b87828801611e89565b935050604061208c87828801611ee7565b925050606085013567ffffffffffffffff8111156120ad576120ac611e63565b5b6120b987828801612014565b91505092959194509250565b6000602082840312156120db576120da611e5e565b5b60006120e984828501611e89565b91505092915050565b6120fb81611e68565b82525050565b600081519050919050565b600082825260208201905092915050565b60005b8381101561213b578082015181840152602081019050612120565b8381111561214a576000848401525b50505050565b600061215b82612101565b612165818561210c565b935061217581856020860161211d565b61217e81611f06565b840191505092915050565b61219281611ebe565b82525050565b600060a0830160008301516121b060008601826120f2565b50602083015184820360208601526121c88282612150565b915050604083015184820360408601526121e28282612150565b91505060608301516121f76060860182612189565b506080830151848203608086015261220f8282612150565b9150508091505092915050565b600060208201905081810360008301526122368184612198565b905092915050565b6000806040838503121561225557612254611e5e565b5b600061226385828601611e89565b925050602061227485828601611e89565b9150509250929050565b6000806040838503121561229557612294611e5e565b5b60006122a385828601611e89565b92505060206122b485828601611ee7565b9150509250929050565b6000806000606084860312156122d7576122d6611e5e565b5b600084013567ffffffffffffffff8111156122f5576122f4611e63565b5b61230186828701612014565b935050602084013567ffffffffffffffff81111561232257612321611e63565b5b61232e86828701612014565b925050604084013567ffffffffffffffff81111561234f5761234e611e63565b5b61235b86828701612014565b9150509250925092565b6000806000806080858703121561237f5761237e611e5e565b5b600061238d87828801611e89565b945050602085013567ffffffffffffffff8111156123ae576123ad611e63565b5b6123ba87828801612014565b935050604085013567ffffffffffffffff8111156123db576123da611e63565b5b6123e787828801612014565b925050606085013567ffffffffffffffff81111561240857612407611e63565b5b61241487828801612014565b91505092959194509250565b61242981611e68565b82525050565b60006020820190506124446000830184612420565b92915050565b60008115159050919050565b61245f8161244a565b82525050565b600060a08301600083015161247d60008601826120f2565b50602083015161249060208601826120f2565b5060408301516124a36040860182612189565b5060608301516124b66060860182612456565b50608083015184820360808601526124ce8282612150565b9150508091505092915050565b600060208201905081810360008301526124f58184612465565b905092915050565b60008060006060848603121561251657612515611e5e565b5b600061252486828701611e89565b935050602061253586828701611ee7565b925050604084013567ffffffffffffffff81111561255657612555611e63565b5b61256286828701612014565b9150509250925092565b600081519050919050565b600082825260208201905092915050565b6000819050602082019050919050565b600060a0830160008301516125b060008601826120f2565b5060208301516125c360208601826120f2565b5060408301516125d66040860182612189565b5060608301516125e96060860182612456565b50608083015184820360808601526126018282612150565b9150508091505092915050565b600061261a8383612598565b905092915050565b6000602082019050919050565b600061263a8261256c565b6126448185612577565b93508360208202850161265685612588565b8060005b858110156126925784840389528151612673858261260e565b945061267e83612622565b925060208a0199505060018101905061265a565b50829750879550505050505092915050565b600060208201905081810360008301526126be818461262f565b905092915050565b6000602082840312156126dc576126db611e5e565b5b60006126ea84828501611ee7565b91505092915050565b600081519050919050565b600082825260208201905092915050565b6000819050602082019050919050565b600060a08301600083015161273760008601826120f2565b506020830151848203602086015261274f8282612150565b915050604083015184820360408601526127698282612150565b915050606083015161277e6060860182612189565b50608083015184820360808601526127968282612150565b9150508091505092915050565b60006127af838361271f565b905092915050565b6000602082019050919050565b60006127cf826126f3565b6127d981856126fe565b9350836020820285016127eb8561270f565b8060005b85811015612827578484038952815161280885826127a3565b9450612813836127b7565b925060208a019950506001810190506127ef565b50829750879550505050505092915050565b6000602082019050818103600083015261285381846127c4565b905092915050565b600082825260208201905092915050565b7f4f6e6c7920746865206d61696e7461696e65722063616e20757064617465207460008201527f686520656e7472696573206f662061207265636f72642e000000000000000000602082015250565b60006128c860378361285b565b91506128d38261286c565b604082019050919050565b600060208201905081810360008301526128f7816128bb565b9050919050565b7f4e487b7100000000000000000000000000000000000000000000000000000000600052603260045260246000fd5b7f456e74727920616c72656164792061636b6e6f776c65646765642e0000000000600082015250565b6000612963601b8361285b565b915061296e8261292d565b602082019050919050565b6000602082019050818103600083015261299281612956565b9050919050565b7f4e487b7100000000000000000000000000000000000000000000000000000000600052602260045260246000fd5b600060028204905060018216806129e057607f821691505b602082108114156129f4576129f3612999565b5b50919050565b7f4f6e6c7920746865206d61696e7461696e65722063616e2064656c657465206560008201527f6e74726965732066726f6d2061207265636f72642e0000000000000000000000602082015250565b6000612a5660358361285b565b9150612a61826129fa565b604082019050919050565b60006020820190508181036000830152612a8581612a49565b9050919050565b7f4f6e6c7920746865206d61696e7461696e65722063616e2064656c657465206160008201527f207265636f72642e000000000000000000000000000000000000000000000000602082015250565b6000612ae860288361285b565b9150612af382612a8c565b604082019050919050565b60006020820190508181036000830152612b1781612adb565b9050919050565b7f4e487b7100000000000000000000000000000000000000000000000000000000600052601160045260246000fd5b6000612b5882611e68565b9150612b6383611e68565b925082821015612b7657612b75612b1e565b5b828203905092915050565b7f4e487b7100000000000000000000000000000000000000000000000000000000600052603160045260246000fd5b6000612bbb82611e68565b91507fffffffffffffffffffffffffffffffffffffffffffffffffffffffffffffffff821415612bee57612bed612b1e565b5b600182019050919050565b7f4f6e6c7920746865206d61696e7461696e65722063616e20757064617465207460008201527f6865206d61696e7461696e6572206f662061207265636f72642e000000000000602082015250565b6000612c55603a8361285b565b9150612c6082612bf9565b604082019050919050565b60006020820190508181036000830152612c8481612c48565b9050919050565b7f4f6e6c792074686520726563697069656e742063616e20756e61636b6e6f776c60008201527f6564676520616e20656e7472792e000000000000000000000000000000000000602082015250565b6000612ce7602e8361285b565b9150612cf282612c8b565b604082019050919050565b60006020820190508181036000830152612d1681612cda565b9050919050565b6000819050919050565b612d38612d3382611e68565b612d1d565b82525050565b60008160601b9050919050565b6000612d5682612d3e565b9050919050565b6000612d6882612d4b565b9050919050565b612d80612d7b82611ebe565b612d5d565b82525050565b6000612d928285612d27565b602082019150612da28284612d6f565b6014820191508190509392505050565b6000612dbd82612101565b612dc7818561285b565b9350612dd781856020860161211d565b612de081611f06565b840191505092915050565b612df481611ebe565b82525050565b6000608082019050612e0f6000830187612420565b8181036020830152612e218186612db2565b90508181036040830152612e358185612db2565b9050612e446060830184612deb565b95945050505050565b7f4f6e6c7920746865206d61696e7461696e65722063616e20757064617465207460008201527f68652064657461696c73206f662061207265636f72642e000000000000000000602082015250565b6000612ea960378361285b565b9150612eb482612e4d565b604082019050919050565b60006020820190508181036000830152612ed881612e9c565b9050919050565b7f4f6e6c7920746865206d61696e7461696e65722063616e2061646420656e747260008201527f69657320746f2061207265636f72642e00000000000000000000000000000000602082015250565b6000612f3b60308361285b565b9150612f4682612edf565b604082019050919050565b60006020820190508181036000830152612f6a81612f2e565b9050919050565b612f7a8161244a565b82525050565b600060a082019050612f956000830188612420565b612fa26020830187612420565b612faf6040830186612deb565b612fbc6060830185612f71565b8181036080830152612fce8184612db2565b90509695505050505050565b7f4f6e6c792074686520726563697069656e742063616e2061636b6e6f776c656460008201527f676520616e20656e7472792e0000000000000000000000000000000000000000602082015250565b6000613036602c8361285b565b915061304182612fda565b604082019050919050565b6000602082019050818103600083015261306581613029565b905091905056fea2646970667358221220999c7d6ce879d5c91dbc994afcf13bc7c85ca39c94447ebfb74964335e43750664736f6c63430008090033",
  "linkReferences": {},
  "deployedLinkReferences": {}
}