{
  "_format": "hh-sol-artifact-1",
  "contractName": "Records",
  "sourceName": "contracts/Records.sol",
  "abi": [
    {
      "anonymous": false,
      "inputs": [
        {
          "indexed": false,
          "internalType": "uint256",
          "name": "record_id",
          "type": "uint256"
        },
        {
          "indexed": false,
          "internalType": "uint256",
          "name": "entry_id",
          "type": "uint256"
        },
        {
          "indexed": false,
          "internalType": "address",
          "name": "recipient",
          "type": "address"
        },
        {
          "indexed": false,
          "internalType": "bool",
          "name": "acknowledged",
          "type": "bool"
        },
        {
          "indexed": false,
          "internalType": "string",
          "name": "ipfs_data",
          "type": "string"
        }
      ],
      "name": "EntryAdded",
      "type": "event"
    },
    {
      "anonymous": false,
      "inputs": [
        {
          "indexed": false,
          "internalType": "uint256",
          "name": "id",
          "type": "uint256"
        },
        {
          "indexed": false,
          "internalType": "string",
          "name": "name",
          "type": "string"
        },
        {
          "indexed": false,
          "internalType": "string",
          "name": "description",
          "type": "string"
        },
        {
          "indexed": false,
          "internalType": "address",
          "name": "maintainer",
          "type": "address"
        }
      ],
      "name": "RecordAdded",
      "type": "event"
    },
    {
      "inputs": [
        {
          "internalType": "uint256",
          "name": "_recordId",
          "type": "uint256"
        },
        {
          "internalType": "uint256",
          "name": "_entryId",
          "type": "uint256"
        }
      ],
      "name": "acknowledgeEntry",
      "outputs": [],
      "stateMutability": "nonpayable",
      "type": "function"
    },
    {
      "inputs": [
        {
          "internalType": "uint256",
          "name": "_recordId",
          "type": "uint256"
        },
        {
          "internalType": "address",
          "name": "_recipient",
          "type": "address"
        },
        {
          "internalType": "string",
          "name": "_ipfs_data",
          "type": "string"
        }
      ],
      "name": "addEntry",
      "outputs": [],
      "stateMutability": "nonpayable",
      "type": "function"
    },
    {
      "inputs": [
        {
          "internalType": "string",
          "name": "_name",
          "type": "string"
        },
        {
          "internalType": "string",
          "name": "_description",
          "type": "string"
        },
        {
          "internalType": "string",
          "name": "_ipfs_structure",
          "type": "string"
        }
      ],
      "name": "addRecord",
      "outputs": [],
      "stateMutability": "nonpayable",
      "type": "function"
    },
    {
      "inputs": [
        {
          "internalType": "uint256",
          "name": "_recordId",
          "type": "uint256"
        },
        {
          "internalType": "uint256",
          "name": "_entryId",
          "type": "uint256"
        }
      ],
      "name": "deleteEntry",
      "outputs": [],
      "stateMutability": "nonpayable",
      "type": "function"
    },
    {
      "inputs": [
        {
          "internalType": "uint256",
          "name": "_recordId",
          "type": "uint256"
        }
      ],
      "name": "deleteRecord",
      "outputs": [],
      "stateMutability": "nonpayable",
      "type": "function"
    },
    {
      "inputs": [
        {
          "internalType": "uint256",
          "name": "_recordId",
          "type": "uint256"
        }
      ],
      "name": "getEntries",
      "outputs": [
        {
          "components": [
            {
              "internalType": "address",
              "name": "recipient",
              "type": "address"
            },
            {
              "internalType": "bool",
              "name": "acknowledged",
              "type": "bool"
            },
            {
              "internalType": "string",
              "name": "ipfs_data",
              "type": "string"
            }
          ],
          "internalType": "struct Records.Entry[]",
          "name": "",
          "type": "tuple[]"
        }
      ],
      "stateMutability": "view",
      "type": "function"
    },
    {
      "inputs": [
        {
          "internalType": "uint256",
          "name": "_recordId",
          "type": "uint256"
        },
        {
          "internalType": "uint256",
          "name": "_entryId",
          "type": "uint256"
        }
      ],
      "name": "getEntry",
      "outputs": [
        {
          "components": [
            {
              "internalType": "address",
              "name": "recipient",
              "type": "address"
            },
            {
              "internalType": "bool",
              "name": "acknowledged",
              "type": "bool"
            },
            {
              "internalType": "string",
              "name": "ipfs_data",
              "type": "string"
            }
          ],
          "internalType": "struct Records.Entry",
          "name": "",
          "type": "tuple"
        }
      ],
      "stateMutability": "view",
      "type": "function"
    },
    {
      "inputs": [
        {
          "internalType": "uint256",
          "name": "_recordId",
          "type": "uint256"
        }
      ],
      "name": "getEntryCount",
      "outputs": [
        {
          "internalType": "uint256",
          "name": "",
          "type": "uint256"
        }
      ],
      "stateMutability": "view",
      "type": "function"
    },
    {
      "inputs": [
        {
          "internalType": "uint256",
          "name": "_recordId",
          "type": "uint256"
        }
      ],
      "name": "getRecord",
      "outputs": [
        {
          "components": [
            {
              "internalType": "uint256",
              "name": "id",
              "type": "uint256"
            },
            {
              "internalType": "string",
              "name": "name",
              "type": "string"
            },
            {
              "internalType": "string",
              "name": "description",
              "type": "string"
            },
            {
              "internalType": "address",
              "name": "maintainer",
              "type": "address"
            },
            {
              "internalType": "string",
              "name": "ipfs_structure",
              "type": "string"
            }
          ],
          "internalType": "struct Records.Record",
          "name": "",
          "type": "tuple"
        }
      ],
      "stateMutability": "view",
      "type": "function"
    },
    {
      "inputs": [
        {
          "internalType": "address",
          "name": "_maintainer",
          "type": "address"
        }
      ],
      "name": "getRecordsByMaintainer",
      "outputs": [
        {
          "components": [
            {
              "internalType": "uint256",
              "name": "id",
              "type": "uint256"
            },
            {
              "internalType": "string",
              "name": "name",
              "type": "string"
            },
            {
              "internalType": "string",
              "name": "description",
              "type": "string"
            },
            {
              "internalType": "address",
              "name": "maintainer",
              "type": "address"
            },
            {
              "internalType": "string",
              "name": "ipfs_structure",
              "type": "string"
            }
          ],
          "internalType": "struct Records.Record[]",
          "name": "",
          "type": "tuple[]"
        }
      ],
      "stateMutability": "view",
      "type": "function"
    },
    {
      "inputs": [
        {
          "internalType": "uint256",
          "name": "_recordId",
          "type": "uint256"
        },
        {
          "internalType": "uint256",
          "name": "_entryId",
          "type": "uint256"
        }
      ],
      "name": "unAcknowledgeEntry",
      "outputs": [],
      "stateMutability": "nonpayable",
      "type": "function"
    },
    {
      "inputs": [
        {
          "internalType": "uint256",
          "name": "_recordId",
          "type": "uint256"
        },
        {
          "internalType": "uint256",
          "name": "_entryId",
          "type": "uint256"
        },
        {
          "internalType": "address",
          "name": "_recipient",
          "type": "address"
        },
        {
          "internalType": "string",
          "name": "_ipfs_data",
          "type": "string"
        }
      ],
      "name": "updateEntry",
      "outputs": [],
      "stateMutability": "nonpayable",
      "type": "function"
    },
    {
      "inputs": [
        {
          "internalType": "uint256",
          "name": "_recordId",
          "type": "uint256"
        },
        {
          "internalType": "string",
          "name": "_name",
          "type": "string"
        },
        {
          "internalType": "string",
          "name": "_description",
          "type": "string"
        },
        {
          "internalType": "string",
          "name": "_ipfs_structure",
          "type": "string"
        }
      ],
      "name": "updateRecordDetails",
      "outputs": [],
      "stateMutability": "nonpayable",
      "type": "function"
    },
    {
      "inputs": [
        {
          "internalType": "uint256",
          "name": "_recordId",
          "type": "uint256"
        },
        {
          "internalType": "address",
          "name": "_maintainer",
          "type": "address"
        }
      ],
      "name": "updateRecordMaintainer",
      "outputs": [],
      "stateMutability": "nonpayable",
      "type": "function"
    }
  ],
  "bytecode": "0x608060405234801561001057600080fd5b50612fca806100206000396000f3fe608060405234801561001057600080fd5b50600436106100ea5760003560e01c8063530c53361161008c578063caba589f11610066578063caba589f14610243578063d3549ebd1461025f578063edbecef11461028f578063f10f98f6146102bf576100ea565b8063530c5336146101c75780638c4d6e0f146101e357806398ba676d14610213576100ea565b8063061f9811116100c8578063061f9811146101575780632211e1b21461017357806339efa9ed1461018f5780633f723c62146101ab576100ea565b8063012281ad146100ef57806303e9e6091461010b57806304badc031461013b575b600080fd5b61010960048036038101906101049190611fb6565b6102db565b005b61012560048036038101906101209190612039565b6104c8565b6040516101329190612190565b60405180910390f35b610155600480360381019061015091906121b2565b61070a565b005b610171600480360381019061016c9190612039565b610832565b005b61018d600480360381019061018891906121f2565b610ba2565b005b6101a960048036038101906101a491906121b2565b610c9d565b005b6101c560048036038101906101c09190612232565b610db4565b005b6101e160048036038101906101dc91906122d9565b610f8b565b005b6101fd60048036038101906101f89190612039565b6110b2565b60405161020a91906123a3565b60405180910390f35b61022d600480360381019061022891906121b2565b6110d2565b60405161023a9190612429565b60405180910390f35b61025d6004803603810190610258919061244b565b611223565b005b61027960048036038101906102749190612039565b611422565b60405161028691906125cc565b60405180910390f35b6102a960048036038101906102a491906125ee565b611597565b6040516102b69190612761565b60405180910390f35b6102d960048036038101906102d491906121b2565b611acb565b005b3373ffffffffffffffffffffffffffffffffffffffff1660008086815260200190815260200160002060030160009054906101000a900473ffffffffffffffffffffffffffffffffffffffff1673ffffffffffffffffffffffffffffffffffffffff161461037e576040517f08c379a000000000000000000000000000000000000000000000000000000000815260040161037590612806565b60405180910390fd5b6001600085815260200190815260200160002083815481106103a3576103a2612826565b5b906000526020600020906002020160000160149054906101000a900460ff1615610402576040517f08c379a00000000000000000000000000000000000000000000000000000000081526004016103f9906128a1565b60405180910390fd5b8160016000868152602001908152602001600020848154811061042857610427612826565b5b906000526020600020906002020160000160006101000a81548173ffffffffffffffffffffffffffffffffffffffff021916908373ffffffffffffffffffffffffffffffffffffffff1602179055508060016000868152602001908152602001600020848154811061049d5761049c612826565b5b906000526020600020906002020160010190805190602001906104c1929190611be1565b5050505050565b6104d0611c67565b6000808381526020019081526020016000206040518060a001604052908160008201548152602001600182018054610507906128f0565b80601f0160208091040260200160405190810160405280929190818152602001828054610533906128f0565b80156105805780601f1061055557610100808354040283529160200191610580565b820191906000526020600020905b81548152906001019060200180831161056357829003601f168201915b50505050508152602001600282018054610599906128f0565b80601f01602080910402602001604051908101604052809291908181526020018280546105c5906128f0565b80156106125780601f106105e757610100808354040283529160200191610612565b820191906000526020600020905b8154815290600101906020018083116105f557829003601f168201915b505050505081526020016003820160009054906101000a900473ffffffffffffffffffffffffffffffffffffffff1673ffffffffffffffffffffffffffffffffffffffff1673ffffffffffffffffffffffffffffffffffffffff168152602001600482018054610681906128f0565b80601f01602080910402602001604051908101604052809291908181526020018280546106ad906128f0565b80156106fa5780601f106106cf576101008083540402835291602001916106fa565b820191906000526020600020905b8154815290600101906020018083116106dd57829003601f168201915b5050505050815250509050919050565b3373ffffffffffffffffffffffffffffffffffffffff1660008084815260200190815260200160002060030160009054906101000a900473ffffffffffffffffffffffffffffffffffffffff1673ffffffffffffffffffffffffffffffffffffffff16146107ad576040517f08c379a00000000000000000000000000000000000000000000000000000000081526004016107a490612994565b60405180910390fd5b6001600083815260200190815260200160002081815481106107d2576107d1612826565b5b9060005260206000209060020201600080820160006101000a81549073ffffffffffffffffffffffffffffffffffffffff02191690556000820160146101000a81549060ff021916905560018201600061082c9190611cac565b50505050565b3373ffffffffffffffffffffffffffffffffffffffff1660008083815260200190815260200160002060030160009054906101000a900473ffffffffffffffffffffffffffffffffffffffff1673ffffffffffffffffffffffffffffffffffffffff16146108d5576040517f08c379a00000000000000000000000000000000000000000000000000000000081526004016108cc90612a26565b60405180910390fd5b6000808281526020019081526020016000206000808201600090556001820160006109009190611cac565b6002820160006109109190611cac565b6003820160006101000a81549073ffffffffffffffffffffffffffffffffffffffff02191690556004820160006109479190611cac565b50506001600082815260200190815260200160002060006109689190611cec565b60005b600260003373ffffffffffffffffffffffffffffffffffffffff1673ffffffffffffffffffffffffffffffffffffffff16815260200190815260200160002080549050811015610b9e5781600260003373ffffffffffffffffffffffffffffffffffffffff1673ffffffffffffffffffffffffffffffffffffffff1681526020019081526020016000208281548110610a0757610a06612826565b5b90600052602060002001541415610b8b57600260003373ffffffffffffffffffffffffffffffffffffffff1673ffffffffffffffffffffffffffffffffffffffff1681526020019081526020016000206001600260003373ffffffffffffffffffffffffffffffffffffffff1673ffffffffffffffffffffffffffffffffffffffff16815260200190815260200160002080549050610aa69190612a75565b81548110610ab757610ab6612826565b5b9060005260206000200154600260003373ffffffffffffffffffffffffffffffffffffffff1673ffffffffffffffffffffffffffffffffffffffff1681526020019081526020016000208281548110610b1357610b12612826565b5b9060005260206000200181905550600260003373ffffffffffffffffffffffffffffffffffffffff1673ffffffffffffffffffffffffffffffffffffffff168152602001908152602001600020805480610b7057610b6f612aa9565b5b60019003818190600052602060002001600090559055610b9e565b8080610b9690612ad8565b91505061096b565b5050565b3373ffffffffffffffffffffffffffffffffffffffff1660008084815260200190815260200160002060030160009054906101000a900473ffffffffffffffffffffffffffffffffffffffff1673ffffffffffffffffffffffffffffffffffffffff1614610c45576040517f08c379a0000000000000000000000000000000000000000000000000000000008152600401610c3c90612b93565b60405180910390fd5b8060008084815260200190815260200160002060030160006101000a81548173ffffffffffffffffffffffffffffffffffffffff021916908373ffffffffffffffffffffffffffffffffffffffff1602179055505050565b3373ffffffffffffffffffffffffffffffffffffffff16600160008481526020019081526020016000208281548110610cd957610cd8612826565b5b906000526020600020906002020160000160009054906101000a900473ffffffffffffffffffffffffffffffffffffffff1673ffffffffffffffffffffffffffffffffffffffff1614610d61576040517f08c379a0000000000000000000000000000000000000000000000000000000008152600401610d5890612c25565b60405180910390fd5b6000600160008481526020019081526020016000208281548110610d8857610d87612826565b5b906000526020600020906002020160000160146101000a81548160ff0219169083151502179055505050565b600060c04233604051602001610dcb929190612cae565b60405160208183030381529060405280519060200120901c60001c90506040518060a001604052808281526020018581526020018481526020013373ffffffffffffffffffffffffffffffffffffffff16815260200183815250600080838152602001908152602001600020600082015181600001556020820151816001019080519060200190610e5d929190611be1565b506040820151816002019080519060200190610e7a929190611be1565b5060608201518160030160006101000a81548173ffffffffffffffffffffffffffffffffffffffff021916908373ffffffffffffffffffffffffffffffffffffffff1602179055506080820151816004019080519060200190610ede929190611be1565b50905050600260003373ffffffffffffffffffffffffffffffffffffffff1673ffffffffffffffffffffffffffffffffffffffff1681526020019081526020016000208190806001815401808255809150506001900390600052602060002001600090919091909150557ffafc4abeafc2b3f4bc5cc8f60fba98757990cb39e7063143d65e38dd2a5227f581858533604051610f7d9493929190612d22565b60405180910390a150505050565b3373ffffffffffffffffffffffffffffffffffffffff1660008086815260200190815260200160002060030160009054906101000a900473ffffffffffffffffffffffffffffffffffffffff1673ffffffffffffffffffffffffffffffffffffffff161461102e576040517f08c379a000000000000000000000000000000000000000000000000000000000815260040161102590612de7565b60405180910390fd5b826000808681526020019081526020016000206001019080519060200190611057929190611be1565b50816000808681526020019081526020016000206002019080519060200190611081929190611be1565b508060008086815260200190815260200160002060040190805190602001906110ab929190611be1565b5050505050565b600060016000838152602001908152602001600020805490509050919050565b6110da611d10565b6001600084815260200190815260200160002082815481106110ff576110fe612826565b5b90600052602060002090600202016040518060600160405290816000820160009054906101000a900473ffffffffffffffffffffffffffffffffffffffff1673ffffffffffffffffffffffffffffffffffffffff1673ffffffffffffffffffffffffffffffffffffffff1681526020016000820160149054906101000a900460ff16151515158152602001600182018054611199906128f0565b80601f01602080910402602001604051908101604052809291908181526020018280546111c5906128f0565b80156112125780601f106111e757610100808354040283529160200191611212565b820191906000526020600020905b8154815290600101906020018083116111f557829003601f168201915b505050505081525050905092915050565b3373ffffffffffffffffffffffffffffffffffffffff1660008085815260200190815260200160002060030160009054906101000a900473ffffffffffffffffffffffffffffffffffffffff1673ffffffffffffffffffffffffffffffffffffffff16146112c6576040517f08c379a00000000000000000000000000000000000000000000000000000000081526004016112bd90612e79565b60405180910390fd5b6001600084815260200190815260200160002060405180606001604052808473ffffffffffffffffffffffffffffffffffffffff16815260200160001515815260200183815250908060018154018082558091505060019003906000526020600020906002020160009091909190915060008201518160000160006101000a81548173ffffffffffffffffffffffffffffffffffffffff021916908373ffffffffffffffffffffffffffffffffffffffff16021790555060208201518160000160146101000a81548160ff02191690831515021790555060408201518160010190805190602001906113b9929190611be1565b5050507f86a013c4465e740cdeee36669880227f08a857a9204ed200eeb5e94339b32eeb836001806000878152602001908152602001600020805490506114009190612a75565b84600085604051611415959493929190612ea8565b60405180910390a1505050565b606060016000838152602001908152602001600020805480602002602001604051908101604052809291908181526020016000905b8282101561158c57838290600052602060002090600202016040518060600160405290816000820160009054906101000a900473ffffffffffffffffffffffffffffffffffffffff1673ffffffffffffffffffffffffffffffffffffffff1673ffffffffffffffffffffffffffffffffffffffff1681526020016000820160149054906101000a900460ff161515151581526020016001820180546114fb906128f0565b80601f0160208091040260200160405190810160405280929190818152602001828054611527906128f0565b80156115745780601f1061154957610100808354040283529160200191611574565b820191906000526020600020905b81548152906001019060200180831161155757829003601f168201915b50505050508152505081526020019060010190611457565b505050509050919050565b60606000600260008473ffffffffffffffffffffffffffffffffffffffff1673ffffffffffffffffffffffffffffffffffffffff1681526020019081526020016000208054905067ffffffffffffffff8111156115f7576115f6611e8b565b5b60405190808252806020026020018201604052801561163057816020015b61161d611c67565b8152602001906001900390816116155790505b50905060005b600260008573ffffffffffffffffffffffffffffffffffffffff1673ffffffffffffffffffffffffffffffffffffffff16815260200190815260200160002080549050811015611ac1576040518060a00160405280600260008773ffffffffffffffffffffffffffffffffffffffff1673ffffffffffffffffffffffffffffffffffffffff16815260200190815260200160002083815481106116dc576116db612826565b5b90600052602060002001548152602001600080600260008973ffffffffffffffffffffffffffffffffffffffff1673ffffffffffffffffffffffffffffffffffffffff16815260200190815260200160002085815481106117405761173f612826565b5b906000526020600020015481526020019081526020016000206001018054611767906128f0565b80601f0160208091040260200160405190810160405280929190818152602001828054611793906128f0565b80156117e05780601f106117b5576101008083540402835291602001916117e0565b820191906000526020600020905b8154815290600101906020018083116117c357829003601f168201915b50505050508152602001600080600260008973ffffffffffffffffffffffffffffffffffffffff1673ffffffffffffffffffffffffffffffffffffffff168152602001908152602001600020858154811061183e5761183d612826565b5b906000526020600020015481526020019081526020016000206002018054611865906128f0565b80601f0160208091040260200160405190810160405280929190818152602001828054611891906128f0565b80156118de5780601f106118b3576101008083540402835291602001916118de565b820191906000526020600020905b8154815290600101906020018083116118c157829003601f168201915b50505050508152602001600080600260008973ffffffffffffffffffffffffffffffffffffffff1673ffffffffffffffffffffffffffffffffffffffff168152602001908152602001600020858154811061193c5761193b612826565b5b9060005260206000200154815260200190815260200160002060030160009054906101000a900473ffffffffffffffffffffffffffffffffffffffff1673ffffffffffffffffffffffffffffffffffffffff168152602001600080600260008973ffffffffffffffffffffffffffffffffffffffff1673ffffffffffffffffffffffffffffffffffffffff16815260200190815260200160002085815481106119e8576119e7612826565b5b906000526020600020015481526020019081526020016000206004018054611a0f906128f0565b80601f0160208091040260200160405190810160405280929190818152602001828054611a3b906128f0565b8015611a885780601f10611a5d57610100808354040283529160200191611a88565b820191906000526020600020905b815481529060010190602001808311611a6b57829003601f168201915b5050505050815250828281518110611aa357611aa2612826565b5b60200260200101819052508080611ab990612ad8565b915050611636565b5080915050919050565b3373ffffffffffffffffffffffffffffffffffffffff16600160008481526020019081526020016000208281548110611b0757611b06612826565b5b906000526020600020906002020160000160009054906101000a900473ffffffffffffffffffffffffffffffffffffffff1673ffffffffffffffffffffffffffffffffffffffff1614611b8f576040517f08c379a0000000000000000000000000000000000000000000000000000000008152600401611b8690612f74565b60405180910390fd5b60018060008481526020019081526020016000208281548110611bb557611bb4612826565b5b906000526020600020906002020160000160146101000a81548160ff0219169083151502179055505050565b828054611bed906128f0565b90600052602060002090601f016020900481019282611c0f5760008555611c56565b82601f10611c2857805160ff1916838001178555611c56565b82800160010185558215611c56579182015b82811115611c55578251825591602001919060010190611c3a565b5b509050611c639190611d49565b5090565b6040518060a00160405280600081526020016060815260200160608152602001600073ffffffffffffffffffffffffffffffffffffffff168152602001606081525090565b508054611cb8906128f0565b6000825580601f10611cca5750611ce9565b601f016020900490600052602060002090810190611ce89190611d49565b5b50565b5080546000825560020290600052602060002090810190611d0d9190611d66565b50565b6040518060600160405280600073ffffffffffffffffffffffffffffffffffffffff168152602001600015158152602001606081525090565b5b80821115611d62576000816000905550600101611d4a565b5090565b5b80821115611dc457600080820160006101000a81549073ffffffffffffffffffffffffffffffffffffffff02191690556000820160146101000a81549060ff0219169055600182016000611dbb9190611cac565b50600201611d67565b5090565b6000604051905090565b600080fd5b600080fd5b6000819050919050565b611def81611ddc565b8114611dfa57600080fd5b50565b600081359050611e0c81611de6565b92915050565b600073ffffffffffffffffffffffffffffffffffffffff82169050919050565b6000611e3d82611e12565b9050919050565b611e4d81611e32565b8114611e5857600080fd5b50565b600081359050611e6a81611e44565b92915050565b600080fd5b600080fd5b6000601f19601f8301169050919050565b7f4e487b7100000000000000000000000000000000000000000000000000000000600052604160045260246000fd5b611ec382611e7a565b810181811067ffffffffffffffff82111715611ee257611ee1611e8b565b5b80604052505050565b6000611ef5611dc8565b9050611f018282611eba565b919050565b600067ffffffffffffffff821115611f2157611f20611e8b565b5b611f2a82611e7a565b9050602081019050919050565b82818337600083830152505050565b6000611f59611f5484611f06565b611eeb565b905082815260208101848484011115611f7557611f74611e75565b5b611f80848285611f37565b509392505050565b600082601f830112611f9d57611f9c611e70565b5b8135611fad848260208601611f46565b91505092915050565b60008060008060808587031215611fd057611fcf611dd2565b5b6000611fde87828801611dfd565b9450506020611fef87828801611dfd565b935050604061200087828801611e5b565b925050606085013567ffffffffffffffff81111561202157612020611dd7565b5b61202d87828801611f88565b91505092959194509250565b60006020828403121561204f5761204e611dd2565b5b600061205d84828501611dfd565b91505092915050565b61206f81611ddc565b82525050565b600081519050919050565b600082825260208201905092915050565b60005b838110156120af578082015181840152602081019050612094565b838111156120be576000848401525b50505050565b60006120cf82612075565b6120d98185612080565b93506120e9818560208601612091565b6120f281611e7a565b840191505092915050565b61210681611e32565b82525050565b600060a0830160008301516121246000860182612066565b506020830151848203602086015261213c82826120c4565b9150506040830151848203604086015261215682826120c4565b915050606083015161216b60608601826120fd565b506080830151848203608086015261218382826120c4565b9150508091505092915050565b600060208201905081810360008301526121aa818461210c565b905092915050565b600080604083850312156121c9576121c8611dd2565b5b60006121d785828601611dfd565b92505060206121e885828601611dfd565b9150509250929050565b6000806040838503121561220957612208611dd2565b5b600061221785828601611dfd565b925050602061222885828601611e5b565b9150509250929050565b60008060006060848603121561224b5761224a611dd2565b5b600084013567ffffffffffffffff81111561226957612268611dd7565b5b61227586828701611f88565b935050602084013567ffffffffffffffff81111561229657612295611dd7565b5b6122a286828701611f88565b925050604084013567ffffffffffffffff8111156122c3576122c2611dd7565b5b6122cf86828701611f88565b9150509250925092565b600080600080608085870312156122f3576122f2611dd2565b5b600061230187828801611dfd565b945050602085013567ffffffffffffffff81111561232257612321611dd7565b5b61232e87828801611f88565b935050604085013567ffffffffffffffff81111561234f5761234e611dd7565b5b61235b87828801611f88565b925050606085013567ffffffffffffffff81111561237c5761237b611dd7565b5b61238887828801611f88565b91505092959194509250565b61239d81611ddc565b82525050565b60006020820190506123b86000830184612394565b92915050565b60008115159050919050565b6123d3816123be565b82525050565b60006060830160008301516123f160008601826120fd565b50602083015161240460208601826123ca565b506040830151848203604086015261241c82826120c4565b9150508091505092915050565b6000602082019050818103600083015261244381846123d9565b905092915050565b60008060006060848603121561246457612463611dd2565b5b600061247286828701611dfd565b935050602061248386828701611e5b565b925050604084013567ffffffffffffffff8111156124a4576124a3611dd7565b5b6124b086828701611f88565b9150509250925092565b600081519050919050565b600082825260208201905092915050565b6000819050602082019050919050565b60006060830160008301516124fe60008601826120fd565b50602083015161251160208601826123ca565b506040830151848203604086015261252982826120c4565b9150508091505092915050565b600061254283836124e6565b905092915050565b6000602082019050919050565b6000612562826124ba565b61256c81856124c5565b93508360208202850161257e856124d6565b8060005b858110156125ba578484038952815161259b8582612536565b94506125a68361254a565b925060208a01995050600181019050612582565b50829750879550505050505092915050565b600060208201905081810360008301526125e68184612557565b905092915050565b60006020828403121561260457612603611dd2565b5b600061261284828501611e5b565b91505092915050565b600081519050919050565b600082825260208201905092915050565b6000819050602082019050919050565b600060a08301600083015161265f6000860182612066565b506020830151848203602086015261267782826120c4565b9150506040830151848203604086015261269182826120c4565b91505060608301516126a660608601826120fd565b50608083015184820360808601526126be82826120c4565b9150508091505092915050565b60006126d78383612647565b905092915050565b6000602082019050919050565b60006126f78261261b565b6127018185612626565b93508360208202850161271385612637565b8060005b8581101561274f578484038952815161273085826126cb565b945061273b836126df565b925060208a01995050600181019050612717565b50829750879550505050505092915050565b6000602082019050818103600083015261277b81846126ec565b905092915050565b600082825260208201905092915050565b7f4f6e6c7920746865206d61696e7461696e65722063616e20757064617465207460008201527f686520656e7472696573206f662061207265636f72642e000000000000000000602082015250565b60006127f0603783612783565b91506127fb82612794565b604082019050919050565b6000602082019050818103600083015261281f816127e3565b9050919050565b7f4e487b7100000000000000000000000000000000000000000000000000000000600052603260045260246000fd5b7f456e74727920616c72656164792061636b6e6f776c65646765642e0000000000600082015250565b600061288b601b83612783565b915061289682612855565b602082019050919050565b600060208201905081810360008301526128ba8161287e565b9050919050565b7f4e487b7100000000000000000000000000000000000000000000000000000000600052602260045260246000fd5b6000600282049050600182168061290857607f821691505b6020821081141561291c5761291b6128c1565b5b50919050565b7f4f6e6c7920746865206d61696e7461696e65722063616e2064656c657465206560008201527f6e74726965732066726f6d2061207265636f72642e0000000000000000000000602082015250565b600061297e603583612783565b915061298982612922565b604082019050919050565b600060208201905081810360008301526129ad81612971565b9050919050565b7f4f6e6c7920746865206d61696e7461696e65722063616e2064656c657465206160008201527f207265636f72642e000000000000000000000000000000000000000000000000602082015250565b6000612a10602883612783565b9150612a1b826129b4565b604082019050919050565b60006020820190508181036000830152612a3f81612a03565b9050919050565b7f4e487b7100000000000000000000000000000000000000000000000000000000600052601160045260246000fd5b6000612a8082611ddc565b9150612a8b83611ddc565b925082821015612a9e57612a9d612a46565b5b828203905092915050565b7f4e487b7100000000000000000000000000000000000000000000000000000000600052603160045260246000fd5b6000612ae382611ddc565b91507fffffffffffffffffffffffffffffffffffffffffffffffffffffffffffffffff821415612b1657612b15612a46565b5b600182019050919050565b7f4f6e6c7920746865206d61696e7461696e65722063616e20757064617465207460008201527f6865206d61696e7461696e6572206f662061207265636f72642e000000000000602082015250565b6000612b7d603a83612783565b9150612b8882612b21565b604082019050919050565b60006020820190508181036000830152612bac81612b70565b9050919050565b7f4f6e6c792074686520726563697069656e742063616e20756e61636b6e6f776c60008201527f6564676520616e20656e7472792e000000000000000000000000000000000000602082015250565b6000612c0f602e83612783565b9150612c1a82612bb3565b604082019050919050565b60006020820190508181036000830152612c3e81612c02565b9050919050565b6000819050919050565b612c60612c5b82611ddc565b612c45565b82525050565b60008160601b9050919050565b6000612c7e82612c66565b9050919050565b6000612c9082612c73565b9050919050565b612ca8612ca382611e32565b612c85565b82525050565b6000612cba8285612c4f565b602082019150612cca8284612c97565b6014820191508190509392505050565b6000612ce582612075565b612cef8185612783565b9350612cff818560208601612091565b612d0881611e7a565b840191505092915050565b612d1c81611e32565b82525050565b6000608082019050612d376000830187612394565b8181036020830152612d498186612cda565b90508181036040830152612d5d8185612cda565b9050612d6c6060830184612d13565b95945050505050565b7f4f6e6c7920746865206d61696e7461696e65722063616e20757064617465207460008201527f68652064657461696c73206f662061207265636f72642e000000000000000000602082015250565b6000612dd1603783612783565b9150612ddc82612d75565b604082019050919050565b60006020820190508181036000830152612e0081612dc4565b9050919050565b7f4f6e6c7920746865206d61696e7461696e65722063616e2061646420656e747260008201527f69657320746f2061207265636f72642e00000000000000000000000000000000602082015250565b6000612e63603083612783565b9150612e6e82612e07565b604082019050919050565b60006020820190508181036000830152612e9281612e56565b9050919050565b612ea2816123be565b82525050565b600060a082019050612ebd6000830188612394565b612eca6020830187612394565b612ed76040830186612d13565b612ee46060830185612e99565b8181036080830152612ef68184612cda565b90509695505050505050565b7f4f6e6c792074686520726563697069656e742063616e2061636b6e6f776c656460008201527f676520616e20656e7472792e0000000000000000000000000000000000000000602082015250565b6000612f5e602c83612783565b9150612f6982612f02565b604082019050919050565b60006020820190508181036000830152612f8d81612f51565b905091905056fea2646970667358221220280cf641ec64a4a79e9f9c62b77041f426d56fc3a607c5e55889e452ade3395864736f6c63430008090033",
  "linkReferences": {},
  "deployedLinkReferences": {}
}